{"address":"0x8B5A28eCea18cB9c387058031c212a48366AD138","bytecode":"0x60e0604052600560a081905264615553444360d81b60c090815262000028916007919062000193565b506298968060095542600c55620151804262000045919062000239565b600d55601280546001600160a01b03191690553480156200006557600080fd5b5060405162003d8238038062003d8283398101604081905262000088916200027d565b866001600160a01b038116620000b15760405163e6c4247b60e01b815260040160405180910390fd5b6001600160a01b03166080526001600055620000cd3362000141565b600280546001600160a01b03199081166001600160a01b0398891617909155600480548216968816969096179095556005805486169487169490941790935560068054851692861692909217909155600380548416918516919091179055600880549092169216919091179055506200034f565b600180546001600160a01b038381166001600160a01b0319831681179093556040519116919082907f8be0079c531659141344cd1fd0a4f28419497f9722a3daafe3b4186f6b6457e090600090a35050565b828054620001a19062000312565b90600052602060002090601f016020900481019282620001c5576000855562000210565b82601f10620001e057805160ff191683800117855562000210565b8280016001018555821562000210579182015b8281111562000210578251825591602001919060010190620001f3565b506200021e92915062000222565b5090565b5b808211156200021e576000815560010162000223565b600082198211156200025b57634e487b7160e01b600052601160045260246000fd5b500190565b80516001600160a01b03811681146200027857600080fd5b919050565b600080600080600080600060e0888a0312156200029957600080fd5b620002a48862000260565b9650620002b46020890162000260565b9550620002c46040890162000260565b9450620002d46060890162000260565b9350620002e46080890162000260565b9250620002f460a0890162000260565b91506200030460c0890162000260565b905092959891949750929550565b600181811c908216806200032757607f821691505b602082108114156200034957634e487b7160e01b600052602260045260246000fd5b50919050565b6080516139e66200039c6000396000818161017b0152818161063801528181610a8f015281816114e2015281816125230152818161276b015281816129f30152612c1101526139e66000f3fe6080604052600436106101385760003560e01c80638cd221c9116100b0578063c89109131161006c578063c8910913146103b0578063e529527214610418578063f2fde38b14610438578063f6153ccd14610458578063fb41be161461046e578063ffc9896b1461048e57005b80638cd221c9146102af5780638da5cb5b146102c5578063a2fb1175146102e3578063a829326d14610350578063b6b55f2514610370578063b7442c9f1461039057005b80632e1a7d4d116100ff5780632e1a7d4d14610202578063379607f5146102225780634916065814610242578063715018a6146102625780637e87e4bf146102775780638c3a42711461028d57005b80630e54472714610141578063116191b61461016957806311cceaf6146101b55780631a98b2e0146101cb5780632a6c5176146101eb57005b3661013f57005b005b34801561014d57600080fd5b506101566104bb565b6040519081526020015b60405180910390f35b34801561017557600080fd5b5061019d7f000000000000000000000000000000000000000000000000000000000000000081565b6040516001600160a01b039091168152602001610160565b3480156101c157600080fd5b50610156600a5481565b3480156101d757600080fd5b5061013f6101e6366004612de2565b610607565b3480156101f757600080fd5b506101566201518081565b34801561020e57600080fd5b5061013f61021d366004612ebc565b61070a565b34801561022e57600080fd5b5061013f61023d366004612ebc565b610925565b34801561024e57600080fd5b5061013f61025d366004612ed5565b610a5e565b34801561026e57600080fd5b5061013f610b47565b34801561028357600080fd5b5061015661025881565b34801561029957600080fd5b506102a2610b5b565b6040516101609190612fd1565b3480156102bb57600080fd5b5061015660095481565b3480156102d157600080fd5b506001546001600160a01b031661019d565b3480156102ef57600080fd5b5061032b6102fe366004612ebc565b6010602052600090815260409020805460019091015460ff82169161010090046001600160a01b03169083565b6040805193151584526001600160a01b03909216602084015290820152606001610160565b34801561035c57600080fd5b5061013f61036b366004612ff9565b610be9565b34801561037c57600080fd5b5061013f61038b366004612ebc565b610c13565b34801561039c57600080fd5b5061013f6103ab366004613087565b610f1d565b3480156103bc57600080fd5b506103f66103cb366004612ff9565b600f60205260009081526040902080546001820154600283015460039093015460ff90921692909184565b6040805194151585526020850193909352918301526060820152608001610160565b34801561042457600080fd5b5061019d610433366004612ebc565b6112ce565b34801561044457600080fd5b5061013f610453366004612ff9565b6112f8565b34801561046457600080fd5b50610156600b5481565b34801561047a57600080fd5b5060085461019d906001600160a01b031681565b34801561049a57600080fd5b506104ae6104a9366004612ff9565b61136e565b604051610160919061312d565b600654600480546040516335ea6a7560e01b81526001600160a01b039182169281019290925260009283929116906335ea6a75906024016101e06040518083038186803b15801561050b57600080fd5b505afa15801561051f573d6000803e3d6000fd5b505050506040513d601f19601f820116820180604052508101906105439190613246565b600b546020820151600554604051630ed1279f60e11b8152306004820152939450610601936105fb926b033b2e3c9fd0803ce8000000926105f5926001600160801b03909216916001600160a01b0390911690631da24f3e9060240160206040518083038186803b1580156105b757600080fd5b505afa1580156105cb573d6000803e3d6000fd5b505050506040513d601f19601f820116820180604052508101906105ef9190613369565b906114a1565b906114b6565b906114c2565b91505090565b60008585604051610619929190613382565b604051908190038120631876eed960e01b825291506001600160a01b037f00000000000000000000000000000000000000000000000000000000000000001690631876eed99061067d908e908e908e908e908e9089908d908d908d906004016133bb565b602060405180830381600087803b15801561069757600080fd5b505af11580156106ab573d6000803e3d6000fd5b505050506040513d601f19601f820116820180604052508101906106cf919061341a565b6106ec57604051631403112d60e21b815260040160405180910390fd5b6106fd8a8a8a8a8a8a8a8a8a6114ce565b5050505050505050505050565b336000818152600f602052604090205460ff166107425760405162461bcd60e51b81526004016107399061343c565b60405180910390fd5b61074a6118c4565b336000908152600f60205260409020600101548211156107a35760405162461bcd60e51b8152602060048201526014602482015273696e73756666696369656e742062616c616e636560601b6044820152606401610739565b81600b60008282546107b5919061347a565b909155505060065460048054604051631a4ca37b60e21b81526001600160a01b039182169281019290925260248201859052306044830152909116906369328dec90606401602060405180830381600087803b15801561081457600080fd5b505af1158015610828573d6000803e3d6000fd5b505050506040513d601f19601f8201168201806040525081019061084c9190613369565b50600061086c61086561085e3361191e565b85906114a1565b84906114c2565b336000908152600f602052604081206001018054929350859290919061089390849061347a565b9091555050336000908152600f60205260409020600101546108ba576108ba33600e611969565b6004546108d1906001600160a01b03163383611a73565b336001600160a01b03167ff0ccc01369b7fa379493616626b8963509d65cb00db21bcea3e2ef62b99ee0296009548360405161090e929190613491565b60405180910390a2506109216001600055565b5050565b6000818152601060205260409020548190339060ff166109575760405162461bcd60e51b81526004016107399061343c565b6000828152601060205260409020546001600160a01b0382811661010090920416146109c55760405162461bcd60e51b815260206004820152601f60248201527f6e6f7420612077696e6e6572206f6e20726f756e6420737065736966696564006044820152606401610739565b6109cd6118c4565b600083815260106020526040812060018101805482546001600160a81b03191690925591909155600454610a0b906001600160a01b03163383611a73565b336001600160a01b03167fb26d72f1f96f5b9982fb943039f9409789540297914dba2fdb53a3e488fd67d88583604051610a46929190613491565b60405180910390a250610a596001600055565b505050565b60008282604051610a70929190613382565b604051908190038120635f6970c360e01b825291506001600160a01b037f00000000000000000000000000000000000000000000000000000000000000001690635f6970c390610ace908b908b908b908b908b9089906004016134bf565b602060405180830381600087803b158015610ae857600080fd5b505af1158015610afc573d6000803e3d6000fd5b505050506040513d601f19601f82011682018060405250810190610b20919061341a565b610b3d57604051631403112d60e21b815260040160405180910390fd5b5050505050505050565b610b4f611ade565b610b596000611b38565b565b60078054610b6890613500565b80601f0160208091040260200160405190810160405280929190818152602001828054610b9490613500565b8015610be15780601f10610bb657610100808354040283529160200191610be1565b820191906000526020600020905b815481529060010190602001808311610bc457829003601f168201915b505050505081565b610bf1611ade565b601280546001600160a01b0319166001600160a01b0392909216919091179055565b610c1b6118c4565b600480546040516370a0823160e01b8152339281019290925282916001600160a01b03909116906370a082319060240160206040518083038186803b158015610c6357600080fd5b505afa158015610c77573d6000803e3d6000fd5b505050506040513d601f19601f82011682018060405250810190610c9b9190613369565b1015610ce05760405162461bcd60e51b8152602060048201526014602482015273696e73756666696369656e742062616c616e636560601b6044820152606401610739565b80600b6000828254610cf29190613535565b9091555050336000908152600f602052604090205460ff1615610d3c57336000908152600f602052604081206001018054839290610d31908490613535565b90915550610daf9050565b336000818152600f60205260408120805460ff1916600190811782558181018590554260028301819055600390920191909155600e805491820181559091527fbb7b4a454dc3493923482f07822329ed19e8244eff582cc204f8554c3620c3fd0180546001600160a01b03191690911790555b600454610dc7906001600160a01b0316333084611b8a565b6004805460065460405163095ea7b360e01b81526001600160a01b039182169381019390935260248301849052169063095ea7b390604401602060405180830381600087803b158015610e1957600080fd5b505af1158015610e2d573d6000803e3d6000fd5b505050506040513d601f19601f82011682018060405250810190610e51919061341a565b506006546004805460405163617ba03760e01b81526001600160a01b039182169281019290925260248201849052306044830152600060648301529091169063617ba03790608401600060405180830381600087803b158015610eb357600080fd5b505af1158015610ec7573d6000803e3d6000fd5b50505050336001600160a01b03167f079a00d95c8ba77895d65ce09232bc98446b1b0de6f74c249d199ab26a11c2fa60095483604051610f08929190613491565b60405180910390a2610f1a6001600055565b50565b600e54610f605760405162461bcd60e51b81526020600482015260116024820152706e6f207573657273206465706f7369742160781b6044820152606401610739565b6012546001600160a01b03163314610fa95760405162461bcd60e51b815260206004820152600c60248201526b155b985d5d1a1bdc9a5e995960a21b6044820152606401610739565b600e5460009067ffffffffffffffff811115610fc757610fc7613016565b604051908082528060200260200182016040528015610ff0578160200160208202803683370190505b5090506000805b600e54811015611120576000611094600f6000600e858154811061101d5761101d61354d565b60009182526020808320909101546001600160a01b0316835282019290925260400190206002015461104f904261347a565b600f6000600e86815481106110665761106661354d565b60009182526020808320909101546001600160a01b0316835282019290925260400190206001015490611bc8565b9050808483815181106110a9576110a961354d565b602002602001018181525050600e82815481106110c8576110c861354d565b60009182526020808320909101548383526011909152604090912080546001600160a01b0319166001600160a01b0390921691909117905561110a8184613535565b925050808061111890613563565b915050610ff7565b5061113a82600060018551611135919061347a565b611bd4565b9150600061116b82856000815181106111555761115561354d565b6020026020010151611d6190919063ffffffff16565b905060006111798483611d6d565b90506000601160008684815181106111935761119361354d565b6020026020010151815260200190815260200160002060009054906101000a90046001600160a01b0316905060006111c96104bb565b6040805160608101825260018082526001600160a01b038681166020808501828152858701888152600980546000908152601085528981209851895494516001600160a81b0319909516901515610100600160a81b0319161761010094909716939093029590951787555195850195909555818552600f81528585204260028083019190915587518089018952855481528084018a81526004909301805480890182559089529784902090519790910201958655519490930193909355549251848152939450919290917f712f8f97b2d374168ccc696af73af8177e1cd3e052cd391ef8a50136ec2c9d83910160405180910390a36112c6611e12565b610b3d611ec7565b600e81815481106112de57600080fd5b6000918252602090912001546001600160a01b0316905081565b611300611ade565b6001600160a01b0381166113655760405162461bcd60e51b815260206004820152602660248201527f4f776e61626c653a206e6577206f776e657220697320746865207a65726f206160448201526564647265737360d01b6064820152608401610739565b610f1a81611b38565b6113a26040518060a00160405280600015158152602001600081526020016000815260200160008152602001606081525090565b6001600160a01b0382166000908152600f6020526040902054829060ff166113dc5760405162461bcd60e51b81526004016107399061343c565b6001600160a01b0383166000908152600f60209081526040808320815160a081018352815460ff161515815260018201548185015260028201548184015260038201546060820152600482018054845181870281018701909552808552919592946080870194939192919084015b828210156114905783829060005260206000209060020201604051806040016040529081600082015481526020016001820154815250508152602001906001019061144a565b505050508152505091505b50919050565b60006114ad828461357e565b90505b92915050565b60006114ad82846135b3565b60006114ad828461347a565b60006114dc858701876135c7565b905060007f00000000000000000000000000000000000000000000000000000000000000006001600160a01b031663935b13f686866040518363ffffffff1660e01b815260040161152e929190613640565b60206040518083038186803b15801561154657600080fd5b505afa15801561155a573d6000803e3d6000fd5b505050506040513d601f19601f8201168201806040525081019061157e9190613654565b90508160400151600014156115f75761159f82600001518360200151611efe565b81600001516001600160a01b03167f079a00d95c8ba77895d65ce09232bc98446b1b0de6f74c249d199ab26a11c2fa8c8c856080015186602001516040516115ea9493929190613671565b60405180910390a26106fd565b8160400151600114156117575760006040518060e001604052808460200151815260200184600001516001600160a01b03168152602001836001600160a01b03168152602001846060015181526020018d8d8080601f016020809104026020016040519081016040528093929190818152602001838380828437600092019190915250505090825250604080516020601f8e018190048102820181019092528c815291810191908d908d9081908401838280828437600092019190915250505090825250604080516020601f8a018190048102820181019092528881529181019190899089908190840183828082843760009201919091525050509152509050611700816121b6565b82600001516001600160a01b03167ff0ccc01369b7fa379493616626b8963509d65cb00db21bcea3e2ef62b99ee0298d8d60095487602001516040516117499493929190613671565b60405180910390a2506106fd565b8160400151600214156106fd5760006040518060e0016040528084600001516001600160a01b03168152602001846080015181526020018d8d8080601f0160208091040260200160405190810160405280939291908181526020018383808284376000920191909152505050908252506060808601516020808401919091526001600160a01b0386166040808501919091528051601f8f018390048302810183019091528d815291909201918d908d9081908401838280828437600092019190915250505090825250604080516020601f8a018190048102820181019092528881529181019190899089908190840183828082843760009201919091525050509152509050611865816125c7565b82600001516001600160a01b03167fb26d72f1f96f5b9982fb943039f9409789540297914dba2fdb53a3e488fd67d88d8d60095487602001516040516118ae9493929190613671565b60405180910390a2505050505050505050505050565b600260005414156119175760405162461bcd60e51b815260206004820152601f60248201527f5265656e7472616e637947756172643a207265656e7472616e742063616c6c006044820152606401610739565b6002600055565b60008061192d6102584261347a565b6001600160a01b0384166000908152600f602052604090206003015411611955576000611962565b61196260036103e86114b6565b9392505050565b60005b8154811015610a5957826001600160a01b03168282815481106119915761199161354d565b6000918252602090912001546001600160a01b03161415611a6157815482906119bc9060019061347a565b815481106119cc576119cc61354d565b9060005260206000200160009054906101000a90046001600160a01b03168282815481106119fc576119fc61354d565b9060005260206000200160006101000a8154816001600160a01b0302191690836001600160a01b0316021790555081805480611a3a57611a3a613698565b600082815260209020810160001990810180546001600160a01b0319169055019055505050565b80611a6b81613563565b91505061196c565b6040516001600160a01b038316602482015260448101829052610a5990849063a9059cbb60e01b906064015b60408051601f198184030181529190526020810180516001600160e01b03166001600160e01b0319909316929092179091526128ed565b505050505050565b6001546001600160a01b03163314610b595760405162461bcd60e51b815260206004820181905260248201527f4f776e61626c653a2063616c6c6572206973206e6f7420746865206f776e65726044820152606401610739565b600180546001600160a01b038381166001600160a01b0319831681179093556040519116919082907f8be0079c531659141344cd1fd0a4f28419497f9722a3daafe3b4186f6b6457e090600090a35050565b6040516001600160a01b0380851660248301528316604482015260648101829052611bc29085906323b872dd60e01b90608401611a9f565b50505050565b60006114ad8284613535565b6060828280821415611bea578592505050611962565b6000866002611bf988886136ae565b611c0391906136ed565b611c0d908861371b565b81518110611c1d57611c1d61354d565b602002602001015190505b818313611d2c575b80878481518110611c4357611c4361354d565b60200260200101511115611c635782611c5b8161375c565b935050611c30565b868281518110611c7557611c7561354d565b6020026020010151811115611c965781611c8e81613775565b925050611c63565b818313611d2757868281518110611caf57611caf61354d565b6020026020010151878481518110611cc957611cc961354d565b6020026020010151888581518110611ce357611ce361354d565b60200260200101898581518110611cfc57611cfc61354d565b60209081029190910101919091525282611d158161375c565b9350508180611d2390613775565b9250505b611c28565b81861215611d4157611d3f878784611bd4565b505b84831215611d5657611d54878487611bd4565b505b509495945050505050565b60006114ad8284613793565b6000825160011415611d81575060006114b0565b6000805b8451811015611dfb578382868381518110611da257611da261354d565b6020026020010151611db49190613535565b10611dc25791506114b09050565b848181518110611dd457611dd461354d565b602002602001015182611de79190613535565b915080611df381613563565b915050611d85565b5060018451611e0a919061347a565b949350505050565b6000611e1c6104bb565b905080600a6000828254611e309190613535565b909155505060065460048054604051631a4ca37b60e21b81526001600160a01b039182169281019290925260248201849052306044830152909116906369328dec90606401602060405180830381600087803b158015611e8f57600080fd5b505af1158015611ea3573d6000803e3d6000fd5b505050506040513d601f19601f820116820180604052508101906109219190613369565b42600c819055600090611ede906201518090613535565b600d5560098054906000611ef183613563565b9190505550600954905090565b600480546040516370a0823160e01b8152309281019290925282916001600160a01b03909116906370a082319060240160206040518083038186803b158015611f4657600080fd5b505afa158015611f5a573d6000803e3d6000fd5b505050506040513d601f19601f82011682018060405250810190611f7e9190613369565b1015611fcc5760405162461bcd60e51b815260206004820181905260248201527f696e73756666696369656e742062616c616e6365206f6e20636f6e74726163746044820152606401610739565b80600b6000828254611fde9190613535565b90915550506001600160a01b0382166000908152600f602052604090205460ff161561203a576001600160a01b0382166000908152600f60205260408120600101805483929061202f908490613535565b909155506120b69050565b6001600160a01b0382166000818152600f60205260408120805460ff1916600190811782558181018590554260028301819055600390920191909155600e805491820181559091527fbb7b4a454dc3493923482f07822329ed19e8244eff582cc204f8554c3620c3fd0180546001600160a01b03191690911790555b6004805460065460405163095ea7b360e01b81526001600160a01b039182169381019390935260248301849052169063095ea7b390604401602060405180830381600087803b15801561210857600080fd5b505af115801561211c573d6000803e3d6000fd5b505050506040513d601f19601f82011682018060405250810190612140919061341a565b506006546004805460405163617ba03760e01b81526001600160a01b039182169281019290925260248201849052306044830152600060648301529091169063617ba03790608401600060405180830381600087803b1580156121a257600080fd5b505af1158015611ad6573d6000803e3d6000fd5b6020808201516001600160a01b0381166000908152600f90925260409091205460ff166121f55760405162461bcd60e51b81526004016107399061343c565b81516020808401516001600160a01b03166000908152600f9091526040902060010154101561225e5760405162461bcd60e51b8152602060048201526015602482015274034b739bab33334b1b4b2b73a103130b630b731b29605d1b6044820152606401610739565b8151600b805460009061227290849061347a565b9091555050600654600480548451604051631a4ca37b60e21b81526001600160a01b03928316938101939093526024830152306044830152909116906369328dec90606401602060405180830381600087803b1580156122d157600080fd5b505af11580156122e5573d6000803e3d6000fd5b505050506040513d601f19601f820116820180604052508101906123099190613369565b50600061232f61232761231f856020015161191e565b8551906114a1565b8451906114c2565b83516020808601516001600160a01b03166000908152600f909152604081206001018054939450919261236390849061347a565b90915550506020808401516001600160a01b03166000908152600f909152604090206001015461239c5761239c8360200151600e611969565b6040838101516003546060860151925163095ea7b360e01b81526001600160a01b0391821660048201526024810193909352169063095ea7b390604401602060405180830381600087803b1580156123f357600080fd5b505af1158015612407573d6000803e3d6000fd5b505050506040513d601f19601f8201168201806040525081019061242b919061341a565b5060035460608401516040850151612451926001600160a01b0391821692911690611a73565b600061246084606001516129bf565b90506000846020015160405160200161248891906001600160a01b0391909116815260200190565b60408051601f1981840301815260e0830182523083526080808901805160208681019190915260a0808c01805188880152606080890187905260c0808f018051888c0152848b018e90528f8601516001600160a01b03908116928c019290925289519485018a529551845291519383019390935281870186905292519181019190915291820188905289840151935163095ea7b360e01b81527f000000000000000000000000000000000000000000000000000000000000000082166004820152602481018990529295509092169063095ea7b390604401602060405180830381600087803b15801561257a57600080fd5b505af115801561258e573d6000803e3d6000fd5b505050506040513d601f19601f820116820180604052508101906125b2919061341a565b506125be828286612b58565b50505050505050565b60208082015182516000828152601090935260409092205490919060ff166126015760405162461bcd60e51b81526004016107399061343c565b6000828152601060205260409020546001600160a01b03828116610100909204161461266f5760405162461bcd60e51b815260206004820152601f60248201527f6e6f7420612077696e6e6572206f6e20726f756e6420737065736966696564006044820152606401610739565b602083810151600090815260109091526040908190206001015460808501516003546060870151935163095ea7b360e01b81526001600160a01b0391821660048201526024810194909452919291169063095ea7b390604401602060405180830381600087803b1580156126e257600080fd5b505af11580156126f6573d6000803e3d6000fd5b505050506040513d601f19601f8201168201806040525081019061271a919061341a565b5060035460608501516080860151612740926001600160a01b0391821692911690611a73565b600061274f85606001516129bf565b608086015160405163095ea7b360e01b81526001600160a01b037f0000000000000000000000000000000000000000000000000000000000000000811660048301526024820186905292935091169063095ea7b390604401602060405180830381600087803b1580156127c157600080fd5b505af11580156127d5573d6000803e3d6000fd5b505050506040513d601f19601f820116820180604052508101906127f9919061341a565b50602080860151600090815260108252604080822080546001600160a81b031916815560010182905587519051919261284192016001600160a01b0391909116815260200190565b604051602081830303815290604052905060006040518060e00160405280306001600160a01b03168152602001886040015181526020018860a0015181526020018381526020018860c00151815260200185815260200188600001516001600160a01b0316815250905060006040518060a00160405280896040015181526020018960a0015181526020018481526020018960c001518152602001868152509050610b3d828286612b58565b6000612942826040518060400160405280602081526020017f5361666545524332303a206c6f772d6c6576656c2063616c6c206661696c6564815250856001600160a01b0316612c799092919063ffffffff16565b805190915015610a595780806020019051810190612960919061341a565b610a595760405162461bcd60e51b815260206004820152602a60248201527f5361666545524332303a204552433230206f7065726174696f6e20646964206e6044820152691bdd081cdd58d8d9595960b21b6064820152608401610739565b6040805160028082526060820183526000928392919060208301908036833750506040516349ad89fb60e11b8152919250507f00000000000000000000000000000000000000000000000000000000000000006001600160a01b03169063935b13f690612a31906007906004016137a7565b60206040518083038186803b158015612a4957600080fd5b505afa158015612a5d573d6000803e3d6000fd5b505050506040513d601f19601f82011682018060405250810190612a819190613654565b81600081518110612a9457612a9461354d565b6001600160a01b039283166020918202929092010152600854825191169082906001908110612ac557612ac561354d565b6001600160a01b039283166020918202929092010152600354604051637701bfaf60e11b815291169063ee037f5e90612b069086908590309060040161384f565b602060405180830381600087803b158015612b2057600080fd5b505af1158015612b34573d6000803e3d6000fd5b505050506040513d601f19601f820116820180604052508101906119629190613369565b600254835160208501516040808701516060880151608089015160a08a015160c08b01519451636316100160e11b81526001600160a01b039098169763c62c2002978a97612bb597919690959094909390929091906004016138bb565b6000604051808303818588803b158015612bce57600080fd5b505af1158015612be2573d6000803e3d6000fd5b505084516020860151604080880151606089015160808a01519251632d505c2160e21b81526001600160a01b037f000000000000000000000000000000000000000000000000000000000000000016985063b54170849750612c4b965091929091600401613934565b600060405180830381600087803b158015612c6557600080fd5b505af11580156125be573d6000803e3d6000fd5b6060611e0a848460008585600080866001600160a01b03168587604051612ca09190613994565b60006040518083038185875af1925050503d8060008114612cdd576040519150601f19603f3d011682016040523d82523d6000602084013e612ce2565b606091505b5091509150612cf387838387612cfe565b979650505050505050565b60608315612d6a578251612d63576001600160a01b0385163b612d635760405162461bcd60e51b815260206004820152601d60248201527f416464726573733a2063616c6c20746f206e6f6e2d636f6e74726163740000006044820152606401610739565b5081611e0a565b611e0a8383815115612d7f5781518083602001fd5b8060405162461bcd60e51b81526004016107399190612fd1565b60008083601f840112612dab57600080fd5b50813567ffffffffffffffff811115612dc357600080fd5b602083019150836020828501011115612ddb57600080fd5b9250929050565b60008060008060008060008060008060c08b8d031215612e0157600080fd5b8a35995060208b013567ffffffffffffffff80821115612e2057600080fd5b612e2c8e838f01612d99565b909b50995060408d0135915080821115612e4557600080fd5b612e518e838f01612d99565b909950975060608d0135915080821115612e6a57600080fd5b612e768e838f01612d99565b909750955060808d0135915080821115612e8f57600080fd5b50612e9c8d828e01612d99565b9150809450508092505060a08b013590509295989b9194979a5092959850565b600060208284031215612ece57600080fd5b5035919050565b60008060008060008060006080888a031215612ef057600080fd5b87359650602088013567ffffffffffffffff80821115612f0f57600080fd5b612f1b8b838c01612d99565b909850965060408a0135915080821115612f3457600080fd5b612f408b838c01612d99565b909650945060608a0135915080821115612f5957600080fd5b50612f668a828b01612d99565b989b979a50959850939692959293505050565b60005b83811015612f94578181015183820152602001612f7c565b83811115611bc25750506000910152565b60008151808452612fbd816020860160208601612f79565b601f01601f19169290920160200192915050565b6020815260006114ad6020830184612fa5565b6001600160a01b0381168114610f1a57600080fd5b60006020828403121561300b57600080fd5b813561196281612fe4565b634e487b7160e01b600052604160045260246000fd5b6040516101e0810167ffffffffffffffff8111828210171561305057613050613016565b60405290565b604051601f8201601f1916810167ffffffffffffffff8111828210171561307f5761307f613016565b604052919050565b6000602080838503121561309a57600080fd5b823567ffffffffffffffff808211156130b257600080fd5b818501915085601f8301126130c657600080fd5b8135818111156130d8576130d8613016565b8060051b91506130e9848301613056565b818152918301840191848101908884111561310357600080fd5b938501935b8385101561312157843582529385019390850190613108565b98975050505050505050565b6000602080835260c0830184511515828501528185015160408181870152808701516060870152606087015160808701526080870151915060a08087015282825180855260e0880191508584019450600093505b808410156131aa5784518051835286015186830152938501936001939093019290820190613181565b50979650505050505050565b6000602082840312156131c857600080fd5b6040516020810181811067ffffffffffffffff821117156131eb576131eb613016565b6040529151825250919050565b80516001600160801b038116811461320f57600080fd5b919050565b805164ffffffffff8116811461320f57600080fd5b805161ffff8116811461320f57600080fd5b805161320f81612fe4565b60006101e0828403121561325957600080fd5b61326161302c565b61326b84846131b6565b8152613279602084016131f8565b602082015261328a604084016131f8565b604082015261329b606084016131f8565b60608201526132ac608084016131f8565b60808201526132bd60a084016131f8565b60a08201526132ce60c08401613214565b60c08201526132df60e08401613229565b60e08201526101006132f281850161323b565b9082015261012061330484820161323b565b9082015261014061331684820161323b565b9082015261016061332884820161323b565b9082015261018061333a8482016131f8565b908201526101a061334c8482016131f8565b908201526101c061335e8482016131f8565b908201529392505050565b60006020828403121561337b57600080fd5b5051919050565b8183823760009101908152919050565b81835281816020850137506000828201602090810191909152601f909101601f19169091010190565b89815260c0602082015260006133d560c083018a8c613392565b82810360408401526133e881898b613392565b90508660608401528281036080840152613403818688613392565b9150508260a08301529a9950505050505050505050565b60006020828403121561342c57600080fd5b8151801515811461196257600080fd5b6020808252600e908201526d19185d18481b9bdd08199bdd5b9960921b604082015260600190565b634e487b7160e01b600052601160045260246000fd5b60008282101561348c5761348c613464565b500390565b6060808252600790820152662837b63cb3b7b760c91b60808201526020810192909252604082015260a00190565b8681526080602082015260006134d9608083018789613392565b82810360408401526134ec818688613392565b915050826060830152979650505050505050565b600181811c9082168061351457607f821691505b6020821081141561149b57634e487b7160e01b600052602260045260246000fd5b6000821982111561354857613548613464565b500190565b634e487b7160e01b600052603260045260246000fd5b600060001982141561357757613577613464565b5060010190565b600081600019048311821515161561359857613598613464565b500290565b634e487b7160e01b600052601260045260246000fd5b6000826135c2576135c261359d565b500490565b600060a082840312156135d957600080fd5b60405160a0810181811067ffffffffffffffff821117156135fc576135fc613016565b604052823561360a81612fe4565b80825250602083013560208201526040830135604082015260608301356060820152608083013560808201528091505092915050565b602081526000611e0a602083018486613392565b60006020828403121561366657600080fd5b815161196281612fe4565b606081526000613685606083018688613392565b6020830194909452506040015292915050565b634e487b7160e01b600052603160045260246000fd5b60008083128015600160ff1b8501841216156136cc576136cc613464565b6001600160ff1b03840183138116156136e7576136e7613464565b50500390565b6000826136fc576136fc61359d565b600160ff1b82146000198414161561371657613716613464565b500590565b600080821280156001600160ff1b038490038513161561373d5761373d613464565b600160ff1b839003841281161561375657613756613464565b50500190565b60006001600160ff1b0382141561357757613577613464565b6000600160ff1b82141561378b5761378b613464565b506000190190565b6000826137a2576137a261359d565b500690565b600060208083526000845481600182811c9150808316806137c957607f831692505b8583108114156137e757634e487b7160e01b85526022600452602485fd5b878601838152602001818015613804576001811461381557613840565b60ff19861682528782019650613840565b60008b81526020902060005b8681101561383a57815484820152908501908901613821565b83019750505b50949998505050505050505050565b6000606082018583526020606081850152818651808452608086019150828801935060005b818110156138995784516001600160a01b031683529383019391830191600101613874565b50506001600160a01b0395909516604094909401939093525091949350505050565b600060018060a01b03808a16835260e060208401526138dd60e084018a612fa5565b83810360408501526138ef818a612fa5565b905083810360608501526139038189612fa5565b905083810360808501526139178188612fa5565b60a0850196909652509290921660c0909101525095945050505050565b60a08152600061394760a0830188612fa5565b82810360208401526139598188612fa5565b9050828103604084015261396d8187612fa5565b905082810360608401526139818186612fa5565b9150508260808301529695505050505050565b600082516139a6818460208701612f79565b919091019291505056fea2646970667358221220baee72a63f24f775a31e850673b2f238ce9446d34d07a16848f1652b039fb07664736f6c63430008090033","abi":[{"inputs":[{"internalType":"address","name":"_gateway","type":"address"},{"internalType":"address","name":"_gasReceiver","type":"address"},{"internalType":"address","name":"_usdc","type":"address"},{"internalType":"address","name":"_aToken","type":"address"},{"internalType":"address","name":"_poolUsdc","type":"address"},{"internalType":"address","name":"_univRouter","type":"address"},{"internalType":"address","name":"_wmatic","type":"address"}],"stateMutability":"nonpayable","type":"constructor"},{"inputs":[],"name":"InvalidAddress","type":"error"},{"inputs":[],"name":"NotApprovedByGateway","type":"error"},{"anonymous":false,"inputs":[{"indexed":true,"internalType":"address","name":"previousOwner","type":"address"},{"indexed":true,"internalType":"address","name":"newOwner","type":"address"}],"name":"OwnershipTransferred","type":"event"},{"anonymous":false,"inputs":[{"indexed":true,"internalType":"address","name":"_from","type":"address"},{"indexed":false,"internalType":"string","name":"_fromChain","type":"string"},{"indexed":false,"internalType":"uint256","name":"_roubndId","type":"uint256"},{"indexed":false,"internalType":"uint256","name":"_amount","type":"uint256"}],"name":"_claim","type":"event"},{"anonymous":false,"inputs":[{"indexed":true,"internalType":"address","name":"_from","type":"address"},{"indexed":false,"internalType":"string","name":"_fromChain","type":"string"},{"indexed":false,"internalType":"uint256","name":"_roundId","type":"uint256"},{"indexed":false,"internalType":"uint256","name":"_amount","type":"uint256"}],"name":"_deposit","type":"event"},{"anonymous":false,"inputs":[{"indexed":true,"internalType":"address","name":"_from","type":"address"},{"indexed":true,"internalType":"uint256","name":"_roundId","type":"uint256"},{"indexed":false,"internalType":"uint256","name":"prize","type":"uint256"}],"name":"_winner","type":"event"},{"anonymous":false,"inputs":[{"indexed":true,"internalType":"address","name":"_from","type":"address"},{"indexed":false,"internalType":"string","name":"_fromChain","type":"string"},{"indexed":false,"internalType":"uint256","name":"_roundId","type":"uint256"},{"indexed":false,"internalType":"uint256","name":"_amount","type":"uint256"}],"name":"_withdraw","type":"event"},{"stateMutability":"payable","type":"fallback"},{"inputs":[],"name":"MIN_DEPOSIT_DURATION","outputs":[{"internalType":"uint256","name":"","type":"uint256"}],"stateMutability":"view","type":"function"},{"inputs":[],"name":"MIN_DURATION_PER_ROUND","outputs":[{"internalType":"uint256","name":"","type":"uint256"}],"stateMutability":"view","type":"function"},{"inputs":[],"name":"axlUSDC","outputs":[{"internalType":"string","name":"","type":"string"}],"stateMutability":"view","type":"function"},{"inputs":[{"internalType":"uint256","name":"_roundId","type":"uint256"}],"name":"claim","outputs":[],"stateMutability":"nonpayable","type":"function"},{"inputs":[{"internalType":"uint256[]","name":"_randomWords","type":"uint256[]"}],"name":"completeRound","outputs":[],"stateMutability":"nonpayable","type":"function"},{"inputs":[{"internalType":"uint256","name":"amount","type":"uint256"}],"name":"deposit","outputs":[],"stateMutability":"nonpayable","type":"function"},{"inputs":[{"internalType":"bytes32","name":"commandId","type":"bytes32"},{"internalType":"string","name":"sourceChain","type":"string"},{"internalType":"string","name":"sourceAddress","type":"string"},{"internalType":"bytes","name":"payload","type":"bytes"}],"name":"execute","outputs":[],"stateMutability":"nonpayable","type":"function"},{"inputs":[{"internalType":"bytes32","name":"commandId","type":"bytes32"},{"internalType":"string","name":"sourceChain","type":"string"},{"internalType":"string","name":"sourceAddress","type":"string"},{"internalType":"bytes","name":"payload","type":"bytes"},{"internalType":"string","name":"tokenSymbol","type":"string"},{"internalType":"uint256","name":"amount","type":"uint256"}],"name":"executeWithToken","outputs":[],"stateMutability":"nonpayable","type":"function"},{"inputs":[],"name":"gateway","outputs":[{"internalType":"contract IAxelarGateway","name":"","type":"address"}],"stateMutability":"view","type":"function"},{"inputs":[],"name":"getClaimablePrize","outputs":[{"internalType":"uint256","name":"","type":"uint256"}],"stateMutability":"view","type":"function"},{"inputs":[{"internalType":"address","name":"user","type":"address"}],"name":"getUserData","outputs":[{"components":[{"internalType":"bool","name":"isEntity","type":"bool"},{"internalType":"uint256","name":"balance","type":"uint256"},{"internalType":"uint256","name":"oddUpdate","type":"uint256"},{"internalType":"uint256","name":"depositDate","type":"uint256"},{"components":[{"internalType":"uint256","name":"roundId","type":"uint256"},{"internalType":"uint256","name":"prize","type":"uint256"}],"internalType":"struct Types.DetailWin[]","name":"listWin","type":"tuple[]"}],"internalType":"struct Types.UserData","name":"","type":"tuple"}],"stateMutability":"view","type":"function"},{"inputs":[{"internalType":"uint256","name":"","type":"uint256"}],"name":"listUserData","outputs":[{"internalType":"address","name":"","type":"address"}],"stateMutability":"view","type":"function"},{"inputs":[],"name":"owner","outputs":[{"internalType":"address","name":"","type":"address"}],"stateMutability":"view","type":"function"},{"inputs":[],"name":"prizes","outputs":[{"internalType":"uint256","name":"","type":"uint256"}],"stateMutability":"view","type":"function"},{"inputs":[],"name":"renounceOwnership","outputs":[],"stateMutability":"nonpayable","type":"function"},{"inputs":[],"name":"roundId","outputs":[{"internalType":"uint256","name":"","type":"uint256"}],"stateMutability":"view","type":"function"},{"inputs":[{"internalType":"address","name":"_consumer","type":"address"}],"name":"setVrfConsumer","outputs":[],"stateMutability":"nonpayable","type":"function"},{"inputs":[],"name":"totalDeposit","outputs":[{"internalType":"uint256","name":"","type":"uint256"}],"stateMutability":"view","type":"function"},{"inputs":[{"internalType":"address","name":"newOwner","type":"address"}],"name":"transferOwnership","outputs":[],"stateMutability":"nonpayable","type":"function"},{"inputs":[{"internalType":"address","name":"","type":"address"}],"name":"userData","outputs":[{"internalType":"bool","name":"isEntity","type":"bool"},{"internalType":"uint256","name":"balance","type":"uint256"},{"internalType":"uint256","name":"oddUpdate","type":"uint256"},{"internalType":"uint256","name":"depositDate","type":"uint256"}],"stateMutability":"view","type":"function"},{"inputs":[{"internalType":"uint256","name":"","type":"uint256"}],"name":"winners","outputs":[{"internalType":"bool","name":"isEntity","type":"bool"},{"internalType":"address","name":"winner","type":"address"},{"internalType":"uint256","name":"prize","type":"uint256"}],"stateMutability":"view","type":"function"},{"inputs":[{"internalType":"uint256","name":"amount","type":"uint256"}],"name":"withdraw","outputs":[],"stateMutability":"nonpayable","type":"function"},{"inputs":[],"name":"wmatic","outputs":[{"internalType":"address","name":"","type":"address"}],"stateMutability":"view","type":"function"},{"stateMutability":"payable","type":"receive"}]}