{"address":"0x84226FD89B30b4DD79492E75AA90B1707036B8Ad","bytecode":"0x60a06040526040518060400160405280600581526020017f615553444300000000000000000000000000000000000000000000000000000081525060069080519060200190620000519291906200031f565b506298968060085542600c5562015180426200006e919062000408565b600d553480156200007e57600080fd5b5060405162006589380380620065898339818101604052810190620000a49190620004cf565b87600073ffffffffffffffffffffffffffffffffffffffff168173ffffffffffffffffffffffffffffffffffffffff1614156200010d576040517fe6c4247b00000000000000000000000000000000000000000000000000000000815260040160405180910390fd5b8073ffffffffffffffffffffffffffffffffffffffff1660808173ffffffffffffffffffffffffffffffffffffffff168152505050600160008190555086600160006101000a81548173ffffffffffffffffffffffffffffffffffffffff021916908373ffffffffffffffffffffffffffffffffffffffff16021790555082600b60006101000a81548173ffffffffffffffffffffffffffffffffffffffff021916908373ffffffffffffffffffffffffffffffffffffffff16021790555085600360006101000a81548173ffffffffffffffffffffffffffffffffffffffff021916908373ffffffffffffffffffffffffffffffffffffffff16021790555084600460006101000a81548173ffffffffffffffffffffffffffffffffffffffff021916908373ffffffffffffffffffffffffffffffffffffffff16021790555083600560006101000a81548173ffffffffffffffffffffffffffffffffffffffff021916908373ffffffffffffffffffffffffffffffffffffffff16021790555081600260006101000a81548173ffffffffffffffffffffffffffffffffffffffff021916908373ffffffffffffffffffffffffffffffffffffffff16021790555080600760006101000a81548173ffffffffffffffffffffffffffffffffffffffff021916908373ffffffffffffffffffffffffffffffffffffffff1602179055505050505050505050620005fd565b8280546200032d90620005c7565b90600052602060002090601f0160209004810192826200035157600085556200039d565b82601f106200036c57805160ff19168380011785556200039d565b828001600101855582156200039d579182015b828111156200039c5782518255916020019190600101906200037f565b5b509050620003ac9190620003b0565b5090565b5b80821115620003cb576000816000905550600101620003b1565b5090565b6000819050919050565b7f4e487b7100000000000000000000000000000000000000000000000000000000600052601160045260246000fd5b60006200041582620003cf565b91506200042283620003cf565b9250827fffffffffffffffffffffffffffffffffffffffffffffffffffffffffffffffff038211156200045a5762000459620003d9565b5b828201905092915050565b600080fd5b600073ffffffffffffffffffffffffffffffffffffffff82169050919050565b600062000497826200046a565b9050919050565b620004a9816200048a565b8114620004b557600080fd5b50565b600081519050620004c9816200049e565b92915050565b600080600080600080600080610100898b031215620004f357620004f262000465565b5b6000620005038b828c01620004b8565b9850506020620005168b828c01620004b8565b9750506040620005298b828c01620004b8565b96505060606200053c8b828c01620004b8565b95505060806200054f8b828c01620004b8565b94505060a0620005628b828c01620004b8565b93505060c0620005758b828c01620004b8565b92505060e0620005888b828c01620004b8565b9150509295985092959890939650565b7f4e487b7100000000000000000000000000000000000000000000000000000000600052602260045260246000fd5b60006002820490506001821680620005e057607f821691505b60208210811415620005f757620005f662000598565b5b50919050565b608051615f3f6200064a600039600081816107b201528181610b2c01528181610b7201528181610e84015281816124f5015281816127cd015281816128d00152613c4a0152615f3f6000f3fe6080604052600436106101445760003560e01c80638c3a4271116100b6578063c89109131161006f578063c891091314610440578063d679f85a14610480578063e5295272146104bd578063f6153ccd146104fa578063fb41be1614610525578063ffc9896b146105505761014b565b80638c3a42711461032e5780638cd221c914610359578063a2fb117514610384578063a3e56fa8146103c3578063b6b55f25146103ee578063b7442c9f146104175761014b565b80632a6c5176116101085780632a6c517614610220578063379607f51461024b57806349160658146102745780635b6b431d1461029d578063653cb835146102c65780637e87e4bf146103035761014b565b80630d9f7bfd1461014d5780630e54472714610176578063116191b6146101a157806311cceaf6146101cc5780631a98b2e0146101f75761014b565b3661014b57005b005b34801561015957600080fd5b50610174600480360381019061016f91906141e0565b61058d565b005b34801561018257600080fd5b5061018b610940565b6040516101989190614238565b60405180910390f35b3480156101ad57600080fd5b506101b6610b2a565b6040516101c391906142b2565b60405180910390f35b3480156101d857600080fd5b506101e1610b4e565b6040516101ee9190614238565b60405180910390f35b34801561020357600080fd5b5061021e600480360381019061021991906143b9565b610b54565b005b34801561022c57600080fd5b50610235610c7f565b6040516102429190614238565b60405180910390f35b34801561025757600080fd5b50610272600480360381019061026d91906144c9565b610c86565b005b34801561028057600080fd5b5061029b600480360381019061029691906144f6565b610e66565b005b3480156102a957600080fd5b506102c460048036038101906102bf91906144c9565b610f85565b005b3480156102d257600080fd5b506102ed60048036038101906102e891906144c9565b611350565b6040516102fa91906145ce565b60405180910390f35b34801561030f57600080fd5b50610318611383565b6040516103259190614238565b60405180910390f35b34801561033a57600080fd5b50610343611389565b6040516103509190614671565b60405180910390f35b34801561036557600080fd5b5061036e611417565b60405161037b9190614238565b60405180910390f35b34801561039057600080fd5b506103ab60048036038101906103a691906144c9565b61141d565b6040516103ba939291906146ae565b60405180910390f35b3480156103cf57600080fd5b506103d8611474565b6040516103e591906145ce565b60405180910390f35b3480156103fa57600080fd5b50610415600480360381019061041091906144c9565b61149a565b005b34801561042357600080fd5b5061043e600480360381019061043991906147a8565b61196e565b005b34801561044c57600080fd5b50610467600480360381019061046291906147f1565b611ed1565b604051610477949392919061481e565b60405180910390f35b34801561048c57600080fd5b506104a760048036038101906104a291906144c9565b611f0e565b6040516104b491906148d2565b60405180910390f35b3480156104c957600080fd5b506104e460048036038101906104df91906144c9565b61201b565b6040516104f191906145ce565b60405180910390f35b34801561050657600080fd5b5061050f61205a565b60405161051c9190614238565b60405180910390f35b34801561053157600080fd5b5061053a612060565b60405161054791906145ce565b60405180910390f35b34801561055c57600080fd5b50610577600480360381019061057291906147f1565b612086565b6040516105849190614a54565b60405180910390f35b806020015181600001516010600083815260200190815260200160002060000160009054906101000a900460ff166105fa576040517f08c379a00000000000000000000000000000000000000000000000000000000081526004016105f190614ac2565b60405180910390fd5b8073ffffffffffffffffffffffffffffffffffffffff166010600084815260200190815260200160002060000160019054906101000a900473ffffffffffffffffffffffffffffffffffffffff1673ffffffffffffffffffffffffffffffffffffffff161461069e576040517f08c379a000000000000000000000000000000000000000000000000000000000815260040161069590614b54565b60405180910390fd5b600060106000856020015181526020019081526020016000206001015490506106f233308660600151876080015173ffffffffffffffffffffffffffffffffffffffff16612237909392919063ffffffff16565b610747600260009054906101000a900473ffffffffffffffffffffffffffffffffffffffff168560600151866080015173ffffffffffffffffffffffffffffffffffffffff166122c09092919063ffffffff16565b61079c600260009054906101000a900473ffffffffffffffffffffffffffffffffffffffff168560600151866080015173ffffffffffffffffffffffffffffffffffffffff1661241e9092919063ffffffff16565b60006107ab85606001516124a4565b90506107fc7f000000000000000000000000000000000000000000000000000000000000000083876080015173ffffffffffffffffffffffffffffffffffffffff166122c09092919063ffffffff16565b6010600086602001518152602001908152602001600020600080820160006101000a81549060ff02191690556000820160016101000a81549073ffffffffffffffffffffffffffffffffffffffff0219169055600182016000905550506000856000015160405160200161087091906145ce565b604051602081830303815290604052905060006040518060e001604052803073ffffffffffffffffffffffffffffffffffffffff168152602001886040015181526020018860a0015181526020018381526020018860c001518152602001858152602001886000015173ffffffffffffffffffffffffffffffffffffffff16815250905060006040518060a00160405280896040015181526020018960a0015181526020018481526020018960c001518152602001868152509050610936828286612715565b5050505050505050565b600080600560009054906101000a900473ffffffffffffffffffffffffffffffffffffffff1673ffffffffffffffffffffffffffffffffffffffff166335ea6a75600360009054906101000a900473ffffffffffffffffffffffffffffffffffffffff166040518263ffffffff1660e01b81526004016109c091906145ce565b6101e06040518083038186803b1580156109d957600080fd5b505afa1580156109ed573d6000803e3d6000fd5b505050506040513d601f19601f82011682018060405250810190610a119190614dfd565b90506000600460009054906101000a900473ffffffffffffffffffffffffffffffffffffffff1673ffffffffffffffffffffffffffffffffffffffff16631da24f3e306040518263ffffffff1660e01b8152600401610a7091906145ce565b60206040518083038186803b158015610a8857600080fd5b505afa158015610a9c573d6000803e3d6000fd5b505050506040513d601f19601f82011682018060405250810190610ac09190614e2b565b90506000610b1f600a54610b116b033b2e3c9fd0803ce8000000610b0387602001516fffffffffffffffffffffffffffffffff168761287790919063ffffffff16565b61288d90919063ffffffff16565b6128a390919063ffffffff16565b905080935050505090565b7f000000000000000000000000000000000000000000000000000000000000000081565b60095481565b60008585604051610b66929190614e88565b604051809103902090507f000000000000000000000000000000000000000000000000000000000000000073ffffffffffffffffffffffffffffffffffffffff16631876eed98c8c8c8c8c878b8b8b6040518a63ffffffff1660e01b8152600401610bd999989796959493929190614edd565b602060405180830381600087803b158015610bf357600080fd5b505af1158015610c07573d6000803e3d6000fd5b505050506040513d601f19601f82011682018060405250810190610c2b9190614f85565b610c61576040517f500c44b400000000000000000000000000000000000000000000000000000000815260040160405180910390fd5b610c728a8a8a8a8a8a8a8a8a6128b9565b5050505050505050505050565b6201518081565b80336010600083815260200190815260200160002060000160009054906101000a900460ff16610ceb576040517f08c379a0000000000000000000000000000000000000000000000000000000008152600401610ce290614ac2565b60405180910390fd5b8073ffffffffffffffffffffffffffffffffffffffff166010600084815260200190815260200160002060000160019054906101000a900473ffffffffffffffffffffffffffffffffffffffff1673ffffffffffffffffffffffffffffffffffffffff1614610d8f576040517f08c379a0000000000000000000000000000000000000000000000000000000008152600401610d8690614b54565b60405180910390fd5b610d97612c58565b60006010600085815260200190815260200160002060010154905060106000858152602001908152602001600020600080820160006101000a81549060ff02191690556000820160016101000a81549073ffffffffffffffffffffffffffffffffffffffff021916905560018201600090555050610e583382600360009054906101000a900473ffffffffffffffffffffffffffffffffffffffff1673ffffffffffffffffffffffffffffffffffffffff1661241e9092919063ffffffff16565b50610e61612ca8565b505050565b60008282604051610e78929190614e88565b604051809103902090507f000000000000000000000000000000000000000000000000000000000000000073ffffffffffffffffffffffffffffffffffffffff16635f6970c38989898989876040518763ffffffff1660e01b8152600401610ee596959493929190614fb2565b602060405180830381600087803b158015610eff57600080fd5b505af1158015610f13573d6000803e3d6000fd5b505050506040513d601f19601f82011682018060405250810190610f379190614f85565b610f6d576040517f500c44b400000000000000000000000000000000000000000000000000000000815260040160405180910390fd5b610f7b878787878787612cb2565b5050505050505050565b33600f60008273ffffffffffffffffffffffffffffffffffffffff1673ffffffffffffffffffffffffffffffffffffffff16815260200190815260200160002060000160009054906101000a900460ff16611015576040517f08c379a000000000000000000000000000000000000000000000000000000000815260040161100c90614ac2565b60405180910390fd5b61101d612c58565b81600f60003373ffffffffffffffffffffffffffffffffffffffff1673ffffffffffffffffffffffffffffffffffffffff1681526020019081526020016000206001015410156110a2576040517f08c379a000000000000000000000000000000000000000000000000000000000815260040161109990615055565b60405180910390fd5b81600a60008282546110b491906150a4565b92505081905550600560009054906101000a900473ffffffffffffffffffffffffffffffffffffffff1673ffffffffffffffffffffffffffffffffffffffff166369328dec600360009054906101000a900473ffffffffffffffffffffffffffffffffffffffff1684306040518463ffffffff1660e01b815260040161113c939291906150d8565b602060405180830381600087803b15801561115657600080fd5b505af115801561116a573d6000803e3d6000fd5b505050506040513d601f19601f8201168201806040525081019061118e9190614e2b565b5060006111be6111af6111a033612cba565b8561287790919063ffffffff16565b846128a390919063ffffffff16565b905082600f60003373ffffffffffffffffffffffffffffffffffffffff1673ffffffffffffffffffffffffffffffffffffffff168152602001908152602001600020600101600082825461121291906150a4565b925050819055506000600f60003373ffffffffffffffffffffffffffffffffffffffff1673ffffffffffffffffffffffffffffffffffffffff1681526020019081526020016000206001015414156112f6576112f433600e8054806020026020016040519081016040528092919081815260200182805480156112ea57602002820191906000526020600020905b8160009054906101000a900473ffffffffffffffffffffffffffffffffffffffff1673ffffffffffffffffffffffffffffffffffffffff16815260200190600101908083116112a0575b5050505050612d42565b505b6113433382600360009054906101000a900473ffffffffffffffffffffffffffffffffffffffff1673ffffffffffffffffffffffffffffffffffffffff1661241e9092919063ffffffff16565b5061134c612ca8565b5050565b60116020528060005260406000206000915054906101000a900473ffffffffffffffffffffffffffffffffffffffff1681565b61025881565b600680546113969061513e565b80601f01602080910402602001604051908101604052809291908181526020018280546113c29061513e565b801561140f5780601f106113e45761010080835404028352916020019161140f565b820191906000526020600020905b8154815290600101906020018083116113f257829003601f168201915b505050505081565b60085481565b60106020528060005260406000206000915090508060000160009054906101000a900460ff16908060000160019054906101000a900473ffffffffffffffffffffffffffffffffffffffff16908060010154905083565b600b60009054906101000a900473ffffffffffffffffffffffffffffffffffffffff1681565b6114a2612c58565b80600360009054906101000a900473ffffffffffffffffffffffffffffffffffffffff1673ffffffffffffffffffffffffffffffffffffffff166370a08231336040518263ffffffff1660e01b81526004016114fe91906145ce565b60206040518083038186803b15801561151657600080fd5b505afa15801561152a573d6000803e3d6000fd5b505050506040513d601f19601f8201168201806040525081019061154e9190614e2b565b101561158f576040517f08c379a0000000000000000000000000000000000000000000000000000000008152600401611586906151bc565b60405180910390fd5b80600a60008282546115a191906151dc565b92505081905550600f60003373ffffffffffffffffffffffffffffffffffffffff1673ffffffffffffffffffffffffffffffffffffffff16815260200190815260200160002060000160009054906101000a900460ff161561165b5780600f60003373ffffffffffffffffffffffffffffffffffffffff1673ffffffffffffffffffffffffffffffffffffffff168152602001908152602001600020600101600082825461164f91906151dc565b925050819055506117ef565b6001600f60003373ffffffffffffffffffffffffffffffffffffffff1673ffffffffffffffffffffffffffffffffffffffff16815260200190815260200160002060000160006101000a81548160ff02191690831515021790555080600f60003373ffffffffffffffffffffffffffffffffffffffff1673ffffffffffffffffffffffffffffffffffffffff1681526020019081526020016000206001018190555042600f60003373ffffffffffffffffffffffffffffffffffffffff1673ffffffffffffffffffffffffffffffffffffffff1681526020019081526020016000206002018190555042600f60003373ffffffffffffffffffffffffffffffffffffffff1673ffffffffffffffffffffffffffffffffffffffff16815260200190815260200160002060030181905550600e339080600181540180825580915050600190039060005260206000200160009091909190916101000a81548173ffffffffffffffffffffffffffffffffffffffff021916908373ffffffffffffffffffffffffffffffffffffffff1602179055505b61183e333083600360009054906101000a900473ffffffffffffffffffffffffffffffffffffffff1673ffffffffffffffffffffffffffffffffffffffff16612237909392919063ffffffff16565b6118ad600560009054906101000a900473ffffffffffffffffffffffffffffffffffffffff1682600360009054906101000a900473ffffffffffffffffffffffffffffffffffffffff1673ffffffffffffffffffffffffffffffffffffffff166122c09092919063ffffffff16565b600560009054906101000a900473ffffffffffffffffffffffffffffffffffffffff1673ffffffffffffffffffffffffffffffffffffffff1663617ba037600360009054906101000a900473ffffffffffffffffffffffffffffffffffffffff16833060006040518563ffffffff1660e01b8152600401611931949392919061526d565b600060405180830381600087803b15801561194b57600080fd5b505af115801561195f573d6000803e3d6000fd5b5050505061196b612ca8565b50565b611976612c58565b6000600e80549050116119be576040517f08c379a00000000000000000000000000000000000000000000000000000000081526004016119b5906152fe565b60405180910390fd5b6000600e8054905067ffffffffffffffff8111156119df576119de613f0a565b5b604051908082528060200260200182016040528015611a0d5781602001602082028036833780820191505090505b50905060005b600e80549050811015611c06576000611b40600f6000600e8581548110611a3d57611a3c61531e565b5b9060005260206000200160009054906101000a900473ffffffffffffffffffffffffffffffffffffffff1673ffffffffffffffffffffffffffffffffffffffff1673ffffffffffffffffffffffffffffffffffffffff1681526020019081526020016000206002015442611ab191906150a4565b600f6000600e8681548110611ac957611ac861531e565b5b9060005260206000200160009054906101000a900473ffffffffffffffffffffffffffffffffffffffff1673ffffffffffffffffffffffffffffffffffffffff1673ffffffffffffffffffffffffffffffffffffffff16815260200190815260200160002060010154612dfd90919063ffffffff16565b905080838381518110611b5657611b5561531e565b5b602002602001018181525050600e8281548110611b7657611b7561531e565b5b9060005260206000200160009054906101000a900473ffffffffffffffffffffffffffffffffffffffff166011600083815260200190815260200160002060006101000a81548173ffffffffffffffffffffffffffffffffffffffff021916908373ffffffffffffffffffffffffffffffffffffffff160217905550508080611bfe9061534d565b915050611a13565b50611c2081600060018451611c1b91906150a4565b612e13565b90506000611c6d82600081518110611c3b57611c3a61531e565b5b602002602001015184600081518110611c5757611c5661531e565b5b6020026020010151612fbb90919063ffffffff16565b90506000611c8b83600060018651611c8591906150a4565b85612fd1565b9050600060116000858481518110611ca657611ca561531e565b5b6020026020010151815260200190815260200160002060009054906101000a900473ffffffffffffffffffffffffffffffffffffffff1690506000611ce9610940565b905060405180606001604052806001151581526020018373ffffffffffffffffffffffffffffffffffffffff1681526020018281525060106000600854815260200190815260200160002060008201518160000160006101000a81548160ff02191690831515021790555060208201518160000160016101000a81548173ffffffffffffffffffffffffffffffffffffffff021916908373ffffffffffffffffffffffffffffffffffffffff1602179055506040820151816001015590505042600f60008473ffffffffffffffffffffffffffffffffffffffff1673ffffffffffffffffffffffffffffffffffffffff16815260200190815260200160002060020181905550600f60008373ffffffffffffffffffffffffffffffffffffffff1673ffffffffffffffffffffffffffffffffffffffff16815260200190815260200160002060040160405180606001604052806008548152602001838152602001600015158152509080600181540180825580915050600190039060005260206000209060030201600090919091909150600082015181600001556020820151816001015560408201518160020160006101000a81548160ff0219169083151502179055505050611eb86130bf565b611ec06131a2565b505050505050611ece612ca8565b50565b600f6020528060005260406000206000915090508060000160009054906101000a900460ff16908060010154908060020154908060030154905084565b611f16613e76565b816010600082815260200190815260200160002060000160009054906101000a900460ff16611f7a576040517f08c379a0000000000000000000000000000000000000000000000000000000008152600401611f7190614ac2565b60405180910390fd5b601060008481526020019081526020016000206040518060600160405290816000820160009054906101000a900460ff161515151581526020016000820160019054906101000a900473ffffffffffffffffffffffffffffffffffffffff1673ffffffffffffffffffffffffffffffffffffffff1673ffffffffffffffffffffffffffffffffffffffff168152602001600182015481525050915050919050565b600e818154811061202b57600080fd5b906000526020600020016000915054906101000a900473ffffffffffffffffffffffffffffffffffffffff1681565b600a5481565b600760009054906101000a900473ffffffffffffffffffffffffffffffffffffffff1681565b61208e613eaf565b81600f60008273ffffffffffffffffffffffffffffffffffffffff1673ffffffffffffffffffffffffffffffffffffffff16815260200190815260200160002060000160009054906101000a900460ff1661211e576040517f08c379a000000000000000000000000000000000000000000000000000000000815260040161211590614ac2565b60405180910390fd5b600f60008473ffffffffffffffffffffffffffffffffffffffff1673ffffffffffffffffffffffffffffffffffffffff1681526020019081526020016000206040518060a00160405290816000820160009054906101000a900460ff1615151515815260200160018201548152602001600282015481526020016003820154815260200160048201805480602002602001604051908101604052809291908181526020016000905b82821015612227578382906000526020600020906003020160405180606001604052908160008201548152602001600182015481526020016002820160009054906101000a900460ff161515151581525050815260200190600101906121c6565b5050505081525050915050919050565b6122ba846323b872dd60e01b85858560405160240161225893929190615396565b604051602081830303815290604052907bffffffffffffffffffffffffffffffffffffffffffffffffffffffff19166020820180517bffffffffffffffffffffffffffffffffffffffffffffffffffffffff83818316178352505050506131e2565b50505050565b6000811480612359575060008373ffffffffffffffffffffffffffffffffffffffff1663dd62ed3e30856040518363ffffffff1660e01b81526004016123079291906153cd565b60206040518083038186803b15801561231f57600080fd5b505afa158015612333573d6000803e3d6000fd5b505050506040513d601f19601f820116820180604052508101906123579190614e2b565b145b612398576040517f08c379a000000000000000000000000000000000000000000000000000000000815260040161238f90615468565b60405180910390fd5b6124198363095ea7b360e01b84846040516024016123b7929190615488565b604051602081830303815290604052907bffffffffffffffffffffffffffffffffffffffffffffffffffffffff19166020820180517bffffffffffffffffffffffffffffffffffffffffffffffffffffffff83818316178352505050506131e2565b505050565b61249f8363a9059cbb60e01b848460405160240161243d929190615488565b604051602081830303815290604052907bffffffffffffffffffffffffffffffffffffffffffffffffffffffff19166020820180517bffffffffffffffffffffffffffffffffffffffffffffffffffffffff83818316178352505050506131e2565b505050565b600080600267ffffffffffffffff8111156124c2576124c1613f0a565b5b6040519080825280602002602001820160405280156124f05781602001602082028036833780820191505090505b5090507f000000000000000000000000000000000000000000000000000000000000000073ffffffffffffffffffffffffffffffffffffffff1663935b13f660066040518263ffffffff1660e01b815260040161254d9190615546565b60206040518083038186803b15801561256557600080fd5b505afa158015612579573d6000803e3d6000fd5b505050506040513d601f19601f8201168201806040525081019061259d9190615568565b816000815181106125b1576125b061531e565b5b602002602001019073ffffffffffffffffffffffffffffffffffffffff16908173ffffffffffffffffffffffffffffffffffffffff1681525050600760009054906101000a900473ffffffffffffffffffffffffffffffffffffffff16816001815181106126225761262161531e565b5b602002602001019073ffffffffffffffffffffffffffffffffffffffff16908173ffffffffffffffffffffffffffffffffffffffff1681525050600260009054906101000a900473ffffffffffffffffffffffffffffffffffffffff1673ffffffffffffffffffffffffffffffffffffffff1663ee037f5e8483306040518463ffffffff1660e01b81526004016126bb93929190615644565b602060405180830381600087803b1580156126d557600080fd5b505af11580156126e9573d6000803e3d6000fd5b505050506040513d601f19601f8201168201806040525081019061270d9190614e2b565b915050919050565b600160009054906101000a900473ffffffffffffffffffffffffffffffffffffffff1673ffffffffffffffffffffffffffffffffffffffff1663c62c200282856000015186602001518760400151886060015189608001518a60a001518b60c001516040518963ffffffff1660e01b815260040161279997969594939291906156d7565b6000604051808303818588803b1580156127b257600080fd5b505af11580156127c6573d6000803e3d6000fd5b50505050507f000000000000000000000000000000000000000000000000000000000000000073ffffffffffffffffffffffffffffffffffffffff1663b5417084836000015184602001518560400151866060015187608001516040518663ffffffff1660e01b8152600401612840959493929190615762565b600060405180830381600087803b15801561285a57600080fd5b505af115801561286e573d6000803e3d6000fd5b50505050505050565b6000818361288591906157d1565b905092915050565b6000818361289b919061585a565b905092915050565b600081836128b191906150a4565b905092915050565b600085858101906128ca9190615917565b905060007f000000000000000000000000000000000000000000000000000000000000000073ffffffffffffffffffffffffffffffffffffffff1663935b13f686866040518363ffffffff1660e01b8152600401612929929190615944565b60206040518083038186803b15801561294157600080fd5b505afa158015612955573d6000803e3d6000fd5b505050506040513d601f19601f820116820180604052508101906129799190615568565b905060008260400151141561299f5761299a826000015183602001516132a9565b612c4b565b600182604001511415612af65760006040518060e0016040528084602001518152602001846000015173ffffffffffffffffffffffffffffffffffffffff1681526020018373ffffffffffffffffffffffffffffffffffffffff168152602001846060015181526020018d8d8080601f016020809104026020016040519081016040528093929190818152602001838380828437600081840152601f19601f8201169050808301925050505050505081526020018b8b8080601f016020809104026020016040519081016040528093929190818152602001838380828437600081840152601f19601f82011690508083019250505050505050815260200187878080601f016020809104026020016040519081016040528093929190818152602001838380828437600081840152601f19601f820116905080830192505050505050508152509050612af08161371f565b50612c4a565b600282604001511415612c495760006040518060e00160405280846000015173ffffffffffffffffffffffffffffffffffffffff168152602001846080015181526020018d8d8080601f016020809104026020016040519081016040528093929190818152602001838380828437600081840152601f19601f820116905080830192505050505050508152602001846060015181526020018373ffffffffffffffffffffffffffffffffffffffff1681526020018b8b8080601f016020809104026020016040519081016040528093929190818152602001838380828437600081840152601f19601f82011690508083019250505050505050815260200187878080601f016020809104026020016040519081016040528093929190818152602001838380828437600081840152601f19601f820116905080830192505050505050508152509050612c478161058d565b505b5b5b5050505050505050505050565b60026000541415612c9e576040517f08c379a0000000000000000000000000000000000000000000000000000000008152600401612c95906159b4565b60405180910390fd5b6002600081905550565b6001600081905550565b505050505050565b60008060039050600061025842612cd191906150a4565b600f60008673ffffffffffffffffffffffffffffffffffffffff1673ffffffffffffffffffffffffffffffffffffffff1681526020019081526020016000206003015411612d20576000612d36565b612d356103e88361288d90919063ffffffff16565b5b90508092505050919050565b606060005b60018351612d5591906150a4565b811015612df3578373ffffffffffffffffffffffffffffffffffffffff16838281518110612d8657612d8561531e565b5b602002602001015173ffffffffffffffffffffffffffffffffffffffff161415612de057828181518110612dbd57612dbc61531e565b5b60200260200101600073ffffffffffffffffffffffffffffffffffffffff168152505b8080612deb9061534d565b915050612d47565b5081905092915050565b60008183612e0b91906151dc565b905092915050565b60606000839050600083905080821415612e31578592505050612fb4565b60008660028787612e4291906159de565b612e4c9190615a72565b87612e579190615adc565b81518110612e6857612e6761531e565b5b602002602001015190505b818313612f83575b80878481518110612e8f57612e8e61531e565b5b60200260200101511015612eb0578280612ea890615b70565b935050612e7b565b5b868281518110612ec457612ec361531e565b5b6020026020010151811015612ee6578180612ede90615bb9565b925050612eb1565b818313612f7e57868281518110612f0057612eff61531e565b5b6020026020010151878481518110612f1b57612f1a61531e565b5b6020026020010151888581518110612f3657612f3561531e565b5b60200260200101898581518110612f5057612f4f61531e565b5b60200260200101828152508281525050508280612f6c90615b70565b9350508180612f7a90615bb9565b9250505b612e73565b81861215612f9857612f96878784612e13565b505b84831215612fad57612fab878487612e13565b505b8693505050505b9392505050565b60008183612fc99190615c02565b905092915050565b60008185600081518110612fe857612fe761531e565b5b60200260200101511115612fff57600090506130b7565b81856001875161300f91906150a4565b815181106130205761301f61531e565b5b60200260200101511015613043576001855161303c91906150a4565b90506130b7565b60005b8385116130b2576002848661305b91906151dc565b613065919061585a565b90508286828151811061307b5761307a61531e565b5b6020026020010151101561309d5760018161309691906150a4565b93506130ad565b6001816130aa91906151dc565b94505b613046565b809150505b949350505050565b60006130c9610940565b9050600560009054906101000a900473ffffffffffffffffffffffffffffffffffffffff1673ffffffffffffffffffffffffffffffffffffffff166369328dec600360009054906101000a900473ffffffffffffffffffffffffffffffffffffffff1683306040518463ffffffff1660e01b815260040161314c939291906150d8565b602060405180830381600087803b15801561316657600080fd5b505af115801561317a573d6000803e3d6000fd5b505050506040513d601f19601f8201168201806040525081019061319e9190614e2b565b5050565b600042600c8190555062015180600c546131bc91906151dc565b600d81905550600860008154809291906131d59061534d565b9190505550600854905090565b6000613244826040518060400160405280602081526020017f5361666545524332303a206c6f772d6c6576656c2063616c6c206661696c65648152508573ffffffffffffffffffffffffffffffffffffffff16613ca89092919063ffffffff16565b90506000815111156132a457808060200190518101906132649190614f85565b6132a3576040517f08c379a000000000000000000000000000000000000000000000000000000000815260040161329a90615ca5565b60405180910390fd5b5b505050565b80600360009054906101000a900473ffffffffffffffffffffffffffffffffffffffff1673ffffffffffffffffffffffffffffffffffffffff166370a08231306040518263ffffffff1660e01b815260040161330591906145ce565b60206040518083038186803b15801561331d57600080fd5b505afa158015613331573d6000803e3d6000fd5b505050506040513d601f19601f820116820180604052508101906133559190614e2b565b1015613396576040517f08c379a000000000000000000000000000000000000000000000000000000000815260040161338d90615d37565b60405180910390fd5b80600a60008282546133a891906151dc565b92505081905550600f60008373ffffffffffffffffffffffffffffffffffffffff1673ffffffffffffffffffffffffffffffffffffffff16815260200190815260200160002060000160009054906101000a900460ff16156134625780600f60008473ffffffffffffffffffffffffffffffffffffffff1673ffffffffffffffffffffffffffffffffffffffff168152602001908152602001600020600101600082825461345691906151dc565b925050819055506135f6565b6001600f60008473ffffffffffffffffffffffffffffffffffffffff1673ffffffffffffffffffffffffffffffffffffffff16815260200190815260200160002060000160006101000a81548160ff02191690831515021790555080600f60008473ffffffffffffffffffffffffffffffffffffffff1673ffffffffffffffffffffffffffffffffffffffff1681526020019081526020016000206001018190555042600f60008473ffffffffffffffffffffffffffffffffffffffff1673ffffffffffffffffffffffffffffffffffffffff1681526020019081526020016000206002018190555042600f60008473ffffffffffffffffffffffffffffffffffffffff1673ffffffffffffffffffffffffffffffffffffffff16815260200190815260200160002060030181905550600e829080600181540180825580915050600190039060005260206000200160009091909190916101000a81548173ffffffffffffffffffffffffffffffffffffffff021916908373ffffffffffffffffffffffffffffffffffffffff1602179055505b613665600560009054906101000a900473ffffffffffffffffffffffffffffffffffffffff1682600360009054906101000a900473ffffffffffffffffffffffffffffffffffffffff1673ffffffffffffffffffffffffffffffffffffffff166122c09092919063ffffffff16565b600560009054906101000a900473ffffffffffffffffffffffffffffffffffffffff1673ffffffffffffffffffffffffffffffffffffffff1663617ba037600360009054906101000a900473ffffffffffffffffffffffffffffffffffffffff16833060006040518563ffffffff1660e01b81526004016136e9949392919061526d565b600060405180830381600087803b15801561370357600080fd5b505af1158015613717573d6000803e3d6000fd5b505050505050565b8060200151600f60008273ffffffffffffffffffffffffffffffffffffffff1673ffffffffffffffffffffffffffffffffffffffff16815260200190815260200160002060000160009054906101000a900460ff166137b3576040517f08c379a00000000000000000000000000000000000000000000000000000000081526004016137aa90614ac2565b60405180910390fd5b8160000151600f6000846020015173ffffffffffffffffffffffffffffffffffffffff1673ffffffffffffffffffffffffffffffffffffffff168152602001908152602001600020600101541015613840576040517f08c379a000000000000000000000000000000000000000000000000000000000815260040161383790615da3565b60405180910390fd5b8160000151600a600082825461385691906150a4565b92505081905550600560009054906101000a900473ffffffffffffffffffffffffffffffffffffffff1673ffffffffffffffffffffffffffffffffffffffff166369328dec600360009054906101000a900473ffffffffffffffffffffffffffffffffffffffff168460000151306040518463ffffffff1660e01b81526004016138e2939291906150d8565b602060405180830381600087803b1580156138fc57600080fd5b505af1158015613910573d6000803e3d6000fd5b505050506040513d601f19601f820116820180604052508101906139349190614e2b565b50600061397061395d61394a8560200151612cba565b856000015161287790919063ffffffff16565b84600001516128a390919063ffffffff16565b90508260000151600f6000856020015173ffffffffffffffffffffffffffffffffffffffff1673ffffffffffffffffffffffffffffffffffffffff16815260200190815260200160002060010160008282546139cc91906150a4565b925050819055506000600f6000856020015173ffffffffffffffffffffffffffffffffffffffff1673ffffffffffffffffffffffffffffffffffffffff168152602001908152602001600020600101541415613ab857613ab68360200151600e805480602002602001604051908101604052809291908181526020018280548015613aac57602002820191906000526020600020905b8160009054906101000a900473ffffffffffffffffffffffffffffffffffffffff1673ffffffffffffffffffffffffffffffffffffffff1681526020019060010190808311613a62575b5050505050612d42565b505b613b0d600260009054906101000a900473ffffffffffffffffffffffffffffffffffffffff168460600151856040015173ffffffffffffffffffffffffffffffffffffffff166122c09092919063ffffffff16565b613b62600260009054906101000a900473ffffffffffffffffffffffffffffffffffffffff168460600151856040015173ffffffffffffffffffffffffffffffffffffffff1661241e9092919063ffffffff16565b6000613b7184606001516124a4565b905060008460200151604051602001613b8a91906145ce565b604051602081830303815290604052905060006040518060e001604052803073ffffffffffffffffffffffffffffffffffffffff168152602001876080015181526020018760a0015181526020018381526020018760c001518152602001858152602001876020015173ffffffffffffffffffffffffffffffffffffffff16815250905060006040518060a00160405280886080015181526020018860a0015181526020018481526020018860c001518152602001868152509050613c947f000000000000000000000000000000000000000000000000000000000000000086896040015173ffffffffffffffffffffffffffffffffffffffff166122c09092919063ffffffff16565b613c9f828286612715565b50505050505050565b6060613cb78484600085613cc0565b90509392505050565b606082471015613d05576040517f08c379a0000000000000000000000000000000000000000000000000000000008152600401613cfc90615e35565b60405180910390fd5b6000808673ffffffffffffffffffffffffffffffffffffffff168587604051613d2e9190615e86565b60006040518083038185875af1925050503d8060008114613d6b576040519150601f19603f3d011682016040523d82523d6000602084013e613d70565b606091505b5091509150613d8187838387613d8d565b92505050949350505050565b60608315613df057600083511415613de857613da885613e03565b613de7576040517f08c379a0000000000000000000000000000000000000000000000000000000008152600401613dde90615ee9565b60405180910390fd5b5b829050613dfb565b613dfa8383613e26565b5b949350505050565b6000808273ffffffffffffffffffffffffffffffffffffffff163b119050919050565b600082511115613e395781518083602001fd5b806040517f08c379a0000000000000000000000000000000000000000000000000000000008152600401613e6d9190614671565b60405180910390fd5b6040518060600160405280600015158152602001600073ffffffffffffffffffffffffffffffffffffffff168152602001600081525090565b6040518060a00160405280600015158152602001600081526020016000815260200160008152602001606081525090565b6000604051905090565b600080fd5b600080fd5b600080fd5b6000601f19601f8301169050919050565b7f4e487b7100000000000000000000000000000000000000000000000000000000600052604160045260246000fd5b613f4282613ef9565b810181811067ffffffffffffffff82111715613f6157613f60613f0a565b5b80604052505050565b6000613f74613ee0565b9050613f808282613f39565b919050565b600080fd5b600073ffffffffffffffffffffffffffffffffffffffff82169050919050565b6000613fb582613f8a565b9050919050565b613fc581613faa565b8114613fd057600080fd5b50565b600081359050613fe281613fbc565b92915050565b6000819050919050565b613ffb81613fe8565b811461400657600080fd5b50565b60008135905061401881613ff2565b92915050565b600080fd5b600080fd5b600067ffffffffffffffff82111561404357614042613f0a565b5b61404c82613ef9565b9050602081019050919050565b82818337600083830152505050565b600061407b61407684614028565b613f6a565b90508281526020810184848401111561409757614096614023565b5b6140a2848285614059565b509392505050565b600082601f8301126140bf576140be61401e565b5b81356140cf848260208601614068565b91505092915050565b600060e082840312156140ee576140ed613ef4565b5b6140f860e0613f6a565b9050600061410884828501613fd3565b600083015250602061411c84828501614009565b602083015250604082013567ffffffffffffffff8111156141405761413f613f85565b5b61414c848285016140aa565b604083015250606061416084828501614009565b606083015250608061417484828501613fd3565b60808301525060a082013567ffffffffffffffff81111561419857614197613f85565b5b6141a4848285016140aa565b60a08301525060c082013567ffffffffffffffff8111156141c8576141c7613f85565b5b6141d4848285016140aa565b60c08301525092915050565b6000602082840312156141f6576141f5613eea565b5b600082013567ffffffffffffffff81111561421457614213613eef565b5b614220848285016140d8565b91505092915050565b61423281613fe8565b82525050565b600060208201905061424d6000830184614229565b92915050565b6000819050919050565b600061427861427361426e84613f8a565b614253565b613f8a565b9050919050565b600061428a8261425d565b9050919050565b600061429c8261427f565b9050919050565b6142ac81614291565b82525050565b60006020820190506142c760008301846142a3565b92915050565b6000819050919050565b6142e0816142cd565b81146142eb57600080fd5b50565b6000813590506142fd816142d7565b92915050565b600080fd5b600080fd5b60008083601f8401126143235761432261401e565b5b8235905067ffffffffffffffff8111156143405761433f614303565b5b60208301915083600182028301111561435c5761435b614308565b5b9250929050565b60008083601f8401126143795761437861401e565b5b8235905067ffffffffffffffff81111561439657614395614303565b5b6020830191508360018202830111156143b2576143b1614308565b5b9250929050565b60008060008060008060008060008060c08b8d0312156143dc576143db613eea565b5b60006143ea8d828e016142ee565b9a505060208b013567ffffffffffffffff81111561440b5761440a613eef565b5b6144178d828e0161430d565b995099505060408b013567ffffffffffffffff81111561443a57614439613eef565b5b6144468d828e0161430d565b975097505060608b013567ffffffffffffffff81111561446957614468613eef565b5b6144758d828e01614363565b955095505060808b013567ffffffffffffffff81111561449857614497613eef565b5b6144a48d828e0161430d565b935093505060a06144b78d828e01614009565b9150509295989b9194979a5092959850565b6000602082840312156144df576144de613eea565b5b60006144ed84828501614009565b91505092915050565b60008060008060008060006080888a03121561451557614514613eea565b5b60006145238a828b016142ee565b975050602088013567ffffffffffffffff81111561454457614543613eef565b5b6145508a828b0161430d565b9650965050604088013567ffffffffffffffff81111561457357614572613eef565b5b61457f8a828b0161430d565b9450945050606088013567ffffffffffffffff8111156145a2576145a1613eef565b5b6145ae8a828b01614363565b925092505092959891949750929550565b6145c881613faa565b82525050565b60006020820190506145e360008301846145bf565b92915050565b600081519050919050565b600082825260208201905092915050565b60005b83811015614623578082015181840152602081019050614608565b83811115614632576000848401525b50505050565b6000614643826145e9565b61464d81856145f4565b935061465d818560208601614605565b61466681613ef9565b840191505092915050565b6000602082019050818103600083015261468b8184614638565b905092915050565b60008115159050919050565b6146a881614693565b82525050565b60006060820190506146c3600083018661469f565b6146d060208301856145bf565b6146dd6040830184614229565b949350505050565b600067ffffffffffffffff821115614700576146ff613f0a565b5b602082029050602081019050919050565b600061472461471f846146e5565b613f6a565b9050808382526020820190506020840283018581111561474757614746614308565b5b835b81811015614770578061475c8882614009565b845260208401935050602081019050614749565b5050509392505050565b600082601f83011261478f5761478e61401e565b5b813561479f848260208601614711565b91505092915050565b6000602082840312156147be576147bd613eea565b5b600082013567ffffffffffffffff8111156147dc576147db613eef565b5b6147e88482850161477a565b91505092915050565b60006020828403121561480757614806613eea565b5b600061481584828501613fd3565b91505092915050565b6000608082019050614833600083018761469f565b6148406020830186614229565b61484d6040830185614229565b61485a6060830184614229565b95945050505050565b61486c81614693565b82525050565b61487b81613faa565b82525050565b61488a81613fe8565b82525050565b6060820160008201516148a66000850182614863565b5060208201516148b96020850182614872565b5060408201516148cc6040850182614881565b50505050565b60006060820190506148e76000830184614890565b92915050565b600081519050919050565b600082825260208201905092915050565b6000819050602082019050919050565b60608201600082015161492f6000850182614881565b5060208201516149426020850182614881565b5060408201516149556040850182614863565b50505050565b60006149678383614919565b60608301905092915050565b6000602082019050919050565b600061498b826148ed565b61499581856148f8565b93506149a083614909565b8060005b838110156149d15781516149b8888261495b565b97506149c383614973565b9250506001810190506149a4565b5085935050505092915050565b600060a0830160008301516149f66000860182614863565b506020830151614a096020860182614881565b506040830151614a1c6040860182614881565b506060830151614a2f6060860182614881565b5060808301518482036080860152614a478282614980565b9150508091505092915050565b60006020820190508181036000830152614a6e81846149de565b905092915050565b7f4754536176653a2064617461206e6f7420666f756e6400000000000000000000600082015250565b6000614aac6016836145f4565b9150614ab782614a76565b602082019050919050565b60006020820190508181036000830152614adb81614a9f565b9050919050565b7f4754536176653a206e6f7420612077696e6e6572206f6e20726f756e6420737060008201527f6573696669656400000000000000000000000000000000000000000000000000602082015250565b6000614b3e6027836145f4565b9150614b4982614ae2565b604082019050919050565b60006020820190508181036000830152614b6d81614b31565b9050919050565b600081519050614b8381613ff2565b92915050565b600060208284031215614b9f57614b9e613ef4565b5b614ba96020613f6a565b90506000614bb984828501614b74565b60008301525092915050565b60006fffffffffffffffffffffffffffffffff82169050919050565b614bea81614bc5565b8114614bf557600080fd5b50565b600081519050614c0781614be1565b92915050565b600064ffffffffff82169050919050565b614c2781614c0d565b8114614c3257600080fd5b50565b600081519050614c4481614c1e565b92915050565b600061ffff82169050919050565b614c6181614c4a565b8114614c6c57600080fd5b50565b600081519050614c7e81614c58565b92915050565b600081519050614c9381613fbc565b92915050565b60006101e08284031215614cb057614caf613ef4565b5b614cbb6101e0613f6a565b90506000614ccb84828501614b89565b6000830152506020614cdf84828501614bf8565b6020830152506040614cf384828501614bf8565b6040830152506060614d0784828501614bf8565b6060830152506080614d1b84828501614bf8565b60808301525060a0614d2f84828501614bf8565b60a08301525060c0614d4384828501614c35565b60c08301525060e0614d5784828501614c6f565b60e083015250610100614d6c84828501614c84565b61010083015250610120614d8284828501614c84565b61012083015250610140614d9884828501614c84565b61014083015250610160614dae84828501614c84565b61016083015250610180614dc484828501614bf8565b610180830152506101a0614dda84828501614bf8565b6101a0830152506101c0614df084828501614bf8565b6101c08301525092915050565b60006101e08284031215614e1457614e13613eea565b5b6000614e2284828501614c99565b91505092915050565b600060208284031215614e4157614e40613eea565b5b6000614e4f84828501614b74565b91505092915050565b600081905092915050565b6000614e6f8385614e58565b9350614e7c838584614059565b82840190509392505050565b6000614e95828486614e63565b91508190509392505050565b614eaa816142cd565b82525050565b6000614ebc83856145f4565b9350614ec9838584614059565b614ed283613ef9565b840190509392505050565b600060c082019050614ef2600083018c614ea1565b8181036020830152614f05818a8c614eb0565b90508181036040830152614f1a81888a614eb0565b9050614f296060830187614ea1565b8181036080830152614f3c818587614eb0565b9050614f4b60a0830184614229565b9a9950505050505050505050565b614f6281614693565b8114614f6d57600080fd5b50565b600081519050614f7f81614f59565b92915050565b600060208284031215614f9b57614f9a613eea565b5b6000614fa984828501614f70565b91505092915050565b6000608082019050614fc76000830189614ea1565b8181036020830152614fda818789614eb0565b90508181036040830152614fef818587614eb0565b9050614ffe6060830184614ea1565b979650505050505050565b7f4754536176653a20696e73756666696369656e742062616c616e636500000000600082015250565b600061503f601c836145f4565b915061504a82615009565b602082019050919050565b6000602082019050818103600083015261506e81615032565b9050919050565b7f4e487b7100000000000000000000000000000000000000000000000000000000600052601160045260246000fd5b60006150af82613fe8565b91506150ba83613fe8565b9250828210156150cd576150cc615075565b5b828203905092915050565b60006060820190506150ed60008301866145bf565b6150fa6020830185614229565b61510760408301846145bf565b949350505050565b7f4e487b7100000000000000000000000000000000000000000000000000000000600052602260045260246000fd5b6000600282049050600182168061515657607f821691505b6020821081141561516a5761516961510f565b5b50919050565b7f475453617665203a20696e73756666696369656e742062616c616e6365000000600082015250565b60006151a6601d836145f4565b91506151b182615170565b602082019050919050565b600060208201905081810360008301526151d581615199565b9050919050565b60006151e782613fe8565b91506151f283613fe8565b9250827fffffffffffffffffffffffffffffffffffffffffffffffffffffffffffffffff0382111561522757615226615075565b5b828201905092915050565b6000819050919050565b600061525761525261524d84615232565b614253565b614c4a565b9050919050565b6152678161523c565b82525050565b600060808201905061528260008301876145bf565b61528f6020830186614229565b61529c60408301856145bf565b6152a9606083018461525e565b95945050505050565b7f4754536176653a206e6f207573657273206465706f7369742100000000000000600082015250565b60006152e86019836145f4565b91506152f3826152b2565b602082019050919050565b60006020820190508181036000830152615317816152db565b9050919050565b7f4e487b7100000000000000000000000000000000000000000000000000000000600052603260045260246000fd5b600061535882613fe8565b91507fffffffffffffffffffffffffffffffffffffffffffffffffffffffffffffffff82141561538b5761538a615075565b5b600182019050919050565b60006060820190506153ab60008301866145bf565b6153b860208301856145bf565b6153c56040830184614229565b949350505050565b60006040820190506153e260008301856145bf565b6153ef60208301846145bf565b9392505050565b7f5361666545524332303a20617070726f76652066726f6d206e6f6e2d7a65726f60008201527f20746f206e6f6e2d7a65726f20616c6c6f77616e636500000000000000000000602082015250565b60006154526036836145f4565b915061545d826153f6565b604082019050919050565b6000602082019050818103600083015261548181615445565b9050919050565b600060408201905061549d60008301856145bf565b6154aa6020830184614229565b9392505050565b60008190508160005260206000209050919050565b600081546154d38161513e565b6154dd81866145f4565b945060018216600081146154f8576001811461550a5761553d565b60ff198316865260208601935061553d565b615513856154b1565b60005b8381101561553557815481890152600182019150602081019050615516565b808801955050505b50505092915050565b6000602082019050818103600083015261556081846154c6565b905092915050565b60006020828403121561557e5761557d613eea565b5b600061558c84828501614c84565b91505092915050565b600081519050919050565b600082825260208201905092915050565b6000819050602082019050919050565b60006155cd8383614872565b60208301905092915050565b6000602082019050919050565b60006155f182615595565b6155fb81856155a0565b9350615606836155b1565b8060005b8381101561563757815161561e88826155c1565b9750615629836155d9565b92505060018101905061560a565b5085935050505092915050565b60006060820190506156596000830186614229565b818103602083015261566b81856155e6565b905061567a60408301846145bf565b949350505050565b600081519050919050565b600082825260208201905092915050565b60006156a982615682565b6156b3818561568d565b93506156c3818560208601614605565b6156cc81613ef9565b840191505092915050565b600060e0820190506156ec600083018a6145bf565b81810360208301526156fe8189614638565b905081810360408301526157128188614638565b90508181036060830152615726818761569e565b9050818103608083015261573a8186614638565b905061574960a0830185614229565b61575660c08301846145bf565b98975050505050505050565b600060a082019050818103600083015261577c8188614638565b905081810360208301526157908187614638565b905081810360408301526157a4818661569e565b905081810360608301526157b88185614638565b90506157c76080830184614229565b9695505050505050565b60006157dc82613fe8565b91506157e783613fe8565b9250817fffffffffffffffffffffffffffffffffffffffffffffffffffffffffffffffff04831182151516156158205761581f615075565b5b828202905092915050565b7f4e487b7100000000000000000000000000000000000000000000000000000000600052601260045260246000fd5b600061586582613fe8565b915061587083613fe8565b9250826158805761587f61582b565b5b828204905092915050565b600060a082840312156158a1576158a0613ef4565b5b6158ab60a0613f6a565b905060006158bb84828501613fd3565b60008301525060206158cf84828501614009565b60208301525060406158e384828501614009565b60408301525060606158f784828501614009565b606083015250608061590b84828501614009565b60808301525092915050565b600060a0828403121561592d5761592c613eea565b5b600061593b8482850161588b565b91505092915050565b6000602082019050818103600083015261595f818486614eb0565b90509392505050565b7f5265656e7472616e637947756172643a207265656e7472616e742063616c6c00600082015250565b600061599e601f836145f4565b91506159a982615968565b602082019050919050565b600060208201905081810360008301526159cd81615991565b9050919050565b6000819050919050565b60006159e9826159d4565b91506159f4836159d4565b9250827f800000000000000000000000000000000000000000000000000000000000000001821260008412151615615a2f57615a2e615075565b5b827f7fffffffffffffffffffffffffffffffffffffffffffffffffffffffffffffff018213600084121615615a6757615a66615075565b5b828203905092915050565b6000615a7d826159d4565b9150615a88836159d4565b925082615a9857615a9761582b565b5b600160000383147f800000000000000000000000000000000000000000000000000000000000000083141615615ad157615ad0615075565b5b828205905092915050565b6000615ae7826159d4565b9150615af2836159d4565b9250817f7fffffffffffffffffffffffffffffffffffffffffffffffffffffffffffffff03831360008312151615615b2d57615b2c615075565b5b817f8000000000000000000000000000000000000000000000000000000000000000038312600083121615615b6557615b64615075565b5b828201905092915050565b6000615b7b826159d4565b91507f7fffffffffffffffffffffffffffffffffffffffffffffffffffffffffffffff821415615bae57615bad615075565b5b600182019050919050565b6000615bc4826159d4565b91507f8000000000000000000000000000000000000000000000000000000000000000821415615bf757615bf6615075565b5b600182039050919050565b6000615c0d82613fe8565b9150615c1883613fe8565b925082615c2857615c2761582b565b5b828206905092915050565b7f5361666545524332303a204552433230206f7065726174696f6e20646964206e60008201527f6f74207375636365656400000000000000000000000000000000000000000000602082015250565b6000615c8f602a836145f4565b9150615c9a82615c33565b604082019050919050565b60006020820190508181036000830152615cbe81615c82565b9050919050565b7f4754536176653a20696e73756666696369656e742062616c616e6365206f6e2060008201527f636f6e7472616374000000000000000000000000000000000000000000000000602082015250565b6000615d216028836145f4565b9150615d2c82615cc5565b604082019050919050565b60006020820190508181036000830152615d5081615d14565b9050919050565b7f4754536176653a20696e73756666696369656e742062616c616e636520000000600082015250565b6000615d8d601d836145f4565b9150615d9882615d57565b602082019050919050565b60006020820190508181036000830152615dbc81615d80565b9050919050565b7f416464726573733a20696e73756666696369656e742062616c616e636520666f60008201527f722063616c6c0000000000000000000000000000000000000000000000000000602082015250565b6000615e1f6026836145f4565b9150615e2a82615dc3565b604082019050919050565b60006020820190508181036000830152615e4e81615e12565b9050919050565b6000615e6082615682565b615e6a8185614e58565b9350615e7a818560208601614605565b80840191505092915050565b6000615e928284615e55565b915081905092915050565b7f416464726573733a2063616c6c20746f206e6f6e2d636f6e7472616374000000600082015250565b6000615ed3601d836145f4565b9150615ede82615e9d565b602082019050919050565b60006020820190508181036000830152615f0281615ec6565b905091905056fea2646970667358221220799e543362befc4b857b90590e403c292897540c16e94fdcc7b6c8b58e14033f64736f6c63430008090033","abi":[{"inputs":[{"internalType":"address","name":"_gateway","type":"address"},{"internalType":"address","name":"_gasReceiver","type":"address"},{"internalType":"address","name":"_usdc","type":"address"},{"internalType":"address","name":"_aToken","type":"address"},{"internalType":"address","name":"_poolUsdc","type":"address"},{"internalType":"address","name":"_vrfCoordinator","type":"address"},{"internalType":"address","name":"_univRouter","type":"address"},{"internalType":"address","name":"_wmatic","type":"address"}],"stateMutability":"nonpayable","type":"constructor"},{"inputs":[],"name":"InvalidAddress","type":"error"},{"inputs":[],"name":"NotApprovedByGateway","type":"error"},{"anonymous":false,"inputs":[{"indexed":true,"internalType":"address","name":"_from","type":"address"},{"indexed":false,"internalType":"string","name":"_fromChain","type":"string"},{"indexed":false,"internalType":"uint256","name":"_roubndId","type":"uint256"},{"indexed":false,"internalType":"uint256","name":"_amount","type":"uint256"}],"name":"_claim","type":"event"},{"anonymous":false,"inputs":[{"indexed":true,"internalType":"address","name":"_from","type":"address"},{"indexed":false,"internalType":"string","name":"_fromChain","type":"string"},{"indexed":false,"internalType":"uint256","name":"_roundId","type":"uint256"},{"indexed":false,"internalType":"uint256","name":"_amount","type":"uint256"}],"name":"_deposit","type":"event"},{"anonymous":false,"inputs":[{"indexed":true,"internalType":"address","name":"_from","type":"address"},{"indexed":false,"internalType":"string","name":"_fromChain","type":"string"},{"indexed":false,"internalType":"uint256","name":"_roundId","type":"uint256"},{"indexed":false,"internalType":"uint256","name":"_amount","type":"uint256"}],"name":"_withdraw","type":"event"},{"stateMutability":"payable","type":"fallback"},{"inputs":[],"name":"MIN_DEPOSIT_DURATION","outputs":[{"internalType":"uint256","name":"","type":"uint256"}],"stateMutability":"view","type":"function"},{"inputs":[],"name":"MIN_DURATION_PER_ROUND","outputs":[{"internalType":"uint256","name":"","type":"uint256"}],"stateMutability":"view","type":"function"},{"inputs":[{"internalType":"uint256","name":"amount","type":"uint256"}],"name":"Withdraw","outputs":[],"stateMutability":"nonpayable","type":"function"},{"inputs":[],"name":"axlUSDC","outputs":[{"internalType":"string","name":"","type":"string"}],"stateMutability":"view","type":"function"},{"inputs":[{"internalType":"uint256","name":"_roundId","type":"uint256"}],"name":"claim","outputs":[],"stateMutability":"nonpayable","type":"function"},{"inputs":[{"internalType":"uint256[]","name":"_randomWords","type":"uint256[]"}],"name":"completeRound","outputs":[],"stateMutability":"nonpayable","type":"function"},{"inputs":[{"internalType":"uint256","name":"amount","type":"uint256"}],"name":"deposit","outputs":[],"stateMutability":"nonpayable","type":"function"},{"inputs":[{"internalType":"bytes32","name":"commandId","type":"bytes32"},{"internalType":"string","name":"sourceChain","type":"string"},{"internalType":"string","name":"sourceAddress","type":"string"},{"internalType":"bytes","name":"payload","type":"bytes"}],"name":"execute","outputs":[],"stateMutability":"nonpayable","type":"function"},{"inputs":[{"internalType":"bytes32","name":"commandId","type":"bytes32"},{"internalType":"string","name":"sourceChain","type":"string"},{"internalType":"string","name":"sourceAddress","type":"string"},{"internalType":"bytes","name":"payload","type":"bytes"},{"internalType":"string","name":"tokenSymbol","type":"string"},{"internalType":"uint256","name":"amount","type":"uint256"}],"name":"executeWithToken","outputs":[],"stateMutability":"nonpayable","type":"function"},{"inputs":[],"name":"gateway","outputs":[{"internalType":"contract IAxelarGateway","name":"","type":"address"}],"stateMutability":"view","type":"function"},{"inputs":[],"name":"getClaimablePrize","outputs":[{"internalType":"uint256","name":"","type":"uint256"}],"stateMutability":"view","type":"function"},{"inputs":[{"internalType":"address","name":"user","type":"address"}],"name":"getUserData","outputs":[{"components":[{"internalType":"bool","name":"isEntity","type":"bool"},{"internalType":"uint256","name":"balance","type":"uint256"},{"internalType":"uint256","name":"oddUpdate","type":"uint256"},{"internalType":"uint256","name":"depositDate","type":"uint256"},{"components":[{"internalType":"uint256","name":"roundId","type":"uint256"},{"internalType":"uint256","name":"prize","type":"uint256"},{"internalType":"bool","name":"isClaim","type":"bool"}],"internalType":"struct Types.DetailWin[]","name":"listWin","type":"tuple[]"}],"internalType":"struct Types.UserData","name":"","type":"tuple"}],"stateMutability":"view","type":"function"},{"inputs":[{"internalType":"uint256","name":"_roundId","type":"uint256"}],"name":"getWiner","outputs":[{"components":[{"internalType":"bool","name":"isEntity","type":"bool"},{"internalType":"address","name":"winner","type":"address"},{"internalType":"uint256","name":"prize","type":"uint256"}],"internalType":"struct Types.DataWinners","name":"","type":"tuple"}],"stateMutability":"view","type":"function"},{"inputs":[{"internalType":"uint256","name":"","type":"uint256"}],"name":"listUserData","outputs":[{"internalType":"address","name":"","type":"address"}],"stateMutability":"view","type":"function"},{"inputs":[],"name":"prizes","outputs":[{"internalType":"uint256","name":"","type":"uint256"}],"stateMutability":"view","type":"function"},{"inputs":[{"components":[{"internalType":"address","name":"user","type":"address"},{"internalType":"uint256","name":"roundId","type":"uint256"},{"internalType":"string","name":"sourceChain","type":"string"},{"internalType":"uint256","name":"amountGas","type":"uint256"},{"internalType":"address","name":"gasToken","type":"address"},{"internalType":"string","name":"sourceAddress","type":"string"},{"internalType":"string","name":"tokenSymbol","type":"string"}],"internalType":"struct Types.ParameterClaimPrize","name":"paramClaimPrize","type":"tuple"}],"name":"receiveAndClaimPrize","outputs":[],"stateMutability":"nonpayable","type":"function"},{"inputs":[],"name":"roundId","outputs":[{"internalType":"uint256","name":"","type":"uint256"}],"stateMutability":"view","type":"function"},{"inputs":[],"name":"totalDeposit","outputs":[{"internalType":"uint256","name":"","type":"uint256"}],"stateMutability":"view","type":"function"},{"inputs":[{"internalType":"address","name":"","type":"address"}],"name":"userData","outputs":[{"internalType":"bool","name":"isEntity","type":"bool"},{"internalType":"uint256","name":"balance","type":"uint256"},{"internalType":"uint256","name":"oddUpdate","type":"uint256"},{"internalType":"uint256","name":"depositDate","type":"uint256"}],"stateMutability":"view","type":"function"},{"inputs":[],"name":"vrfCoordinator","outputs":[{"internalType":"address","name":"","type":"address"}],"stateMutability":"view","type":"function"},{"inputs":[{"internalType":"uint256","name":"","type":"uint256"}],"name":"weightedBalanceUser","outputs":[{"internalType":"address","name":"","type":"address"}],"stateMutability":"view","type":"function"},{"inputs":[{"internalType":"uint256","name":"","type":"uint256"}],"name":"winners","outputs":[{"internalType":"bool","name":"isEntity","type":"bool"},{"internalType":"address","name":"winner","type":"address"},{"internalType":"uint256","name":"prize","type":"uint256"}],"stateMutability":"view","type":"function"},{"inputs":[],"name":"wmatic","outputs":[{"internalType":"address","name":"","type":"address"}],"stateMutability":"view","type":"function"},{"stateMutability":"payable","type":"receive"}]}