{"address":"0x4417A9242085E441282f30e7e73da5bCc2dD53b3","bytecode":"0x60a06040526040518060400160405280600581526020017f61555344430000000000000000000000000000000000000000000000000000008152506006908051906020019062000051929190620002dd565b506298968060085542600b5562015180426200006e9190620003c6565b600c553480156200007e57600080fd5b50604051620064bd380380620064bd8339818101604052810190620000a491906200048d565b86600073ffffffffffffffffffffffffffffffffffffffff168173ffffffffffffffffffffffffffffffffffffffff1614156200010d576040517fe6c4247b00000000000000000000000000000000000000000000000000000000815260040160405180910390fd5b8073ffffffffffffffffffffffffffffffffffffffff1660808173ffffffffffffffffffffffffffffffffffffffff168152505050600160008190555085600160006101000a81548173ffffffffffffffffffffffffffffffffffffffff021916908373ffffffffffffffffffffffffffffffffffffffff16021790555084600360006101000a81548173ffffffffffffffffffffffffffffffffffffffff021916908373ffffffffffffffffffffffffffffffffffffffff16021790555083600460006101000a81548173ffffffffffffffffffffffffffffffffffffffff021916908373ffffffffffffffffffffffffffffffffffffffff16021790555082600560006101000a81548173ffffffffffffffffffffffffffffffffffffffff021916908373ffffffffffffffffffffffffffffffffffffffff16021790555081600260006101000a81548173ffffffffffffffffffffffffffffffffffffffff021916908373ffffffffffffffffffffffffffffffffffffffff16021790555080600760006101000a81548173ffffffffffffffffffffffffffffffffffffffff021916908373ffffffffffffffffffffffffffffffffffffffff16021790555050505050505050620005a5565b828054620002eb906200056f565b90600052602060002090601f0160209004810192826200030f57600085556200035b565b82601f106200032a57805160ff19168380011785556200035b565b828001600101855582156200035b579182015b828111156200035a5782518255916020019190600101906200033d565b5b5090506200036a91906200036e565b5090565b5b80821115620003895760008160009055506001016200036f565b5090565b6000819050919050565b7f4e487b7100000000000000000000000000000000000000000000000000000000600052601160045260246000fd5b6000620003d3826200038d565b9150620003e0836200038d565b9250827fffffffffffffffffffffffffffffffffffffffffffffffffffffffffffffffff0382111562000418576200041762000397565b5b828201905092915050565b600080fd5b600073ffffffffffffffffffffffffffffffffffffffff82169050919050565b6000620004558262000428565b9050919050565b620004678162000448565b81146200047357600080fd5b50565b60008151905062000487816200045c565b92915050565b600080600080600080600060e0888a031215620004af57620004ae62000423565b5b6000620004bf8a828b0162000476565b9750506020620004d28a828b0162000476565b9650506040620004e58a828b0162000476565b9550506060620004f88a828b0162000476565b94505060806200050b8a828b0162000476565b93505060a06200051e8a828b0162000476565b92505060c0620005318a828b0162000476565b91505092959891949750929550565b7f4e487b7100000000000000000000000000000000000000000000000000000000600052602260045260246000fd5b600060028204905060018216806200058857607f821691505b602082108114156200059f576200059e62000540565b5b50919050565b608051615ecb620005f2600039600081816106c70152818161070d01528181610eed01528181611e4d015281816135450152818161379301528181613a8d0152613d650152615ecb6000f3fe6080604052600436106101235760003560e01c80638c3a4271116100a0578063c891091311610064578063c8910913146103cb578063e52952721461040b578063f6153ccd14610448578063fb41be1614610473578063ffc9896b1461049e5761012a565b80638c3a4271146102e45780638cd221c91461030f578063a2fb11751461033a578063b6b55f2514610379578063b7442c9f146103a25761012a565b80632e1a7d4d116100e75780632e1a7d4d14610201578063379607f51461022a5780634916065814610253578063653cb8351461027c5780637e87e4bf146102b95761012a565b80630e5447271461012c578063116191b61461015757806311cceaf6146101825780631a98b2e0146101ad5780632a6c5176146101d65761012a565b3661012a57005b005b34801561013857600080fd5b506101416104db565b60405161014e91906140ce565b60405180910390f35b34801561016357600080fd5b5061016c6106c5565b6040516101799190614168565b60405180910390f35b34801561018e57600080fd5b506101976106e9565b6040516101a491906140ce565b60405180910390f35b3480156101b957600080fd5b506101d460048036038101906101cf91906142b4565b6106ef565b005b3480156101e257600080fd5b506101eb61081a565b6040516101f891906140ce565b60405180910390f35b34801561020d57600080fd5b50610228600480360381019061022391906143c4565b610821565b005b34801561023657600080fd5b50610251600480360381019061024c91906143c4565b610c53565b005b34801561025f57600080fd5b5061027a600480360381019061027591906143f1565b610ecf565b005b34801561028857600080fd5b506102a3600480360381019061029e91906143c4565b610fee565b6040516102b091906144db565b60405180910390f35b3480156102c557600080fd5b506102ce611021565b6040516102db91906140ce565b60405180910390f35b3480156102f057600080fd5b506102f9611027565b604051610306919061458f565b60405180910390f35b34801561031b57600080fd5b506103246110b5565b60405161033191906140ce565b60405180910390f35b34801561034657600080fd5b50610361600480360381019061035c91906143c4565b6110bb565b604051610370939291906145cc565b60405180910390f35b34801561038557600080fd5b506103a0600480360381019061039b91906143c4565b611112565b005b3480156103ae57600080fd5b506103c960048036038101906103c49190614741565b611638565b005b3480156103d757600080fd5b506103f260048036038101906103ed91906147b6565b611b9b565b60405161040294939291906147e3565b60405180910390f35b34801561041757600080fd5b50610432600480360381019061042d91906143c4565b611bd8565b60405161043f91906144db565b60405180910390f35b34801561045457600080fd5b5061045d611c17565b60405161046a91906140ce565b60405180910390f35b34801561047f57600080fd5b50610488611c1d565b60405161049591906144db565b60405180910390f35b3480156104aa57600080fd5b506104c560048036038101906104c091906147b6565b611c43565b6040516104d291906149ad565b60405180910390f35b600080600560009054906101000a900473ffffffffffffffffffffffffffffffffffffffff1673ffffffffffffffffffffffffffffffffffffffff166335ea6a75600360009054906101000a900473ffffffffffffffffffffffffffffffffffffffff166040518263ffffffff1660e01b815260040161055b91906144db565b6101e06040518083038186803b15801561057457600080fd5b505afa158015610588573d6000803e3d6000fd5b505050506040513d601f19601f820116820180604052508101906105ac9190614c5d565b90506000600460009054906101000a900473ffffffffffffffffffffffffffffffffffffffff1673ffffffffffffffffffffffffffffffffffffffff16631da24f3e306040518263ffffffff1660e01b815260040161060b91906144db565b60206040518083038186803b15801561062357600080fd5b505afa158015610637573d6000803e3d6000fd5b505050506040513d601f19601f8201168201806040525081019061065b9190614c8b565b905060006106ba600a546106ac6b033b2e3c9fd0803ce800000061069e87602001516fffffffffffffffffffffffffffffffff1687611df490919063ffffffff16565b611e0a90919063ffffffff16565b611e2090919063ffffffff16565b905080935050505090565b7f000000000000000000000000000000000000000000000000000000000000000081565b60095481565b60008585604051610701929190614cf7565b604051809103902090507f000000000000000000000000000000000000000000000000000000000000000073ffffffffffffffffffffffffffffffffffffffff16631876eed98c8c8c8c8c878b8b8b6040518a63ffffffff1660e01b815260040161077499989796959493929190614d4c565b602060405180830381600087803b15801561078e57600080fd5b505af11580156107a2573d6000803e3d6000fd5b505050506040513d601f19601f820116820180604052508101906107c69190614df4565b6107fc576040517f500c44b400000000000000000000000000000000000000000000000000000000815260040160405180910390fd5b61080d8a8a8a8a8a8a8a8a8a611e36565b5050505050505050505050565b6201518081565b33600e60008273ffffffffffffffffffffffffffffffffffffffff1673ffffffffffffffffffffffffffffffffffffffff16815260200190815260200160002060000160009054906101000a900460ff166108b1576040517f08c379a00000000000000000000000000000000000000000000000000000000081526004016108a890614e6d565b60405180910390fd5b6108b96122f1565b81600e60003373ffffffffffffffffffffffffffffffffffffffff1673ffffffffffffffffffffffffffffffffffffffff16815260200190815260200160002060010154101561093e576040517f08c379a000000000000000000000000000000000000000000000000000000000815260040161093590614ed9565b60405180910390fd5b81600a60008282546109509190614f28565b92505081905550600560009054906101000a900473ffffffffffffffffffffffffffffffffffffffff1673ffffffffffffffffffffffffffffffffffffffff166369328dec600360009054906101000a900473ffffffffffffffffffffffffffffffffffffffff1684306040518463ffffffff1660e01b81526004016109d893929190614f5c565b602060405180830381600087803b1580156109f257600080fd5b505af1158015610a06573d6000803e3d6000fd5b505050506040513d601f19601f82011682018060405250810190610a2a9190614c8b565b506000610a5a610a4b610a3c33612341565b85611df490919063ffffffff16565b84611e2090919063ffffffff16565b905082600e60003373ffffffffffffffffffffffffffffffffffffffff1673ffffffffffffffffffffffffffffffffffffffff1681526020019081526020016000206001016000828254610aae9190614f28565b925050819055506000600e60003373ffffffffffffffffffffffffffffffffffffffff1673ffffffffffffffffffffffffffffffffffffffff168152602001908152602001600020600101541415610ba757610b9033600d805480602002602001604051908101604052809291908181526020018280548015610b8657602002820191906000526020600020905b8160009054906101000a900473ffffffffffffffffffffffffffffffffffffffff1673ffffffffffffffffffffffffffffffffffffffff1681526020019060010190808311610b3c575b50505050506123c9565b600d9080519060200190610ba5929190613fdd565b505b610bf43382600360009054906101000a900473ffffffffffffffffffffffffffffffffffffffff1673ffffffffffffffffffffffffffffffffffffffff166124849092919063ffffffff16565b3373ffffffffffffffffffffffffffffffffffffffff167ff0ccc01369b7fa379493616626b8963509d65cb00db21bcea3e2ef62b99ee02960085483604051610c3e929190614fdf565b60405180910390a250610c4f61250a565b5050565b8033600f600083815260200190815260200160002060000160009054906101000a900460ff16610cb8576040517f08c379a0000000000000000000000000000000000000000000000000000000008152600401610caf90614e6d565b60405180910390fd5b8073ffffffffffffffffffffffffffffffffffffffff16600f600084815260200190815260200160002060000160019054906101000a900473ffffffffffffffffffffffffffffffffffffffff1673ffffffffffffffffffffffffffffffffffffffff1614610d5c576040517f08c379a0000000000000000000000000000000000000000000000000000000008152600401610d5390615067565b60405180910390fd5b610d646122f1565b6000600f6000858152602001908152602001600020600101549050600f6000858152602001908152602001600020600080820160006101000a81549060ff02191690556000820160016101000a81549073ffffffffffffffffffffffffffffffffffffffff021916905560018201600090555050610e2384600e60003373ffffffffffffffffffffffffffffffffffffffff1673ffffffffffffffffffffffffffffffffffffffff168152602001908152602001600020600401612514565b50610e713382600360009054906101000a900473ffffffffffffffffffffffffffffffffffffffff1673ffffffffffffffffffffffffffffffffffffffff166124849092919063ffffffff16565b3373ffffffffffffffffffffffffffffffffffffffff167fb26d72f1f96f5b9982fb943039f9409789540297914dba2fdb53a3e488fd67d88583604051610eb9929190614fdf565b60405180910390a250610eca61250a565b505050565b60008282604051610ee1929190614cf7565b604051809103902090507f000000000000000000000000000000000000000000000000000000000000000073ffffffffffffffffffffffffffffffffffffffff16635f6970c38989898989876040518763ffffffff1660e01b8152600401610f4e96959493929190615087565b602060405180830381600087803b158015610f6857600080fd5b505af1158015610f7c573d6000803e3d6000fd5b505050506040513d601f19601f82011682018060405250810190610fa09190614df4565b610fd6576040517f500c44b400000000000000000000000000000000000000000000000000000000815260040160405180910390fd5b610fe48787878787876125bb565b5050505050505050565b60106020528060005260406000206000915054906101000a900473ffffffffffffffffffffffffffffffffffffffff1681565b61025881565b600680546110349061510d565b80601f01602080910402602001604051908101604052809291908181526020018280546110609061510d565b80156110ad5780601f10611082576101008083540402835291602001916110ad565b820191906000526020600020905b81548152906001019060200180831161109057829003601f168201915b505050505081565b60085481565b600f6020528060005260406000206000915090508060000160009054906101000a900460ff16908060000160019054906101000a900473ffffffffffffffffffffffffffffffffffffffff16908060010154905083565b61111a6122f1565b80600360009054906101000a900473ffffffffffffffffffffffffffffffffffffffff1673ffffffffffffffffffffffffffffffffffffffff166370a08231336040518263ffffffff1660e01b815260040161117691906144db565b60206040518083038186803b15801561118e57600080fd5b505afa1580156111a2573d6000803e3d6000fd5b505050506040513d601f19601f820116820180604052508101906111c69190614c8b565b1015611207576040517f08c379a00000000000000000000000000000000000000000000000000000000081526004016111fe90614ed9565b60405180910390fd5b80600a6000828254611219919061513f565b92505081905550600e60003373ffffffffffffffffffffffffffffffffffffffff1673ffffffffffffffffffffffffffffffffffffffff16815260200190815260200160002060000160009054906101000a900460ff16156112d35780600e60003373ffffffffffffffffffffffffffffffffffffffff1673ffffffffffffffffffffffffffffffffffffffff16815260200190815260200160002060010160008282546112c7919061513f565b92505081905550611467565b6001600e60003373ffffffffffffffffffffffffffffffffffffffff1673ffffffffffffffffffffffffffffffffffffffff16815260200190815260200160002060000160006101000a81548160ff02191690831515021790555080600e60003373ffffffffffffffffffffffffffffffffffffffff1673ffffffffffffffffffffffffffffffffffffffff1681526020019081526020016000206001018190555042600e60003373ffffffffffffffffffffffffffffffffffffffff1673ffffffffffffffffffffffffffffffffffffffff1681526020019081526020016000206002018190555042600e60003373ffffffffffffffffffffffffffffffffffffffff1673ffffffffffffffffffffffffffffffffffffffff16815260200190815260200160002060030181905550600d339080600181540180825580915050600190039060005260206000200160009091909190916101000a81548173ffffffffffffffffffffffffffffffffffffffff021916908373ffffffffffffffffffffffffffffffffffffffff1602179055505b6114b6333083600360009054906101000a900473ffffffffffffffffffffffffffffffffffffffff1673ffffffffffffffffffffffffffffffffffffffff166125c3909392919063ffffffff16565b611525600560009054906101000a900473ffffffffffffffffffffffffffffffffffffffff1682600360009054906101000a900473ffffffffffffffffffffffffffffffffffffffff1673ffffffffffffffffffffffffffffffffffffffff1661264c9092919063ffffffff16565b600560009054906101000a900473ffffffffffffffffffffffffffffffffffffffff1673ffffffffffffffffffffffffffffffffffffffff1663617ba037600360009054906101000a900473ffffffffffffffffffffffffffffffffffffffff16833060006040518563ffffffff1660e01b81526004016115a994939291906151d0565b600060405180830381600087803b1580156115c357600080fd5b505af11580156115d7573d6000803e3d6000fd5b505050503373ffffffffffffffffffffffffffffffffffffffff167f079a00d95c8ba77895d65ce09232bc98446b1b0de6f74c249d199ab26a11c2fa60085483604051611625929190614fdf565b60405180910390a261163561250a565b50565b6116406122f1565b6000600d8054905011611688576040517f08c379a000000000000000000000000000000000000000000000000000000000815260040161167f90615261565b60405180910390fd5b6000600d8054905067ffffffffffffffff8111156116a9576116a8614603565b5b6040519080825280602002602001820160405280156116d75781602001602082028036833780820191505090505b50905060005b600d805490508110156118d057600061180a600e6000600d858154811061170757611706615281565b5b9060005260206000200160009054906101000a900473ffffffffffffffffffffffffffffffffffffffff1673ffffffffffffffffffffffffffffffffffffffff1673ffffffffffffffffffffffffffffffffffffffff168152602001908152602001600020600201544261177b9190614f28565b600e6000600d868154811061179357611792615281565b5b9060005260206000200160009054906101000a900473ffffffffffffffffffffffffffffffffffffffff1673ffffffffffffffffffffffffffffffffffffffff1673ffffffffffffffffffffffffffffffffffffffff168152602001908152602001600020600101546127aa90919063ffffffff16565b9050808383815181106118205761181f615281565b5b602002602001018181525050600d82815481106118405761183f615281565b5b9060005260206000200160009054906101000a900473ffffffffffffffffffffffffffffffffffffffff166010600083815260200190815260200160002060006101000a81548173ffffffffffffffffffffffffffffffffffffffff021916908373ffffffffffffffffffffffffffffffffffffffff1602179055505080806118c8906152b0565b9150506116dd565b506118ea816000600184516118e59190614f28565b6127c0565b905060006119378260008151811061190557611904615281565b5b60200260200101518460008151811061192157611920615281565b5b602002602001015161296890919063ffffffff16565b905060006119558360006001865161194f9190614f28565b8561297e565b90506000601060008584815181106119705761196f615281565b5b6020026020010151815260200190815260200160002060009054906101000a900473ffffffffffffffffffffffffffffffffffffffff16905060006119b36104db565b905060405180606001604052806001151581526020018373ffffffffffffffffffffffffffffffffffffffff16815260200182815250600f6000600854815260200190815260200160002060008201518160000160006101000a81548160ff02191690831515021790555060208201518160000160016101000a81548173ffffffffffffffffffffffffffffffffffffffff021916908373ffffffffffffffffffffffffffffffffffffffff1602179055506040820151816001015590505042600e60008473ffffffffffffffffffffffffffffffffffffffff1673ffffffffffffffffffffffffffffffffffffffff16815260200190815260200160002060020181905550600e60008373ffffffffffffffffffffffffffffffffffffffff1673ffffffffffffffffffffffffffffffffffffffff16815260200190815260200160002060040160405180606001604052806008548152602001838152602001600015158152509080600181540180825580915050600190039060005260206000209060030201600090919091909150600082015181600001556020820151816001015560408201518160020160006101000a81548160ff0219169083151502179055505050611b82612a6c565b611b8a612b4f565b505050505050611b9861250a565b50565b600e6020528060005260406000206000915090508060000160009054906101000a900460ff16908060010154908060020154908060030154905084565b600d8181548110611be857600080fd5b906000526020600020016000915054906101000a900473ffffffffffffffffffffffffffffffffffffffff1681565b600a5481565b600760009054906101000a900473ffffffffffffffffffffffffffffffffffffffff1681565b611c4b614067565b81600e60008273ffffffffffffffffffffffffffffffffffffffff1673ffffffffffffffffffffffffffffffffffffffff16815260200190815260200160002060000160009054906101000a900460ff16611cdb576040517f08c379a0000000000000000000000000000000000000000000000000000000008152600401611cd290614e6d565b60405180910390fd5b600e60008473ffffffffffffffffffffffffffffffffffffffff1673ffffffffffffffffffffffffffffffffffffffff1681526020019081526020016000206040518060a00160405290816000820160009054906101000a900460ff1615151515815260200160018201548152602001600282015481526020016003820154815260200160048201805480602002602001604051908101604052809291908181526020016000905b82821015611de4578382906000526020600020906003020160405180606001604052908160008201548152602001600182015481526020016002820160009054906101000a900460ff16151515158152505081526020019060010190611d83565b5050505081525050915050919050565b60008183611e0291906152f9565b905092915050565b60008183611e189190615382565b905092915050565b60008183611e2e9190614f28565b905092915050565b60008585810190611e47919061543f565b905060007f000000000000000000000000000000000000000000000000000000000000000073ffffffffffffffffffffffffffffffffffffffff1663935b13f686866040518363ffffffff1660e01b8152600401611ea692919061546c565b60206040518083038186803b158015611ebe57600080fd5b505afa158015611ed2573d6000803e3d6000fd5b505050506040513d601f19601f82011682018060405250810190611ef69190615490565b9050600082604001511415611f7c57611f1782600001518360200151612b8f565b816000015173ffffffffffffffffffffffffffffffffffffffff167f079a00d95c8ba77895d65ce09232bc98446b1b0de6f74c249d199ab26a11c2fa8c8c85608001518660200151604051611f6f94939291906154bd565b60405180910390a26122e4565b6001826040015114156121315760006040518060e0016040528084602001518152602001846000015173ffffffffffffffffffffffffffffffffffffffff1681526020018373ffffffffffffffffffffffffffffffffffffffff168152602001846060015181526020018d8d8080601f016020809104026020016040519081016040528093929190818152602001838380828437600081840152601f19601f8201169050808301925050505050505081526020018b8b8080601f016020809104026020016040519081016040528093929190818152602001838380828437600081840152601f19601f82011690508083019250505050505050815260200187878080601f016020809104026020016040519081016040528093929190818152602001838380828437600081840152601f19601f8201169050808301925050505050505081525090506120cd81613005565b826000015173ffffffffffffffffffffffffffffffffffffffff167ff0ccc01369b7fa379493616626b8963509d65cb00db21bcea3e2ef62b99ee0298d8d600854876020015160405161212394939291906154bd565b60405180910390a2506122e3565b6002826040015114156122e25760006040518060e00160405280846000015173ffffffffffffffffffffffffffffffffffffffff168152602001846080015181526020018d8d8080601f016020809104026020016040519081016040528093929190818152602001838380828437600081840152601f19601f820116905080830192505050505050508152602001846060015181526020018373ffffffffffffffffffffffffffffffffffffffff1681526020018b8b8080601f016020809104026020016040519081016040528093929190818152602001838380828437600081840152601f19601f82011690508083019250505050505050815260200187878080601f016020809104026020016040519081016040528093929190818152602001838380828437600081840152601f19601f820116905080830192505050505050508152509050612282816135a3565b826000015173ffffffffffffffffffffffffffffffffffffffff167fb26d72f1f96f5b9982fb943039f9409789540297914dba2fdb53a3e488fd67d88d8d60085487602001516040516122d894939291906154bd565b60405180910390a2505b5b5b5050505050505050505050565b60026000541415612337576040517f08c379a000000000000000000000000000000000000000000000000000000000815260040161232e90615549565b60405180910390fd5b6002600081905550565b600080600390506000610258426123589190614f28565b600e60008673ffffffffffffffffffffffffffffffffffffffff1673ffffffffffffffffffffffffffffffffffffffff16815260200190815260200160002060030154116123a75760006123bd565b6123bc6103e883611e0a90919063ffffffff16565b5b90508092505050919050565b606060005b600183516123dc9190614f28565b81101561247a578373ffffffffffffffffffffffffffffffffffffffff1683828151811061240d5761240c615281565b5b602002602001015173ffffffffffffffffffffffffffffffffffffffff1614156124675782818151811061244457612443615281565b5b60200260200101600073ffffffffffffffffffffffffffffffffffffffff168152505b8080612472906152b0565b9150506123ce565b5081905092915050565b6125058363a9059cbb60e01b84846040516024016124a3929190615569565b604051602081830303815290604052907bffffffffffffffffffffffffffffffffffffffffffffffffffffffff19166020820180517bffffffffffffffffffffffffffffffffffffffffffffffffffffffff8381831617835250505050613975565b505050565b6001600081905550565b600080600090505b6001838054905061252d9190614f28565b8110156125b1578383828154811061254857612547615281565b5b906000526020600020906003020160000154141561259e57600183828154811061257557612574615281565b5b906000526020600020906003020160020160006101000a81548160ff0219169083151502179055505b80806125a9906152b0565b91505061251c565b5081905092915050565b505050505050565b612646846323b872dd60e01b8585856040516024016125e493929190615592565b604051602081830303815290604052907bffffffffffffffffffffffffffffffffffffffffffffffffffffffff19166020820180517bffffffffffffffffffffffffffffffffffffffffffffffffffffffff8381831617835250505050613975565b50505050565b60008114806126e5575060008373ffffffffffffffffffffffffffffffffffffffff1663dd62ed3e30856040518363ffffffff1660e01b81526004016126939291906155c9565b60206040518083038186803b1580156126ab57600080fd5b505afa1580156126bf573d6000803e3d6000fd5b505050506040513d601f19601f820116820180604052508101906126e39190614c8b565b145b612724576040517f08c379a000000000000000000000000000000000000000000000000000000000815260040161271b90615664565b60405180910390fd5b6127a58363095ea7b360e01b8484604051602401612743929190615569565b604051602081830303815290604052907bffffffffffffffffffffffffffffffffffffffffffffffffffffffff19166020820180517bffffffffffffffffffffffffffffffffffffffffffffffffffffffff8381831617835250505050613975565b505050565b600081836127b8919061513f565b905092915050565b606060008390506000839050808214156127de578592505050612961565b600086600287876127ef919061568e565b6127f99190615722565b87612804919061578c565b8151811061281557612814615281565b5b602002602001015190505b818313612930575b8087848151811061283c5761283b615281565b5b6020026020010151101561285d57828061285590615820565b935050612828565b5b86828151811061287157612870615281565b5b602002602001015181101561289357818061288b90615869565b92505061285e565b81831361292b578682815181106128ad576128ac615281565b5b60200260200101518784815181106128c8576128c7615281565b5b60200260200101518885815181106128e3576128e2615281565b5b602002602001018985815181106128fd576128fc615281565b5b6020026020010182815250828152505050828061291990615820565b935050818061292790615869565b9250505b612820565b81861215612945576129438787846127c0565b505b8483121561295a576129588784876127c0565b505b8693505050505b9392505050565b6000818361297691906158b2565b905092915050565b6000818560008151811061299557612994615281565b5b602002602001015111156129ac5760009050612a64565b8185600187516129bc9190614f28565b815181106129cd576129cc615281565b5b602002602001015110156129f057600185516129e99190614f28565b9050612a64565b60005b838511612a5f5760028486612a08919061513f565b612a129190615382565b905082868281518110612a2857612a27615281565b5b60200260200101511015612a4a57600181612a439190614f28565b9350612a5a565b600181612a57919061513f565b94505b6129f3565b809150505b949350505050565b6000612a766104db565b9050600560009054906101000a900473ffffffffffffffffffffffffffffffffffffffff1673ffffffffffffffffffffffffffffffffffffffff166369328dec600360009054906101000a900473ffffffffffffffffffffffffffffffffffffffff1683306040518463ffffffff1660e01b8152600401612af993929190614f5c565b602060405180830381600087803b158015612b1357600080fd5b505af1158015612b27573d6000803e3d6000fd5b505050506040513d601f19601f82011682018060405250810190612b4b9190614c8b565b5050565b600042600b8190555062015180600b54612b69919061513f565b600c8190555060086000815480929190612b82906152b0565b9190505550600854905090565b80600360009054906101000a900473ffffffffffffffffffffffffffffffffffffffff1673ffffffffffffffffffffffffffffffffffffffff166370a08231306040518263ffffffff1660e01b8152600401612beb91906144db565b60206040518083038186803b158015612c0357600080fd5b505afa158015612c17573d6000803e3d6000fd5b505050506040513d601f19601f82011682018060405250810190612c3b9190614c8b565b1015612c7c576040517f08c379a0000000000000000000000000000000000000000000000000000000008152600401612c739061592f565b60405180910390fd5b80600a6000828254612c8e919061513f565b92505081905550600e60008373ffffffffffffffffffffffffffffffffffffffff1673ffffffffffffffffffffffffffffffffffffffff16815260200190815260200160002060000160009054906101000a900460ff1615612d485780600e60008473ffffffffffffffffffffffffffffffffffffffff1673ffffffffffffffffffffffffffffffffffffffff1681526020019081526020016000206001016000828254612d3c919061513f565b92505081905550612edc565b6001600e60008473ffffffffffffffffffffffffffffffffffffffff1673ffffffffffffffffffffffffffffffffffffffff16815260200190815260200160002060000160006101000a81548160ff02191690831515021790555080600e60008473ffffffffffffffffffffffffffffffffffffffff1673ffffffffffffffffffffffffffffffffffffffff1681526020019081526020016000206001018190555042600e60008473ffffffffffffffffffffffffffffffffffffffff1673ffffffffffffffffffffffffffffffffffffffff1681526020019081526020016000206002018190555042600e60008473ffffffffffffffffffffffffffffffffffffffff1673ffffffffffffffffffffffffffffffffffffffff16815260200190815260200160002060030181905550600d829080600181540180825580915050600190039060005260206000200160009091909190916101000a81548173ffffffffffffffffffffffffffffffffffffffff021916908373ffffffffffffffffffffffffffffffffffffffff1602179055505b612f4b600560009054906101000a900473ffffffffffffffffffffffffffffffffffffffff1682600360009054906101000a900473ffffffffffffffffffffffffffffffffffffffff1673ffffffffffffffffffffffffffffffffffffffff1661264c9092919063ffffffff16565b600560009054906101000a900473ffffffffffffffffffffffffffffffffffffffff1673ffffffffffffffffffffffffffffffffffffffff1663617ba037600360009054906101000a900473ffffffffffffffffffffffffffffffffffffffff16833060006040518563ffffffff1660e01b8152600401612fcf94939291906151d0565b600060405180830381600087803b158015612fe957600080fd5b505af1158015612ffd573d6000803e3d6000fd5b505050505050565b8060200151600e60008273ffffffffffffffffffffffffffffffffffffffff1673ffffffffffffffffffffffffffffffffffffffff16815260200190815260200160002060000160009054906101000a900460ff16613099576040517f08c379a000000000000000000000000000000000000000000000000000000000815260040161309090614e6d565b60405180910390fd5b8160000151600e6000846020015173ffffffffffffffffffffffffffffffffffffffff1673ffffffffffffffffffffffffffffffffffffffff168152602001908152602001600020600101541015613126576040517f08c379a000000000000000000000000000000000000000000000000000000000815260040161311d9061599b565b60405180910390fd5b8160000151600a600082825461313c9190614f28565b92505081905550600560009054906101000a900473ffffffffffffffffffffffffffffffffffffffff1673ffffffffffffffffffffffffffffffffffffffff166369328dec600360009054906101000a900473ffffffffffffffffffffffffffffffffffffffff168460000151306040518463ffffffff1660e01b81526004016131c893929190614f5c565b602060405180830381600087803b1580156131e257600080fd5b505af11580156131f6573d6000803e3d6000fd5b505050506040513d601f19601f8201168201806040525081019061321a9190614c8b565b5060006132566132436132308560200151612341565b8560000151611df490919063ffffffff16565b8460000151611e2090919063ffffffff16565b90508260000151600e6000856020015173ffffffffffffffffffffffffffffffffffffffff1673ffffffffffffffffffffffffffffffffffffffff16815260200190815260200160002060010160008282546132b29190614f28565b925050819055506000600e6000856020015173ffffffffffffffffffffffffffffffffffffffff1673ffffffffffffffffffffffffffffffffffffffff1681526020019081526020016000206001015414156133b35761339c8360200151600d80548060200260200160405190810160405280929190818152602001828054801561339257602002820191906000526020600020905b8160009054906101000a900473ffffffffffffffffffffffffffffffffffffffff1673ffffffffffffffffffffffffffffffffffffffff1681526020019060010190808311613348575b50505050506123c9565b600d90805190602001906133b1929190613fdd565b505b613408600260009054906101000a900473ffffffffffffffffffffffffffffffffffffffff168460600151856040015173ffffffffffffffffffffffffffffffffffffffff1661264c9092919063ffffffff16565b61345d600260009054906101000a900473ffffffffffffffffffffffffffffffffffffffff168460600151856040015173ffffffffffffffffffffffffffffffffffffffff166124849092919063ffffffff16565b600061346c8460600151613a3c565b90506000846020015160405160200161348591906144db565b604051602081830303815290604052905060006040518060e001604052803073ffffffffffffffffffffffffffffffffffffffff168152602001876080015181526020018760a0015181526020018381526020018760c001518152602001858152602001876020015173ffffffffffffffffffffffffffffffffffffffff16815250905060006040518060a00160405280886080015181526020018860a0015181526020018481526020018860c00151815260200186815250905061358f7f000000000000000000000000000000000000000000000000000000000000000086896040015173ffffffffffffffffffffffffffffffffffffffff1661264c9092919063ffffffff16565b61359a828286613cad565b50505050505050565b80602001518160000151600f600083815260200190815260200160002060000160009054906101000a900460ff16613610576040517f08c379a000000000000000000000000000000000000000000000000000000000815260040161360790614e6d565b60405180910390fd5b8073ffffffffffffffffffffffffffffffffffffffff16600f600084815260200190815260200160002060000160019054906101000a900473ffffffffffffffffffffffffffffffffffffffff1673ffffffffffffffffffffffffffffffffffffffff16146136b4576040517f08c379a00000000000000000000000000000000000000000000000000000000081526004016136ab90615067565b60405180910390fd5b6000600f600085602001518152602001908152602001600020600101549050613728600260009054906101000a900473ffffffffffffffffffffffffffffffffffffffff168560600151866080015173ffffffffffffffffffffffffffffffffffffffff1661264c9092919063ffffffff16565b61377d600260009054906101000a900473ffffffffffffffffffffffffffffffffffffffff168560600151866080015173ffffffffffffffffffffffffffffffffffffffff166124849092919063ffffffff16565b600061378c8560600151613a3c565b90506137dd7f000000000000000000000000000000000000000000000000000000000000000083876080015173ffffffffffffffffffffffffffffffffffffffff1661264c9092919063ffffffff16565b600f600086602001518152602001908152602001600020600080820160006101000a81549060ff02191690556000820160016101000a81549073ffffffffffffffffffffffffffffffffffffffff02191690556001820160009055505061388d8560200151600e6000886000015173ffffffffffffffffffffffffffffffffffffffff1673ffffffffffffffffffffffffffffffffffffffff168152602001908152602001600020600401612514565b50600085600001516040516020016138a591906144db565b604051602081830303815290604052905060006040518060e001604052803073ffffffffffffffffffffffffffffffffffffffff168152602001886040015181526020018860a0015181526020018381526020018860c001518152602001858152602001886000015173ffffffffffffffffffffffffffffffffffffffff16815250905060006040518060a00160405280896040015181526020018960a0015181526020018481526020018960c00151815260200186815250905061396b828286613cad565b5050505050505050565b60006139d7826040518060400160405280602081526020017f5361666545524332303a206c6f772d6c6576656c2063616c6c206661696c65648152508573ffffffffffffffffffffffffffffffffffffffff16613e0f9092919063ffffffff16565b9050600081511115613a3757808060200190518101906139f79190614df4565b613a36576040517f08c379a0000000000000000000000000000000000000000000000000000000008152600401613a2d90615a2d565b60405180910390fd5b5b505050565b600080600267ffffffffffffffff811115613a5a57613a59614603565b5b604051908082528060200260200182016040528015613a885781602001602082028036833780820191505090505b5090507f000000000000000000000000000000000000000000000000000000000000000073ffffffffffffffffffffffffffffffffffffffff1663935b13f660066040518263ffffffff1660e01b8152600401613ae59190615ae2565b60206040518083038186803b158015613afd57600080fd5b505afa158015613b11573d6000803e3d6000fd5b505050506040513d601f19601f82011682018060405250810190613b359190615490565b81600081518110613b4957613b48615281565b5b602002602001019073ffffffffffffffffffffffffffffffffffffffff16908173ffffffffffffffffffffffffffffffffffffffff1681525050600760009054906101000a900473ffffffffffffffffffffffffffffffffffffffff1681600181518110613bba57613bb9615281565b5b602002602001019073ffffffffffffffffffffffffffffffffffffffff16908173ffffffffffffffffffffffffffffffffffffffff1681525050600260009054906101000a900473ffffffffffffffffffffffffffffffffffffffff1673ffffffffffffffffffffffffffffffffffffffff1663ee037f5e8483306040518463ffffffff1660e01b8152600401613c5393929190615bc2565b602060405180830381600087803b158015613c6d57600080fd5b505af1158015613c81573d6000803e3d6000fd5b505050506040513d601f19601f82011682018060405250810190613ca59190614c8b565b915050919050565b600160009054906101000a900473ffffffffffffffffffffffffffffffffffffffff1673ffffffffffffffffffffffffffffffffffffffff1663c62c200282856000015186602001518760400151886060015189608001518a60a001518b60c001516040518963ffffffff1660e01b8152600401613d319796959493929190615c55565b6000604051808303818588803b158015613d4a57600080fd5b505af1158015613d5e573d6000803e3d6000fd5b50505050507f000000000000000000000000000000000000000000000000000000000000000073ffffffffffffffffffffffffffffffffffffffff1663b5417084836000015184602001518560400151866060015187608001516040518663ffffffff1660e01b8152600401613dd8959493929190615ce0565b600060405180830381600087803b158015613df257600080fd5b505af1158015613e06573d6000803e3d6000fd5b50505050505050565b6060613e1e8484600085613e27565b90509392505050565b606082471015613e6c576040517f08c379a0000000000000000000000000000000000000000000000000000000008152600401613e6390615dc1565b60405180910390fd5b6000808673ffffffffffffffffffffffffffffffffffffffff168587604051613e959190615e12565b60006040518083038185875af1925050503d8060008114613ed2576040519150601f19603f3d011682016040523d82523d6000602084013e613ed7565b606091505b5091509150613ee887838387613ef4565b92505050949350505050565b60608315613f5757600083511415613f4f57613f0f85613f6a565b613f4e576040517f08c379a0000000000000000000000000000000000000000000000000000000008152600401613f4590615e75565b60405180910390fd5b5b829050613f62565b613f618383613f8d565b5b949350505050565b6000808273ffffffffffffffffffffffffffffffffffffffff163b119050919050565b600082511115613fa05781518083602001fd5b806040517f08c379a0000000000000000000000000000000000000000000000000000000008152600401613fd4919061458f565b60405180910390fd5b828054828255906000526020600020908101928215614056579160200282015b828111156140555782518260006101000a81548173ffffffffffffffffffffffffffffffffffffffff021916908373ffffffffffffffffffffffffffffffffffffffff16021790555091602001919060010190613ffd565b5b5090506140639190614098565b5090565b6040518060a00160405280600015158152602001600081526020016000815260200160008152602001606081525090565b5b808211156140b1576000816000905550600101614099565b5090565b6000819050919050565b6140c8816140b5565b82525050565b60006020820190506140e360008301846140bf565b92915050565b600073ffffffffffffffffffffffffffffffffffffffff82169050919050565b6000819050919050565b600061412e614129614124846140e9565b614109565b6140e9565b9050919050565b600061414082614113565b9050919050565b600061415282614135565b9050919050565b61416281614147565b82525050565b600060208201905061417d6000830184614159565b92915050565b6000604051905090565b600080fd5b600080fd5b6000819050919050565b6141aa81614197565b81146141b557600080fd5b50565b6000813590506141c7816141a1565b92915050565b600080fd5b600080fd5b600080fd5b60008083601f8401126141f2576141f16141cd565b5b8235905067ffffffffffffffff81111561420f5761420e6141d2565b5b60208301915083600182028301111561422b5761422a6141d7565b5b9250929050565b60008083601f840112614248576142476141cd565b5b8235905067ffffffffffffffff811115614265576142646141d2565b5b602083019150836001820283011115614281576142806141d7565b5b9250929050565b614291816140b5565b811461429c57600080fd5b50565b6000813590506142ae81614288565b92915050565b60008060008060008060008060008060c08b8d0312156142d7576142d661418d565b5b60006142e58d828e016141b8565b9a505060208b013567ffffffffffffffff81111561430657614305614192565b5b6143128d828e016141dc565b995099505060408b013567ffffffffffffffff81111561433557614334614192565b5b6143418d828e016141dc565b975097505060608b013567ffffffffffffffff81111561436457614363614192565b5b6143708d828e01614232565b955095505060808b013567ffffffffffffffff81111561439357614392614192565b5b61439f8d828e016141dc565b935093505060a06143b28d828e0161429f565b9150509295989b9194979a5092959850565b6000602082840312156143da576143d961418d565b5b60006143e88482850161429f565b91505092915050565b60008060008060008060006080888a0312156144105761440f61418d565b5b600061441e8a828b016141b8565b975050602088013567ffffffffffffffff81111561443f5761443e614192565b5b61444b8a828b016141dc565b9650965050604088013567ffffffffffffffff81111561446e5761446d614192565b5b61447a8a828b016141dc565b9450945050606088013567ffffffffffffffff81111561449d5761449c614192565b5b6144a98a828b01614232565b925092505092959891949750929550565b60006144c5826140e9565b9050919050565b6144d5816144ba565b82525050565b60006020820190506144f060008301846144cc565b92915050565b600081519050919050565b600082825260208201905092915050565b60005b83811015614530578082015181840152602081019050614515565b8381111561453f576000848401525b50505050565b6000601f19601f8301169050919050565b6000614561826144f6565b61456b8185614501565b935061457b818560208601614512565b61458481614545565b840191505092915050565b600060208201905081810360008301526145a98184614556565b905092915050565b60008115159050919050565b6145c6816145b1565b82525050565b60006060820190506145e160008301866145bd565b6145ee60208301856144cc565b6145fb60408301846140bf565b949350505050565b7f4e487b7100000000000000000000000000000000000000000000000000000000600052604160045260246000fd5b61463b82614545565b810181811067ffffffffffffffff8211171561465a57614659614603565b5b80604052505050565b600061466d614183565b90506146798282614632565b919050565b600067ffffffffffffffff82111561469957614698614603565b5b602082029050602081019050919050565b60006146bd6146b88461467e565b614663565b905080838252602082019050602084028301858111156146e0576146df6141d7565b5b835b8181101561470957806146f5888261429f565b8452602084019350506020810190506146e2565b5050509392505050565b600082601f830112614728576147276141cd565b5b81356147388482602086016146aa565b91505092915050565b6000602082840312156147575761475661418d565b5b600082013567ffffffffffffffff81111561477557614774614192565b5b61478184828501614713565b91505092915050565b614793816144ba565b811461479e57600080fd5b50565b6000813590506147b08161478a565b92915050565b6000602082840312156147cc576147cb61418d565b5b60006147da848285016147a1565b91505092915050565b60006080820190506147f860008301876145bd565b61480560208301866140bf565b61481260408301856140bf565b61481f60608301846140bf565b95945050505050565b614831816145b1565b82525050565b614840816140b5565b82525050565b600081519050919050565b600082825260208201905092915050565b6000819050602082019050919050565b6060820160008201516148886000850182614837565b50602082015161489b6020850182614837565b5060408201516148ae6040850182614828565b50505050565b60006148c08383614872565b60608301905092915050565b6000602082019050919050565b60006148e482614846565b6148ee8185614851565b93506148f983614862565b8060005b8381101561492a57815161491188826148b4565b975061491c836148cc565b9250506001810190506148fd565b5085935050505092915050565b600060a08301600083015161494f6000860182614828565b5060208301516149626020860182614837565b5060408301516149756040860182614837565b5060608301516149886060860182614837565b50608083015184820360808601526149a082826148d9565b9150508091505092915050565b600060208201905081810360008301526149c78184614937565b905092915050565b600080fd5b6000815190506149e381614288565b92915050565b6000602082840312156149ff576149fe6149cf565b5b614a096020614663565b90506000614a19848285016149d4565b60008301525092915050565b60006fffffffffffffffffffffffffffffffff82169050919050565b614a4a81614a25565b8114614a5557600080fd5b50565b600081519050614a6781614a41565b92915050565b600064ffffffffff82169050919050565b614a8781614a6d565b8114614a9257600080fd5b50565b600081519050614aa481614a7e565b92915050565b600061ffff82169050919050565b614ac181614aaa565b8114614acc57600080fd5b50565b600081519050614ade81614ab8565b92915050565b600081519050614af38161478a565b92915050565b60006101e08284031215614b1057614b0f6149cf565b5b614b1b6101e0614663565b90506000614b2b848285016149e9565b6000830152506020614b3f84828501614a58565b6020830152506040614b5384828501614a58565b6040830152506060614b6784828501614a58565b6060830152506080614b7b84828501614a58565b60808301525060a0614b8f84828501614a58565b60a08301525060c0614ba384828501614a95565b60c08301525060e0614bb784828501614acf565b60e083015250610100614bcc84828501614ae4565b61010083015250610120614be284828501614ae4565b61012083015250610140614bf884828501614ae4565b61014083015250610160614c0e84828501614ae4565b61016083015250610180614c2484828501614a58565b610180830152506101a0614c3a84828501614a58565b6101a0830152506101c0614c5084828501614a58565b6101c08301525092915050565b60006101e08284031215614c7457614c7361418d565b5b6000614c8284828501614af9565b91505092915050565b600060208284031215614ca157614ca061418d565b5b6000614caf848285016149d4565b91505092915050565b600081905092915050565b82818337600083830152505050565b6000614cde8385614cb8565b9350614ceb838584614cc3565b82840190509392505050565b6000614d04828486614cd2565b91508190509392505050565b614d1981614197565b82525050565b6000614d2b8385614501565b9350614d38838584614cc3565b614d4183614545565b840190509392505050565b600060c082019050614d61600083018c614d10565b8181036020830152614d74818a8c614d1f565b90508181036040830152614d8981888a614d1f565b9050614d986060830187614d10565b8181036080830152614dab818587614d1f565b9050614dba60a08301846140bf565b9a9950505050505050505050565b614dd1816145b1565b8114614ddc57600080fd5b50565b600081519050614dee81614dc8565b92915050565b600060208284031215614e0a57614e0961418d565b5b6000614e1884828501614ddf565b91505092915050565b7f64617461206e6f7420666f756e64000000000000000000000000000000000000600082015250565b6000614e57600e83614501565b9150614e6282614e21565b602082019050919050565b60006020820190508181036000830152614e8681614e4a565b9050919050565b7f696e73756666696369656e742062616c616e6365000000000000000000000000600082015250565b6000614ec3601483614501565b9150614ece82614e8d565b602082019050919050565b60006020820190508181036000830152614ef281614eb6565b9050919050565b7f4e487b7100000000000000000000000000000000000000000000000000000000600052601160045260246000fd5b6000614f33826140b5565b9150614f3e836140b5565b925082821015614f5157614f50614ef9565b5b828203905092915050565b6000606082019050614f7160008301866144cc565b614f7e60208301856140bf565b614f8b60408301846144cc565b949350505050565b7f506f6c79676f6e00000000000000000000000000000000000000000000000000600082015250565b6000614fc9600783614501565b9150614fd482614f93565b602082019050919050565b60006060820190508181036000830152614ff881614fbc565b905061500760208301856140bf565b61501460408301846140bf565b9392505050565b7f6e6f7420612077696e6e6572206f6e20726f756e642073706573696669656400600082015250565b6000615051601f83614501565b915061505c8261501b565b602082019050919050565b6000602082019050818103600083015261508081615044565b9050919050565b600060808201905061509c6000830189614d10565b81810360208301526150af818789614d1f565b905081810360408301526150c4818587614d1f565b90506150d36060830184614d10565b979650505050505050565b7f4e487b7100000000000000000000000000000000000000000000000000000000600052602260045260246000fd5b6000600282049050600182168061512557607f821691505b60208210811415615139576151386150de565b5b50919050565b600061514a826140b5565b9150615155836140b5565b9250827fffffffffffffffffffffffffffffffffffffffffffffffffffffffffffffffff0382111561518a57615189614ef9565b5b828201905092915050565b6000819050919050565b60006151ba6151b56151b084615195565b614109565b614aaa565b9050919050565b6151ca8161519f565b82525050565b60006080820190506151e560008301876144cc565b6151f260208301866140bf565b6151ff60408301856144cc565b61520c60608301846151c1565b95945050505050565b7f6e6f207573657273206465706f73697421000000000000000000000000000000600082015250565b600061524b601183614501565b915061525682615215565b602082019050919050565b6000602082019050818103600083015261527a8161523e565b9050919050565b7f4e487b7100000000000000000000000000000000000000000000000000000000600052603260045260246000fd5b60006152bb826140b5565b91507fffffffffffffffffffffffffffffffffffffffffffffffffffffffffffffffff8214156152ee576152ed614ef9565b5b600182019050919050565b6000615304826140b5565b915061530f836140b5565b9250817fffffffffffffffffffffffffffffffffffffffffffffffffffffffffffffffff048311821515161561534857615347614ef9565b5b828202905092915050565b7f4e487b7100000000000000000000000000000000000000000000000000000000600052601260045260246000fd5b600061538d826140b5565b9150615398836140b5565b9250826153a8576153a7615353565b5b828204905092915050565b600060a082840312156153c9576153c86149cf565b5b6153d360a0614663565b905060006153e3848285016147a1565b60008301525060206153f78482850161429f565b602083015250604061540b8482850161429f565b604083015250606061541f8482850161429f565b60608301525060806154338482850161429f565b60808301525092915050565b600060a082840312156154555761545461418d565b5b6000615463848285016153b3565b91505092915050565b60006020820190508181036000830152615487818486614d1f565b90509392505050565b6000602082840312156154a6576154a561418d565b5b60006154b484828501614ae4565b91505092915050565b600060608201905081810360008301526154d8818688614d1f565b90506154e760208301856140bf565b6154f460408301846140bf565b95945050505050565b7f5265656e7472616e637947756172643a207265656e7472616e742063616c6c00600082015250565b6000615533601f83614501565b915061553e826154fd565b602082019050919050565b6000602082019050818103600083015261556281615526565b9050919050565b600060408201905061557e60008301856144cc565b61558b60208301846140bf565b9392505050565b60006060820190506155a760008301866144cc565b6155b460208301856144cc565b6155c160408301846140bf565b949350505050565b60006040820190506155de60008301856144cc565b6155eb60208301846144cc565b9392505050565b7f5361666545524332303a20617070726f76652066726f6d206e6f6e2d7a65726f60008201527f20746f206e6f6e2d7a65726f20616c6c6f77616e636500000000000000000000602082015250565b600061564e603683614501565b9150615659826155f2565b604082019050919050565b6000602082019050818103600083015261567d81615641565b9050919050565b6000819050919050565b600061569982615684565b91506156a483615684565b9250827f8000000000000000000000000000000000000000000000000000000000000000018212600084121516156156df576156de614ef9565b5b827f7fffffffffffffffffffffffffffffffffffffffffffffffffffffffffffffff01821360008412161561571757615716614ef9565b5b828203905092915050565b600061572d82615684565b915061573883615684565b92508261574857615747615353565b5b600160000383147f80000000000000000000000000000000000000000000000000000000000000008314161561578157615780614ef9565b5b828205905092915050565b600061579782615684565b91506157a283615684565b9250817f7fffffffffffffffffffffffffffffffffffffffffffffffffffffffffffffff038313600083121516156157dd576157dc614ef9565b5b817f800000000000000000000000000000000000000000000000000000000000000003831260008312161561581557615814614ef9565b5b828201905092915050565b600061582b82615684565b91507f7fffffffffffffffffffffffffffffffffffffffffffffffffffffffffffffff82141561585e5761585d614ef9565b5b600182019050919050565b600061587482615684565b91507f80000000000000000000000000000000000000000000000000000000000000008214156158a7576158a6614ef9565b5b600182039050919050565b60006158bd826140b5565b91506158c8836140b5565b9250826158d8576158d7615353565b5b828206905092915050565b7f696e73756666696369656e742062616c616e6365206f6e20636f6e7472616374600082015250565b6000615919602083614501565b9150615924826158e3565b602082019050919050565b600060208201905081810360008301526159488161590c565b9050919050565b7f696e73756666696369656e742062616c616e6365200000000000000000000000600082015250565b6000615985601583614501565b91506159908261594f565b602082019050919050565b600060208201905081810360008301526159b481615978565b9050919050565b7f5361666545524332303a204552433230206f7065726174696f6e20646964206e60008201527f6f74207375636365656400000000000000000000000000000000000000000000602082015250565b6000615a17602a83614501565b9150615a22826159bb565b604082019050919050565b60006020820190508181036000830152615a4681615a0a565b9050919050565b60008190508160005260206000209050919050565b60008154615a6f8161510d565b615a798186614501565b94506001821660008114615a945760018114615aa657615ad9565b60ff1983168652602086019350615ad9565b615aaf85615a4d565b60005b83811015615ad157815481890152600182019150602081019050615ab2565b808801955050505b50505092915050565b60006020820190508181036000830152615afc8184615a62565b905092915050565b600081519050919050565b600082825260208201905092915050565b6000819050602082019050919050565b615b39816144ba565b82525050565b6000615b4b8383615b30565b60208301905092915050565b6000602082019050919050565b6000615b6f82615b04565b615b798185615b0f565b9350615b8483615b20565b8060005b83811015615bb5578151615b9c8882615b3f565b9750615ba783615b57565b925050600181019050615b88565b5085935050505092915050565b6000606082019050615bd760008301866140bf565b8181036020830152615be98185615b64565b9050615bf860408301846144cc565b949350505050565b600081519050919050565b600082825260208201905092915050565b6000615c2782615c00565b615c318185615c0b565b9350615c41818560208601614512565b615c4a81614545565b840191505092915050565b600060e082019050615c6a600083018a6144cc565b8181036020830152615c7c8189614556565b90508181036040830152615c908188614556565b90508181036060830152615ca48187615c1c565b90508181036080830152615cb88186614556565b9050615cc760a08301856140bf565b615cd460c08301846144cc565b98975050505050505050565b600060a0820190508181036000830152615cfa8188614556565b90508181036020830152615d0e8187614556565b90508181036040830152615d228186615c1c565b90508181036060830152615d368185614556565b9050615d4560808301846140bf565b9695505050505050565b7f416464726573733a20696e73756666696369656e742062616c616e636520666f60008201527f722063616c6c0000000000000000000000000000000000000000000000000000602082015250565b6000615dab602683614501565b9150615db682615d4f565b604082019050919050565b60006020820190508181036000830152615dda81615d9e565b9050919050565b6000615dec82615c00565b615df68185614cb8565b9350615e06818560208601614512565b80840191505092915050565b6000615e1e8284615de1565b915081905092915050565b7f416464726573733a2063616c6c20746f206e6f6e2d636f6e7472616374000000600082015250565b6000615e5f601d83614501565b9150615e6a82615e29565b602082019050919050565b60006020820190508181036000830152615e8e81615e52565b905091905056fea264697066735822122063889980d2c8df38e57136ea0db73098fa6a273cb97943ab464c9f7b1dba925f64736f6c63430008090033","abi":[{"inputs":[{"internalType":"address","name":"_gateway","type":"address"},{"internalType":"address","name":"_gasReceiver","type":"address"},{"internalType":"address","name":"_usdc","type":"address"},{"internalType":"address","name":"_aToken","type":"address"},{"internalType":"address","name":"_poolUsdc","type":"address"},{"internalType":"address","name":"_univRouter","type":"address"},{"internalType":"address","name":"_wmatic","type":"address"}],"stateMutability":"nonpayable","type":"constructor"},{"inputs":[],"name":"InvalidAddress","type":"error"},{"inputs":[],"name":"NotApprovedByGateway","type":"error"},{"anonymous":false,"inputs":[{"indexed":true,"internalType":"address","name":"_from","type":"address"},{"indexed":false,"internalType":"string","name":"_fromChain","type":"string"},{"indexed":false,"internalType":"uint256","name":"_roubndId","type":"uint256"},{"indexed":false,"internalType":"uint256","name":"_amount","type":"uint256"}],"name":"_claim","type":"event"},{"anonymous":false,"inputs":[{"indexed":true,"internalType":"address","name":"_from","type":"address"},{"indexed":false,"internalType":"string","name":"_fromChain","type":"string"},{"indexed":false,"internalType":"uint256","name":"_roundId","type":"uint256"},{"indexed":false,"internalType":"uint256","name":"_amount","type":"uint256"}],"name":"_deposit","type":"event"},{"anonymous":false,"inputs":[{"indexed":true,"internalType":"address","name":"_from","type":"address"},{"indexed":false,"internalType":"string","name":"_fromChain","type":"string"},{"indexed":false,"internalType":"uint256","name":"_roundId","type":"uint256"},{"indexed":false,"internalType":"uint256","name":"_amount","type":"uint256"}],"name":"_withdraw","type":"event"},{"stateMutability":"payable","type":"fallback"},{"inputs":[],"name":"MIN_DEPOSIT_DURATION","outputs":[{"internalType":"uint256","name":"","type":"uint256"}],"stateMutability":"view","type":"function"},{"inputs":[],"name":"MIN_DURATION_PER_ROUND","outputs":[{"internalType":"uint256","name":"","type":"uint256"}],"stateMutability":"view","type":"function"},{"inputs":[],"name":"axlUSDC","outputs":[{"internalType":"string","name":"","type":"string"}],"stateMutability":"view","type":"function"},{"inputs":[{"internalType":"uint256","name":"_roundId","type":"uint256"}],"name":"claim","outputs":[],"stateMutability":"nonpayable","type":"function"},{"inputs":[{"internalType":"uint256[]","name":"_randomWords","type":"uint256[]"}],"name":"completeRound","outputs":[],"stateMutability":"nonpayable","type":"function"},{"inputs":[{"internalType":"uint256","name":"amount","type":"uint256"}],"name":"deposit","outputs":[],"stateMutability":"nonpayable","type":"function"},{"inputs":[{"internalType":"bytes32","name":"commandId","type":"bytes32"},{"internalType":"string","name":"sourceChain","type":"string"},{"internalType":"string","name":"sourceAddress","type":"string"},{"internalType":"bytes","name":"payload","type":"bytes"}],"name":"execute","outputs":[],"stateMutability":"nonpayable","type":"function"},{"inputs":[{"internalType":"bytes32","name":"commandId","type":"bytes32"},{"internalType":"string","name":"sourceChain","type":"string"},{"internalType":"string","name":"sourceAddress","type":"string"},{"internalType":"bytes","name":"payload","type":"bytes"},{"internalType":"string","name":"tokenSymbol","type":"string"},{"internalType":"uint256","name":"amount","type":"uint256"}],"name":"executeWithToken","outputs":[],"stateMutability":"nonpayable","type":"function"},{"inputs":[],"name":"gateway","outputs":[{"internalType":"contract IAxelarGateway","name":"","type":"address"}],"stateMutability":"view","type":"function"},{"inputs":[],"name":"getClaimablePrize","outputs":[{"internalType":"uint256","name":"","type":"uint256"}],"stateMutability":"view","type":"function"},{"inputs":[{"internalType":"address","name":"user","type":"address"}],"name":"getUserData","outputs":[{"components":[{"internalType":"bool","name":"isEntity","type":"bool"},{"internalType":"uint256","name":"balance","type":"uint256"},{"internalType":"uint256","name":"oddUpdate","type":"uint256"},{"internalType":"uint256","name":"depositDate","type":"uint256"},{"components":[{"internalType":"uint256","name":"roundId","type":"uint256"},{"internalType":"uint256","name":"prize","type":"uint256"},{"internalType":"bool","name":"isClaim","type":"bool"}],"internalType":"struct Types.DetailWin[]","name":"listWin","type":"tuple[]"}],"internalType":"struct Types.UserData","name":"","type":"tuple"}],"stateMutability":"view","type":"function"},{"inputs":[{"internalType":"uint256","name":"","type":"uint256"}],"name":"listUserData","outputs":[{"internalType":"address","name":"","type":"address"}],"stateMutability":"view","type":"function"},{"inputs":[],"name":"prizes","outputs":[{"internalType":"uint256","name":"","type":"uint256"}],"stateMutability":"view","type":"function"},{"inputs":[],"name":"roundId","outputs":[{"internalType":"uint256","name":"","type":"uint256"}],"stateMutability":"view","type":"function"},{"inputs":[],"name":"totalDeposit","outputs":[{"internalType":"uint256","name":"","type":"uint256"}],"stateMutability":"view","type":"function"},{"inputs":[{"internalType":"address","name":"","type":"address"}],"name":"userData","outputs":[{"internalType":"bool","name":"isEntity","type":"bool"},{"internalType":"uint256","name":"balance","type":"uint256"},{"internalType":"uint256","name":"oddUpdate","type":"uint256"},{"internalType":"uint256","name":"depositDate","type":"uint256"}],"stateMutability":"view","type":"function"},{"inputs":[{"internalType":"uint256","name":"","type":"uint256"}],"name":"weightedBalanceUser","outputs":[{"internalType":"address","name":"","type":"address"}],"stateMutability":"view","type":"function"},{"inputs":[{"internalType":"uint256","name":"","type":"uint256"}],"name":"winners","outputs":[{"internalType":"bool","name":"isEntity","type":"bool"},{"internalType":"address","name":"winner","type":"address"},{"internalType":"uint256","name":"prize","type":"uint256"}],"stateMutability":"view","type":"function"},{"inputs":[{"internalType":"uint256","name":"amount","type":"uint256"}],"name":"withdraw","outputs":[],"stateMutability":"nonpayable","type":"function"},{"inputs":[],"name":"wmatic","outputs":[{"internalType":"address","name":"","type":"address"}],"stateMutability":"view","type":"function"},{"stateMutability":"payable","type":"receive"}]}