{"address":"0x0D81E5BA7B787e5F005590EC3d3f4D4Ec27cAf8d","bytecode":"0x60a06040526040518060400160405280600581526020017f615553444300000000000000000000000000000000000000000000000000000081525060069080519060200190620000519291906200031f565b506298968060085542600d5562015180426200006e919062000408565b600e553480156200007e57600080fd5b50604051620064ee380380620064ee8339818101604052810190620000a49190620004cf565b87600073ffffffffffffffffffffffffffffffffffffffff168173ffffffffffffffffffffffffffffffffffffffff1614156200010d576040517fe6c4247b00000000000000000000000000000000000000000000000000000000815260040160405180910390fd5b8073ffffffffffffffffffffffffffffffffffffffff1660808173ffffffffffffffffffffffffffffffffffffffff168152505050600160008190555086600160006101000a81548173ffffffffffffffffffffffffffffffffffffffff021916908373ffffffffffffffffffffffffffffffffffffffff16021790555082600c60006101000a81548173ffffffffffffffffffffffffffffffffffffffff021916908373ffffffffffffffffffffffffffffffffffffffff16021790555085600360006101000a81548173ffffffffffffffffffffffffffffffffffffffff021916908373ffffffffffffffffffffffffffffffffffffffff16021790555084600460006101000a81548173ffffffffffffffffffffffffffffffffffffffff021916908373ffffffffffffffffffffffffffffffffffffffff16021790555083600560006101000a81548173ffffffffffffffffffffffffffffffffffffffff021916908373ffffffffffffffffffffffffffffffffffffffff16021790555081600260006101000a81548173ffffffffffffffffffffffffffffffffffffffff021916908373ffffffffffffffffffffffffffffffffffffffff16021790555080600760006101000a81548173ffffffffffffffffffffffffffffffffffffffff021916908373ffffffffffffffffffffffffffffffffffffffff1602179055505050505050505050620005fd565b8280546200032d90620005c7565b90600052602060002090601f0160209004810192826200035157600085556200039d565b82601f106200036c57805160ff19168380011785556200039d565b828001600101855582156200039d579182015b828111156200039c5782518255916020019190600101906200037f565b5b509050620003ac9190620003b0565b5090565b5b80821115620003cb576000816000905550600101620003b1565b5090565b6000819050919050565b7f4e487b7100000000000000000000000000000000000000000000000000000000600052601160045260246000fd5b60006200041582620003cf565b91506200042283620003cf565b9250827fffffffffffffffffffffffffffffffffffffffffffffffffffffffffffffffff038211156200045a5762000459620003d9565b5b828201905092915050565b600080fd5b600073ffffffffffffffffffffffffffffffffffffffff82169050919050565b600062000497826200046a565b9050919050565b620004a9816200048a565b8114620004b557600080fd5b50565b600081519050620004c9816200049e565b92915050565b600080600080600080600080610100898b031215620004f357620004f262000465565b5b6000620005038b828c01620004b8565b9850506020620005168b828c01620004b8565b9750506040620005298b828c01620004b8565b96505060606200053c8b828c01620004b8565b95505060806200054f8b828c01620004b8565b94505060a0620005628b828c01620004b8565b93505060c0620005758b828c01620004b8565b92505060e0620005888b828c01620004b8565b9150509295985092959890939650565b7f4e487b7100000000000000000000000000000000000000000000000000000000600052602260045260246000fd5b60006002820490506001821680620005e057607f821691505b60208210811415620005f757620005f662000598565b5b50919050565b608051615e9d620006516000396000818161077b015281816107c101528181610ad301528181611f3c015281816134de0152818161372c015281816138aa01528181613a210152613cf90152615e9d6000f3fe6080604052600436106101445760003560e01c80638cd221c9116100b6578063c89109131161006f578063c891091314610442578063d679f85a14610482578063e5295272146104bf578063f6153ccd146104fc578063fb41be1614610527578063ffc9896b146105525761014b565b80638cd221c9146103305780638da5cb5b1461035b578063a2fb117514610386578063a3e56fa8146103c5578063b6b55f25146103f0578063b7442c9f146104195761014b565b8063379607f511610108578063379607f514610222578063491606581461024b5780635b6b431d14610274578063653cb8351461029d5780637e87e4bf146102da5780638c3a4271146103055761014b565b80630e5447271461014d578063116191b61461017857806311cceaf6146101a35780631a98b2e0146101ce5780632a6c5176146101f75761014b565b3661014b57005b005b34801561015957600080fd5b5061016261058f565b60405161016f9190614053565b60405180910390f35b34801561018457600080fd5b5061018d610779565b60405161019a91906140ed565b60405180910390f35b3480156101af57600080fd5b506101b861079d565b6040516101c59190614053565b60405180910390f35b3480156101da57600080fd5b506101f560048036038101906101f09190614239565b6107a3565b005b34801561020357600080fd5b5061020c6108ce565b6040516102199190614053565b60405180910390f35b34801561022e57600080fd5b5061024960048036038101906102449190614349565b6108d5565b005b34801561025757600080fd5b50610272600480360381019061026d9190614376565b610ab5565b005b34801561028057600080fd5b5061029b60048036038101906102969190614349565b610bd4565b005b3480156102a957600080fd5b506102c460048036038101906102bf9190614349565b61101d565b6040516102d19190614460565b60405180910390f35b3480156102e657600080fd5b506102ef611050565b6040516102fc9190614053565b60405180910390f35b34801561031157600080fd5b5061031a611056565b6040516103279190614514565b60405180910390f35b34801561033c57600080fd5b506103456110e4565b6040516103529190614053565b60405180910390f35b34801561036757600080fd5b506103706110ea565b60405161037d9190614460565b60405180910390f35b34801561039257600080fd5b506103ad60048036038101906103a89190614349565b611110565b6040516103bc93929190614551565b60405180910390f35b3480156103d157600080fd5b506103da611167565b6040516103e79190614460565b60405180910390f35b3480156103fc57600080fd5b5061041760048036038101906104129190614349565b61118d565b005b34801561042557600080fd5b50610440600480360381019061043b91906146c6565b611661565b005b34801561044e57600080fd5b506104696004803603810190610464919061473b565b611b7d565b6040516104799493929190614768565b60405180910390f35b34801561048e57600080fd5b506104a960048036038101906104a49190614349565b611bba565b6040516104b6919061481c565b60405180910390f35b3480156104cb57600080fd5b506104e660048036038101906104e19190614349565b611cc7565b6040516104f39190614460565b60405180910390f35b34801561050857600080fd5b50610511611d06565b60405161051e9190614053565b60405180910390f35b34801561053357600080fd5b5061053c611d0c565b6040516105499190614460565b60405180910390f35b34801561055e57600080fd5b506105796004803603810190610574919061473b565b611d32565b604051610586919061499e565b60405180910390f35b600080600560009054906101000a900473ffffffffffffffffffffffffffffffffffffffff1673ffffffffffffffffffffffffffffffffffffffff166335ea6a75600360009054906101000a900473ffffffffffffffffffffffffffffffffffffffff166040518263ffffffff1660e01b815260040161060f9190614460565b6101e06040518083038186803b15801561062857600080fd5b505afa15801561063c573d6000803e3d6000fd5b505050506040513d601f19601f820116820180604052508101906106609190614c4e565b90506000600460009054906101000a900473ffffffffffffffffffffffffffffffffffffffff1673ffffffffffffffffffffffffffffffffffffffff16631da24f3e306040518263ffffffff1660e01b81526004016106bf9190614460565b60206040518083038186803b1580156106d757600080fd5b505afa1580156106eb573d6000803e3d6000fd5b505050506040513d601f19601f8201168201806040525081019061070f9190614c7c565b9050600061076e600a546107606b033b2e3c9fd0803ce800000061075287602001516fffffffffffffffffffffffffffffffff1687611ee390919063ffffffff16565b611ef990919063ffffffff16565b611f0f90919063ffffffff16565b905080935050505090565b7f000000000000000000000000000000000000000000000000000000000000000081565b60095481565b600085856040516107b5929190614ce8565b604051809103902090507f000000000000000000000000000000000000000000000000000000000000000073ffffffffffffffffffffffffffffffffffffffff16631876eed98c8c8c8c8c878b8b8b6040518a63ffffffff1660e01b815260040161082899989796959493929190614d3d565b602060405180830381600087803b15801561084257600080fd5b505af1158015610856573d6000803e3d6000fd5b505050506040513d601f19601f8201168201806040525081019061087a9190614de5565b6108b0576040517f500c44b400000000000000000000000000000000000000000000000000000000815260040160405180910390fd5b6108c18a8a8a8a8a8a8a8a8a611f25565b5050505050505050505050565b6201518081565b80336011600083815260200190815260200160002060000160009054906101000a900460ff1661093a576040517f08c379a000000000000000000000000000000000000000000000000000000000815260040161093190614e5e565b60405180910390fd5b8073ffffffffffffffffffffffffffffffffffffffff166011600084815260200190815260200160002060000160019054906101000a900473ffffffffffffffffffffffffffffffffffffffff1673ffffffffffffffffffffffffffffffffffffffff16146109de576040517f08c379a00000000000000000000000000000000000000000000000000000000081526004016109d590614ef0565b60405180910390fd5b6109e66122c4565b60006011600085815260200190815260200160002060010154905060116000858152602001908152602001600020600080820160006101000a81549060ff02191690556000820160016101000a81549073ffffffffffffffffffffffffffffffffffffffff021916905560018201600090555050610aa73382600360009054906101000a900473ffffffffffffffffffffffffffffffffffffffff1673ffffffffffffffffffffffffffffffffffffffff166123149092919063ffffffff16565b50610ab061239a565b505050565b60008282604051610ac7929190614ce8565b604051809103902090507f000000000000000000000000000000000000000000000000000000000000000073ffffffffffffffffffffffffffffffffffffffff16635f6970c38989898989876040518763ffffffff1660e01b8152600401610b3496959493929190614f10565b602060405180830381600087803b158015610b4e57600080fd5b505af1158015610b62573d6000803e3d6000fd5b505050506040513d601f19601f82011682018060405250810190610b869190614de5565b610bbc576040517f500c44b400000000000000000000000000000000000000000000000000000000815260040160405180910390fd5b610bca8787878787876123a4565b5050505050505050565b33601060008273ffffffffffffffffffffffffffffffffffffffff1673ffffffffffffffffffffffffffffffffffffffff16815260200190815260200160002060000160009054906101000a900460ff16610c64576040517f08c379a0000000000000000000000000000000000000000000000000000000008152600401610c5b90614e5e565b60405180910390fd5b610c6c6122c4565b81601060003373ffffffffffffffffffffffffffffffffffffffff1673ffffffffffffffffffffffffffffffffffffffff168152602001908152602001600020600101541015610cf1576040517f08c379a0000000000000000000000000000000000000000000000000000000008152600401610ce890614fb3565b60405180910390fd5b81600a6000828254610d039190615002565b92505081905550600560009054906101000a900473ffffffffffffffffffffffffffffffffffffffff1673ffffffffffffffffffffffffffffffffffffffff166369328dec600360009054906101000a900473ffffffffffffffffffffffffffffffffffffffff1684306040518463ffffffff1660e01b8152600401610d8b93929190615036565b602060405180830381600087803b158015610da557600080fd5b505af1158015610db9573d6000803e3d6000fd5b505050506040513d601f19601f82011682018060405250810190610ddd9190614c7c565b506000610e0d610dfe610def336123ac565b85611ee390919063ffffffff16565b84611f0f90919063ffffffff16565b905082601060003373ffffffffffffffffffffffffffffffffffffffff1673ffffffffffffffffffffffffffffffffffffffff1681526020019081526020016000206001016000828254610e619190615002565b925050819055506000601060003373ffffffffffffffffffffffffffffffffffffffff1673ffffffffffffffffffffffffffffffffffffffff168152602001908152602001600020600101541415610fc357601060003373ffffffffffffffffffffffffffffffffffffffff1673ffffffffffffffffffffffffffffffffffffffff168152602001908152602001600020600080820160006101000a81549060ff0219169055600182016000905560028201600090556003820160009055600482016000610f2f9190613f71565b5050610fc133600f805480602002602001604051908101604052809291908181526020018280548015610fb757602002820191906000526020600020905b8160009054906101000a900473ffffffffffffffffffffffffffffffffffffffff1673ffffffffffffffffffffffffffffffffffffffff1681526020019060010190808311610f6d575b5050505050612434565b505b6110103382600360009054906101000a900473ffffffffffffffffffffffffffffffffffffffff1673ffffffffffffffffffffffffffffffffffffffff166123149092919063ffffffff16565b5061101961239a565b5050565b60126020528060005260406000206000915054906101000a900473ffffffffffffffffffffffffffffffffffffffff1681565b61025881565b600680546110639061509c565b80601f016020809104026020016040519081016040528092919081815260200182805461108f9061509c565b80156110dc5780601f106110b1576101008083540402835291602001916110dc565b820191906000526020600020905b8154815290600101906020018083116110bf57829003601f168201915b505050505081565b60085481565b600b60009054906101000a900473ffffffffffffffffffffffffffffffffffffffff1681565b60116020528060005260406000206000915090508060000160009054906101000a900460ff16908060000160019054906101000a900473ffffffffffffffffffffffffffffffffffffffff16908060010154905083565b600c60009054906101000a900473ffffffffffffffffffffffffffffffffffffffff1681565b6111956122c4565b80600360009054906101000a900473ffffffffffffffffffffffffffffffffffffffff1673ffffffffffffffffffffffffffffffffffffffff166370a08231336040518263ffffffff1660e01b81526004016111f19190614460565b60206040518083038186803b15801561120957600080fd5b505afa15801561121d573d6000803e3d6000fd5b505050506040513d601f19601f820116820180604052508101906112419190614c7c565b1015611282576040517f08c379a00000000000000000000000000000000000000000000000000000000081526004016112799061511a565b60405180910390fd5b80600a6000828254611294919061513a565b92505081905550601060003373ffffffffffffffffffffffffffffffffffffffff1673ffffffffffffffffffffffffffffffffffffffff16815260200190815260200160002060000160009054906101000a900460ff161561134e5780601060003373ffffffffffffffffffffffffffffffffffffffff1673ffffffffffffffffffffffffffffffffffffffff1681526020019081526020016000206001016000828254611342919061513a565b925050819055506114e2565b6001601060003373ffffffffffffffffffffffffffffffffffffffff1673ffffffffffffffffffffffffffffffffffffffff16815260200190815260200160002060000160006101000a81548160ff02191690831515021790555080601060003373ffffffffffffffffffffffffffffffffffffffff1673ffffffffffffffffffffffffffffffffffffffff1681526020019081526020016000206001018190555042601060003373ffffffffffffffffffffffffffffffffffffffff1673ffffffffffffffffffffffffffffffffffffffff1681526020019081526020016000206002018190555042601060003373ffffffffffffffffffffffffffffffffffffffff1673ffffffffffffffffffffffffffffffffffffffff16815260200190815260200160002060030181905550600f339080600181540180825580915050600190039060005260206000200160009091909190916101000a81548173ffffffffffffffffffffffffffffffffffffffff021916908373ffffffffffffffffffffffffffffffffffffffff1602179055505b611531333083600360009054906101000a900473ffffffffffffffffffffffffffffffffffffffff1673ffffffffffffffffffffffffffffffffffffffff166124ef909392919063ffffffff16565b6115a0600560009054906101000a900473ffffffffffffffffffffffffffffffffffffffff1682600360009054906101000a900473ffffffffffffffffffffffffffffffffffffffff1673ffffffffffffffffffffffffffffffffffffffff166125789092919063ffffffff16565b600560009054906101000a900473ffffffffffffffffffffffffffffffffffffffff1673ffffffffffffffffffffffffffffffffffffffff1663617ba037600360009054906101000a900473ffffffffffffffffffffffffffffffffffffffff16833060006040518563ffffffff1660e01b815260040161162494939291906151cb565b600060405180830381600087803b15801561163e57600080fd5b505af1158015611652573d6000803e3d6000fd5b5050505061165e61239a565b50565b6116696122c4565b6000600f80549050116116b1576040517f08c379a00000000000000000000000000000000000000000000000000000000081526004016116a89061525c565b60405180910390fd5b6000600f8054905067ffffffffffffffff8111156116d2576116d1614588565b5b6040519080825280602002602001820160405280156117005781602001602082028036833780820191505090505b50905060005b600f805490508110156118f957600061183360106000600f85815481106117305761172f61527c565b5b9060005260206000200160009054906101000a900473ffffffffffffffffffffffffffffffffffffffff1673ffffffffffffffffffffffffffffffffffffffff1673ffffffffffffffffffffffffffffffffffffffff16815260200190815260200160002060020154426117a49190615002565b60106000600f86815481106117bc576117bb61527c565b5b9060005260206000200160009054906101000a900473ffffffffffffffffffffffffffffffffffffffff1673ffffffffffffffffffffffffffffffffffffffff1673ffffffffffffffffffffffffffffffffffffffff168152602001908152602001600020600101546126d690919063ffffffff16565b9050808383815181106118495761184861527c565b5b602002602001018181525050600f82815481106118695761186861527c565b5b9060005260206000200160009054906101000a900473ffffffffffffffffffffffffffffffffffffffff166012600083815260200190815260200160002060006101000a81548173ffffffffffffffffffffffffffffffffffffffff021916908373ffffffffffffffffffffffffffffffffffffffff1602179055505080806118f1906152ab565b915050611706565b506119138160006001845161190e9190615002565b6126ec565b905060006119608260008151811061192e5761192d61527c565b5b60200260200101518460008151811061194a5761194961527c565b5b602002602001015161289490919063ffffffff16565b9050600061197e836000600186516119789190615002565b856128aa565b90506000601260008584815181106119995761199861527c565b5b6020026020010151815260200190815260200160002060009054906101000a900473ffffffffffffffffffffffffffffffffffffffff16905060006119dc61058f565b905060405180606001604052806001151581526020018373ffffffffffffffffffffffffffffffffffffffff1681526020018281525060116000600854815260200190815260200160002060008201518160000160006101000a81548160ff02191690831515021790555060208201518160000160016101000a81548173ffffffffffffffffffffffffffffffffffffffff021916908373ffffffffffffffffffffffffffffffffffffffff16021790555060408201518160010155905050601060008373ffffffffffffffffffffffffffffffffffffffff1673ffffffffffffffffffffffffffffffffffffffff16815260200190815260200160002060040160405180606001604052806008548152602001838152602001600015158152509080600181540180825580915050600190039060005260206000209060030201600090919091909150600082015181600001556020820151816001015560408201518160020160006101000a81548160ff0219169083151502179055505050611b64612998565b611b6c612a7b565b505050505050611b7a61239a565b50565b60106020528060005260406000206000915090508060000160009054906101000a900460ff16908060010154908060020154908060030154905084565b611bc2613f95565b816011600082815260200190815260200160002060000160009054906101000a900460ff16611c26576040517f08c379a0000000000000000000000000000000000000000000000000000000008152600401611c1d90614e5e565b60405180910390fd5b601160008481526020019081526020016000206040518060600160405290816000820160009054906101000a900460ff161515151581526020016000820160019054906101000a900473ffffffffffffffffffffffffffffffffffffffff1673ffffffffffffffffffffffffffffffffffffffff1673ffffffffffffffffffffffffffffffffffffffff168152602001600182015481525050915050919050565b600f8181548110611cd757600080fd5b906000526020600020016000915054906101000a900473ffffffffffffffffffffffffffffffffffffffff1681565b600a5481565b600760009054906101000a900473ffffffffffffffffffffffffffffffffffffffff1681565b611d3a613fce565b81601060008273ffffffffffffffffffffffffffffffffffffffff1673ffffffffffffffffffffffffffffffffffffffff16815260200190815260200160002060000160009054906101000a900460ff16611dca576040517f08c379a0000000000000000000000000000000000000000000000000000000008152600401611dc190614e5e565b60405180910390fd5b601060008473ffffffffffffffffffffffffffffffffffffffff1673ffffffffffffffffffffffffffffffffffffffff1681526020019081526020016000206040518060a00160405290816000820160009054906101000a900460ff1615151515815260200160018201548152602001600282015481526020016003820154815260200160048201805480602002602001604051908101604052809291908181526020016000905b82821015611ed3578382906000526020600020906003020160405180606001604052908160008201548152602001600182015481526020016002820160009054906101000a900460ff16151515158152505081526020019060010190611e72565b5050505081525050915050919050565b60008183611ef191906152f4565b905092915050565b60008183611f07919061537d565b905092915050565b60008183611f1d9190615002565b905092915050565b60008585810190611f36919061543a565b905060007f000000000000000000000000000000000000000000000000000000000000000073ffffffffffffffffffffffffffffffffffffffff1663935b13f686866040518363ffffffff1660e01b8152600401611f95929190615467565b60206040518083038186803b158015611fad57600080fd5b505afa158015611fc1573d6000803e3d6000fd5b505050506040513d601f19601f82011682018060405250810190611fe5919061548b565b905060008260400151141561200b5761200682600001518360200151612abb565b6122b7565b6001826040015114156121625760006040518060e0016040528084602001518152602001846000015173ffffffffffffffffffffffffffffffffffffffff1681526020018373ffffffffffffffffffffffffffffffffffffffff168152602001846060015181526020018d8d8080601f016020809104026020016040519081016040528093929190818152602001838380828437600081840152601f19601f8201169050808301925050505050505081526020018b8b8080601f016020809104026020016040519081016040528093929190818152602001838380828437600081840152601f19601f82011690508083019250505050505050815260200187878080601f016020809104026020016040519081016040528093929190818152602001838380828437600081840152601f19601f82011690508083019250505050505050815250905061215c81612f31565b506122b6565b6002826040015114156122b55760006040518060e00160405280846000015173ffffffffffffffffffffffffffffffffffffffff168152602001846080015181526020018d8d8080601f016020809104026020016040519081016040528093929190818152602001838380828437600081840152601f19601f820116905080830192505050505050508152602001846060015181526020018373ffffffffffffffffffffffffffffffffffffffff1681526020018b8b8080601f016020809104026020016040519081016040528093929190818152602001838380828437600081840152601f19601f82011690508083019250505050505050815260200187878080601f016020809104026020016040519081016040528093929190818152602001838380828437600081840152601f19601f8201169050808301925050505050505081525090506122b38161353c565b505b5b5b5050505050505050505050565b6002600054141561230a576040517f08c379a000000000000000000000000000000000000000000000000000000000815260040161230190615504565b60405180910390fd5b6002600081905550565b6123958363a9059cbb60e01b8484604051602401612333929190615524565b604051602081830303815290604052907bffffffffffffffffffffffffffffffffffffffffffffffffffffffff19166020820180517bffffffffffffffffffffffffffffffffffffffffffffffffffffffff8381831617835250505050613909565b505050565b6001600081905550565b505050505050565b600080600390506000610258426123c39190615002565b601060008673ffffffffffffffffffffffffffffffffffffffff1673ffffffffffffffffffffffffffffffffffffffff1681526020019081526020016000206003015411612412576000612428565b6124276103e883611ef990919063ffffffff16565b5b90508092505050919050565b606060005b600183516124479190615002565b8110156124e5578373ffffffffffffffffffffffffffffffffffffffff168382815181106124785761247761527c565b5b602002602001015173ffffffffffffffffffffffffffffffffffffffff1614156124d2578281815181106124af576124ae61527c565b5b60200260200101600073ffffffffffffffffffffffffffffffffffffffff168152505b80806124dd906152ab565b915050612439565b5081905092915050565b612572846323b872dd60e01b8585856040516024016125109392919061554d565b604051602081830303815290604052907bffffffffffffffffffffffffffffffffffffffffffffffffffffffff19166020820180517bffffffffffffffffffffffffffffffffffffffffffffffffffffffff8381831617835250505050613909565b50505050565b6000811480612611575060008373ffffffffffffffffffffffffffffffffffffffff1663dd62ed3e30856040518363ffffffff1660e01b81526004016125bf929190615584565b60206040518083038186803b1580156125d757600080fd5b505afa1580156125eb573d6000803e3d6000fd5b505050506040513d601f19601f8201168201806040525081019061260f9190614c7c565b145b612650576040517f08c379a00000000000000000000000000000000000000000000000000000000081526004016126479061561f565b60405180910390fd5b6126d18363095ea7b360e01b848460405160240161266f929190615524565b604051602081830303815290604052907bffffffffffffffffffffffffffffffffffffffffffffffffffffffff19166020820180517bffffffffffffffffffffffffffffffffffffffffffffffffffffffff8381831617835250505050613909565b505050565b600081836126e4919061513a565b905092915050565b6060600083905060008390508082141561270a57859250505061288d565b6000866002878761271b9190615649565b61272591906156dd565b876127309190615747565b815181106127415761274061527c565b5b602002602001015190505b81831361285c575b808784815181106127685761276761527c565b5b60200260200101511015612789578280612781906157db565b935050612754565b5b86828151811061279d5761279c61527c565b5b60200260200101518110156127bf5781806127b790615824565b92505061278a565b818313612857578682815181106127d9576127d861527c565b5b60200260200101518784815181106127f4576127f361527c565b5b602002602001015188858151811061280f5761280e61527c565b5b602002602001018985815181106128295761282861527c565b5b60200260200101828152508281525050508280612845906157db565b935050818061285390615824565b9250505b61274c565b818612156128715761286f8787846126ec565b505b84831215612886576128848784876126ec565b505b8693505050505b9392505050565b600081836128a2919061586d565b905092915050565b600081856000815181106128c1576128c061527c565b5b602002602001015111156128d85760009050612990565b8185600187516128e89190615002565b815181106128f9576128f861527c565b5b6020026020010151101561291c57600185516129159190615002565b9050612990565b60005b83851161298b5760028486612934919061513a565b61293e919061537d565b9050828682815181106129545761295361527c565b5b602002602001015110156129765760018161296f9190615002565b9350612986565b600181612983919061513a565b94505b61291f565b809150505b949350505050565b60006129a261058f565b9050600560009054906101000a900473ffffffffffffffffffffffffffffffffffffffff1673ffffffffffffffffffffffffffffffffffffffff166369328dec600360009054906101000a900473ffffffffffffffffffffffffffffffffffffffff1683306040518463ffffffff1660e01b8152600401612a2593929190615036565b602060405180830381600087803b158015612a3f57600080fd5b505af1158015612a53573d6000803e3d6000fd5b505050506040513d601f19601f82011682018060405250810190612a779190614c7c565b5050565b600042600d8190555062015180600d54612a95919061513a565b600e8190555060086000815480929190612aae906152ab565b9190505550600854905090565b80600360009054906101000a900473ffffffffffffffffffffffffffffffffffffffff1673ffffffffffffffffffffffffffffffffffffffff166370a08231306040518263ffffffff1660e01b8152600401612b179190614460565b60206040518083038186803b158015612b2f57600080fd5b505afa158015612b43573d6000803e3d6000fd5b505050506040513d601f19601f82011682018060405250810190612b679190614c7c565b1015612ba8576040517f08c379a0000000000000000000000000000000000000000000000000000000008152600401612b9f90615910565b60405180910390fd5b80600a6000828254612bba919061513a565b92505081905550601060008373ffffffffffffffffffffffffffffffffffffffff1673ffffffffffffffffffffffffffffffffffffffff16815260200190815260200160002060000160009054906101000a900460ff1615612c745780601060008473ffffffffffffffffffffffffffffffffffffffff1673ffffffffffffffffffffffffffffffffffffffff1681526020019081526020016000206001016000828254612c68919061513a565b92505081905550612e08565b6001601060008473ffffffffffffffffffffffffffffffffffffffff1673ffffffffffffffffffffffffffffffffffffffff16815260200190815260200160002060000160006101000a81548160ff02191690831515021790555080601060008473ffffffffffffffffffffffffffffffffffffffff1673ffffffffffffffffffffffffffffffffffffffff1681526020019081526020016000206001018190555042601060008473ffffffffffffffffffffffffffffffffffffffff1673ffffffffffffffffffffffffffffffffffffffff1681526020019081526020016000206002018190555042601060008473ffffffffffffffffffffffffffffffffffffffff1673ffffffffffffffffffffffffffffffffffffffff16815260200190815260200160002060030181905550600f829080600181540180825580915050600190039060005260206000200160009091909190916101000a81548173ffffffffffffffffffffffffffffffffffffffff021916908373ffffffffffffffffffffffffffffffffffffffff1602179055505b612e77600560009054906101000a900473ffffffffffffffffffffffffffffffffffffffff1682600360009054906101000a900473ffffffffffffffffffffffffffffffffffffffff1673ffffffffffffffffffffffffffffffffffffffff166125789092919063ffffffff16565b600560009054906101000a900473ffffffffffffffffffffffffffffffffffffffff1673ffffffffffffffffffffffffffffffffffffffff1663617ba037600360009054906101000a900473ffffffffffffffffffffffffffffffffffffffff16833060006040518563ffffffff1660e01b8152600401612efb94939291906151cb565b600060405180830381600087803b158015612f1557600080fd5b505af1158015612f29573d6000803e3d6000fd5b505050505050565b8060200151601060008273ffffffffffffffffffffffffffffffffffffffff1673ffffffffffffffffffffffffffffffffffffffff16815260200190815260200160002060000160009054906101000a900460ff16612fc5576040517f08c379a0000000000000000000000000000000000000000000000000000000008152600401612fbc90614e5e565b60405180910390fd5b816000015160106000846020015173ffffffffffffffffffffffffffffffffffffffff1673ffffffffffffffffffffffffffffffffffffffff168152602001908152602001600020600101541015613052576040517f08c379a00000000000000000000000000000000000000000000000000000000081526004016130499061597c565b60405180910390fd5b8160000151600a60008282546130689190615002565b92505081905550600560009054906101000a900473ffffffffffffffffffffffffffffffffffffffff1673ffffffffffffffffffffffffffffffffffffffff166369328dec600360009054906101000a900473ffffffffffffffffffffffffffffffffffffffff168460000151306040518463ffffffff1660e01b81526004016130f493929190615036565b602060405180830381600087803b15801561310e57600080fd5b505af1158015613122573d6000803e3d6000fd5b505050506040513d601f19601f820116820180604052508101906131469190614c7c565b50600061318261316f61315c85602001516123ac565b8560000151611ee390919063ffffffff16565b8460000151611f0f90919063ffffffff16565b9050826000015160106000856020015173ffffffffffffffffffffffffffffffffffffffff1673ffffffffffffffffffffffffffffffffffffffff16815260200190815260200160002060010160008282546131de9190615002565b92505081905550600060106000856020015173ffffffffffffffffffffffffffffffffffffffff1673ffffffffffffffffffffffffffffffffffffffff16815260200190815260200160002060010154141561334c5760106000846020015173ffffffffffffffffffffffffffffffffffffffff1673ffffffffffffffffffffffffffffffffffffffff168152602001908152602001600020600080820160006101000a81549060ff02191690556001820160009055600282016000905560038201600090556004820160006132b49190613f71565b505061334a8360200151600f80548060200260200160405190810160405280929190818152602001828054801561334057602002820191906000526020600020905b8160009054906101000a900473ffffffffffffffffffffffffffffffffffffffff1673ffffffffffffffffffffffffffffffffffffffff16815260200190600101908083116132f6575b5050505050612434565b505b6133a1600260009054906101000a900473ffffffffffffffffffffffffffffffffffffffff168460600151856040015173ffffffffffffffffffffffffffffffffffffffff166125789092919063ffffffff16565b6133f6600260009054906101000a900473ffffffffffffffffffffffffffffffffffffffff168460600151856040015173ffffffffffffffffffffffffffffffffffffffff166123149092919063ffffffff16565b600061340584606001516139d0565b90506000846020015160405160200161341e9190614460565b604051602081830303815290604052905060006040518060e001604052803073ffffffffffffffffffffffffffffffffffffffff168152602001876080015181526020018760a0015181526020018381526020018760c001518152602001858152602001876020015173ffffffffffffffffffffffffffffffffffffffff16815250905060006040518060a00160405280886080015181526020018860a0015181526020018481526020018860c0015181526020018681525090506135287f000000000000000000000000000000000000000000000000000000000000000086896040015173ffffffffffffffffffffffffffffffffffffffff166125789092919063ffffffff16565b613533828286613c41565b50505050505050565b806020015181600001516011600083815260200190815260200160002060000160009054906101000a900460ff166135a9576040517f08c379a00000000000000000000000000000000000000000000000000000000081526004016135a090614e5e565b60405180910390fd5b8073ffffffffffffffffffffffffffffffffffffffff166011600084815260200190815260200160002060000160019054906101000a900473ffffffffffffffffffffffffffffffffffffffff1673ffffffffffffffffffffffffffffffffffffffff161461364d576040517f08c379a000000000000000000000000000000000000000000000000000000000815260040161364490614ef0565b60405180910390fd5b600060116000856020015181526020019081526020016000206001015490506136c1600260009054906101000a900473ffffffffffffffffffffffffffffffffffffffff168560600151866080015173ffffffffffffffffffffffffffffffffffffffff166125789092919063ffffffff16565b613716600260009054906101000a900473ffffffffffffffffffffffffffffffffffffffff168560600151866080015173ffffffffffffffffffffffffffffffffffffffff166123149092919063ffffffff16565b600061372585606001516139d0565b90506137767f000000000000000000000000000000000000000000000000000000000000000083876080015173ffffffffffffffffffffffffffffffffffffffff166125789092919063ffffffff16565b6011600086602001518152602001908152602001600020600080820160006101000a81549060ff02191690556000820160016101000a81549073ffffffffffffffffffffffffffffffffffffffff021916905560018201600090555050600085600001516040516020016137ea9190614460565b604051602081830303815290604052905060006040518060e001604052803073ffffffffffffffffffffffffffffffffffffffff168152602001886040015181526020018860a0015181526020018381526020018860c001518152602001858152602001886000015173ffffffffffffffffffffffffffffffffffffffff16815250905060006040518060a00160405280896040015181526020018960a0015181526020018481526020018960c0015181526020018681525090506138f47f0000000000000000000000000000000000000000000000000000000000000000868a6080015173ffffffffffffffffffffffffffffffffffffffff166125789092919063ffffffff16565b6138ff828286613c41565b5050505050505050565b600061396b826040518060400160405280602081526020017f5361666545524332303a206c6f772d6c6576656c2063616c6c206661696c65648152508573ffffffffffffffffffffffffffffffffffffffff16613da39092919063ffffffff16565b90506000815111156139cb578080602001905181019061398b9190614de5565b6139ca576040517f08c379a00000000000000000000000000000000000000000000000000000000081526004016139c190615a0e565b60405180910390fd5b5b505050565b600080600267ffffffffffffffff8111156139ee576139ed614588565b5b604051908082528060200260200182016040528015613a1c5781602001602082028036833780820191505090505b5090507f000000000000000000000000000000000000000000000000000000000000000073ffffffffffffffffffffffffffffffffffffffff1663935b13f660066040518263ffffffff1660e01b8152600401613a799190615ac3565b60206040518083038186803b158015613a9157600080fd5b505afa158015613aa5573d6000803e3d6000fd5b505050506040513d601f19601f82011682018060405250810190613ac9919061548b565b81600081518110613add57613adc61527c565b5b602002602001019073ffffffffffffffffffffffffffffffffffffffff16908173ffffffffffffffffffffffffffffffffffffffff1681525050600760009054906101000a900473ffffffffffffffffffffffffffffffffffffffff1681600181518110613b4e57613b4d61527c565b5b602002602001019073ffffffffffffffffffffffffffffffffffffffff16908173ffffffffffffffffffffffffffffffffffffffff1681525050600260009054906101000a900473ffffffffffffffffffffffffffffffffffffffff1673ffffffffffffffffffffffffffffffffffffffff1663ee037f5e8483306040518463ffffffff1660e01b8152600401613be793929190615b94565b602060405180830381600087803b158015613c0157600080fd5b505af1158015613c15573d6000803e3d6000fd5b505050506040513d601f19601f82011682018060405250810190613c399190614c7c565b915050919050565b600160009054906101000a900473ffffffffffffffffffffffffffffffffffffffff1673ffffffffffffffffffffffffffffffffffffffff1663c62c200282856000015186602001518760400151886060015189608001518a60a001518b60c001516040518963ffffffff1660e01b8152600401613cc59796959493929190615c27565b6000604051808303818588803b158015613cde57600080fd5b505af1158015613cf2573d6000803e3d6000fd5b50505050507f000000000000000000000000000000000000000000000000000000000000000073ffffffffffffffffffffffffffffffffffffffff1663b5417084836000015184602001518560400151866060015187608001516040518663ffffffff1660e01b8152600401613d6c959493929190615cb2565b600060405180830381600087803b158015613d8657600080fd5b505af1158015613d9a573d6000803e3d6000fd5b50505050505050565b6060613db28484600085613dbb565b90509392505050565b606082471015613e00576040517f08c379a0000000000000000000000000000000000000000000000000000000008152600401613df790615d93565b60405180910390fd5b6000808673ffffffffffffffffffffffffffffffffffffffff168587604051613e299190615de4565b60006040518083038185875af1925050503d8060008114613e66576040519150601f19603f3d011682016040523d82523d6000602084013e613e6b565b606091505b5091509150613e7c87838387613e88565b92505050949350505050565b60608315613eeb57600083511415613ee357613ea385613efe565b613ee2576040517f08c379a0000000000000000000000000000000000000000000000000000000008152600401613ed990615e47565b60405180910390fd5b5b829050613ef6565b613ef58383613f21565b5b949350505050565b6000808273ffffffffffffffffffffffffffffffffffffffff163b119050919050565b600082511115613f345781518083602001fd5b806040517f08c379a0000000000000000000000000000000000000000000000000000000008152600401613f689190614514565b60405180910390fd5b5080546000825560030290600052602060002090810190613f929190613fff565b50565b6040518060600160405280600015158152602001600073ffffffffffffffffffffffffffffffffffffffff168152602001600081525090565b6040518060a00160405280600015158152602001600081526020016000815260200160008152602001606081525090565b5b808211156140365760008082016000905560018201600090556002820160006101000a81549060ff021916905550600301614000565b5090565b6000819050919050565b61404d8161403a565b82525050565b60006020820190506140686000830184614044565b92915050565b600073ffffffffffffffffffffffffffffffffffffffff82169050919050565b6000819050919050565b60006140b36140ae6140a98461406e565b61408e565b61406e565b9050919050565b60006140c582614098565b9050919050565b60006140d7826140ba565b9050919050565b6140e7816140cc565b82525050565b600060208201905061410260008301846140de565b92915050565b6000604051905090565b600080fd5b600080fd5b6000819050919050565b61412f8161411c565b811461413a57600080fd5b50565b60008135905061414c81614126565b92915050565b600080fd5b600080fd5b600080fd5b60008083601f84011261417757614176614152565b5b8235905067ffffffffffffffff81111561419457614193614157565b5b6020830191508360018202830111156141b0576141af61415c565b5b9250929050565b60008083601f8401126141cd576141cc614152565b5b8235905067ffffffffffffffff8111156141ea576141e9614157565b5b6020830191508360018202830111156142065761420561415c565b5b9250929050565b6142168161403a565b811461422157600080fd5b50565b6000813590506142338161420d565b92915050565b60008060008060008060008060008060c08b8d03121561425c5761425b614112565b5b600061426a8d828e0161413d565b9a505060208b013567ffffffffffffffff81111561428b5761428a614117565b5b6142978d828e01614161565b995099505060408b013567ffffffffffffffff8111156142ba576142b9614117565b5b6142c68d828e01614161565b975097505060608b013567ffffffffffffffff8111156142e9576142e8614117565b5b6142f58d828e016141b7565b955095505060808b013567ffffffffffffffff81111561431857614317614117565b5b6143248d828e01614161565b935093505060a06143378d828e01614224565b9150509295989b9194979a5092959850565b60006020828403121561435f5761435e614112565b5b600061436d84828501614224565b91505092915050565b60008060008060008060006080888a03121561439557614394614112565b5b60006143a38a828b0161413d565b975050602088013567ffffffffffffffff8111156143c4576143c3614117565b5b6143d08a828b01614161565b9650965050604088013567ffffffffffffffff8111156143f3576143f2614117565b5b6143ff8a828b01614161565b9450945050606088013567ffffffffffffffff81111561442257614421614117565b5b61442e8a828b016141b7565b925092505092959891949750929550565b600061444a8261406e565b9050919050565b61445a8161443f565b82525050565b60006020820190506144756000830184614451565b92915050565b600081519050919050565b600082825260208201905092915050565b60005b838110156144b557808201518184015260208101905061449a565b838111156144c4576000848401525b50505050565b6000601f19601f8301169050919050565b60006144e68261447b565b6144f08185614486565b9350614500818560208601614497565b614509816144ca565b840191505092915050565b6000602082019050818103600083015261452e81846144db565b905092915050565b60008115159050919050565b61454b81614536565b82525050565b60006060820190506145666000830186614542565b6145736020830185614451565b6145806040830184614044565b949350505050565b7f4e487b7100000000000000000000000000000000000000000000000000000000600052604160045260246000fd5b6145c0826144ca565b810181811067ffffffffffffffff821117156145df576145de614588565b5b80604052505050565b60006145f2614108565b90506145fe82826145b7565b919050565b600067ffffffffffffffff82111561461e5761461d614588565b5b602082029050602081019050919050565b600061464261463d84614603565b6145e8565b905080838252602082019050602084028301858111156146655761466461415c565b5b835b8181101561468e578061467a8882614224565b845260208401935050602081019050614667565b5050509392505050565b600082601f8301126146ad576146ac614152565b5b81356146bd84826020860161462f565b91505092915050565b6000602082840312156146dc576146db614112565b5b600082013567ffffffffffffffff8111156146fa576146f9614117565b5b61470684828501614698565b91505092915050565b6147188161443f565b811461472357600080fd5b50565b6000813590506147358161470f565b92915050565b60006020828403121561475157614750614112565b5b600061475f84828501614726565b91505092915050565b600060808201905061477d6000830187614542565b61478a6020830186614044565b6147976040830185614044565b6147a46060830184614044565b95945050505050565b6147b681614536565b82525050565b6147c58161443f565b82525050565b6147d48161403a565b82525050565b6060820160008201516147f060008501826147ad565b50602082015161480360208501826147bc565b50604082015161481660408501826147cb565b50505050565b600060608201905061483160008301846147da565b92915050565b600081519050919050565b600082825260208201905092915050565b6000819050602082019050919050565b60608201600082015161487960008501826147cb565b50602082015161488c60208501826147cb565b50604082015161489f60408501826147ad565b50505050565b60006148b18383614863565b60608301905092915050565b6000602082019050919050565b60006148d582614837565b6148df8185614842565b93506148ea83614853565b8060005b8381101561491b57815161490288826148a5565b975061490d836148bd565b9250506001810190506148ee565b5085935050505092915050565b600060a08301600083015161494060008601826147ad565b50602083015161495360208601826147cb565b50604083015161496660408601826147cb565b50606083015161497960608601826147cb565b506080830151848203608086015261499182826148ca565b9150508091505092915050565b600060208201905081810360008301526149b88184614928565b905092915050565b600080fd5b6000815190506149d48161420d565b92915050565b6000602082840312156149f0576149ef6149c0565b5b6149fa60206145e8565b90506000614a0a848285016149c5565b60008301525092915050565b60006fffffffffffffffffffffffffffffffff82169050919050565b614a3b81614a16565b8114614a4657600080fd5b50565b600081519050614a5881614a32565b92915050565b600064ffffffffff82169050919050565b614a7881614a5e565b8114614a8357600080fd5b50565b600081519050614a9581614a6f565b92915050565b600061ffff82169050919050565b614ab281614a9b565b8114614abd57600080fd5b50565b600081519050614acf81614aa9565b92915050565b600081519050614ae48161470f565b92915050565b60006101e08284031215614b0157614b006149c0565b5b614b0c6101e06145e8565b90506000614b1c848285016149da565b6000830152506020614b3084828501614a49565b6020830152506040614b4484828501614a49565b6040830152506060614b5884828501614a49565b6060830152506080614b6c84828501614a49565b60808301525060a0614b8084828501614a49565b60a08301525060c0614b9484828501614a86565b60c08301525060e0614ba884828501614ac0565b60e083015250610100614bbd84828501614ad5565b61010083015250610120614bd384828501614ad5565b61012083015250610140614be984828501614ad5565b61014083015250610160614bff84828501614ad5565b61016083015250610180614c1584828501614a49565b610180830152506101a0614c2b84828501614a49565b6101a0830152506101c0614c4184828501614a49565b6101c08301525092915050565b60006101e08284031215614c6557614c64614112565b5b6000614c7384828501614aea565b91505092915050565b600060208284031215614c9257614c91614112565b5b6000614ca0848285016149c5565b91505092915050565b600081905092915050565b82818337600083830152505050565b6000614ccf8385614ca9565b9350614cdc838584614cb4565b82840190509392505050565b6000614cf5828486614cc3565b91508190509392505050565b614d0a8161411c565b82525050565b6000614d1c8385614486565b9350614d29838584614cb4565b614d32836144ca565b840190509392505050565b600060c082019050614d52600083018c614d01565b8181036020830152614d65818a8c614d10565b90508181036040830152614d7a81888a614d10565b9050614d896060830187614d01565b8181036080830152614d9c818587614d10565b9050614dab60a0830184614044565b9a9950505050505050505050565b614dc281614536565b8114614dcd57600080fd5b50565b600081519050614ddf81614db9565b92915050565b600060208284031215614dfb57614dfa614112565b5b6000614e0984828501614dd0565b91505092915050565b7f4754536176653a2064617461206e6f7420666f756e6400000000000000000000600082015250565b6000614e48601683614486565b9150614e5382614e12565b602082019050919050565b60006020820190508181036000830152614e7781614e3b565b9050919050565b7f4754536176653a206e6f7420612077696e6e6572206f6e20726f756e6420737060008201527f6573696669656400000000000000000000000000000000000000000000000000602082015250565b6000614eda602783614486565b9150614ee582614e7e565b604082019050919050565b60006020820190508181036000830152614f0981614ecd565b9050919050565b6000608082019050614f256000830189614d01565b8181036020830152614f38818789614d10565b90508181036040830152614f4d818587614d10565b9050614f5c6060830184614d01565b979650505050505050565b7f4754536176653a20696e73756666696369656e742062616c616e636500000000600082015250565b6000614f9d601c83614486565b9150614fa882614f67565b602082019050919050565b60006020820190508181036000830152614fcc81614f90565b9050919050565b7f4e487b7100000000000000000000000000000000000000000000000000000000600052601160045260246000fd5b600061500d8261403a565b91506150188361403a565b92508282101561502b5761502a614fd3565b5b828203905092915050565b600060608201905061504b6000830186614451565b6150586020830185614044565b6150656040830184614451565b949350505050565b7f4e487b7100000000000000000000000000000000000000000000000000000000600052602260045260246000fd5b600060028204905060018216806150b457607f821691505b602082108114156150c8576150c761506d565b5b50919050565b7f475453617665203a20696e73756666696369656e742062616c616e6365000000600082015250565b6000615104601d83614486565b915061510f826150ce565b602082019050919050565b60006020820190508181036000830152615133816150f7565b9050919050565b60006151458261403a565b91506151508361403a565b9250827fffffffffffffffffffffffffffffffffffffffffffffffffffffffffffffffff0382111561518557615184614fd3565b5b828201905092915050565b6000819050919050565b60006151b56151b06151ab84615190565b61408e565b614a9b565b9050919050565b6151c58161519a565b82525050565b60006080820190506151e06000830187614451565b6151ed6020830186614044565b6151fa6040830185614451565b61520760608301846151bc565b95945050505050565b7f4754536176653a206e6f207573657273206465706f7369742100000000000000600082015250565b6000615246601983614486565b915061525182615210565b602082019050919050565b6000602082019050818103600083015261527581615239565b9050919050565b7f4e487b7100000000000000000000000000000000000000000000000000000000600052603260045260246000fd5b60006152b68261403a565b91507fffffffffffffffffffffffffffffffffffffffffffffffffffffffffffffffff8214156152e9576152e8614fd3565b5b600182019050919050565b60006152ff8261403a565b915061530a8361403a565b9250817fffffffffffffffffffffffffffffffffffffffffffffffffffffffffffffffff048311821515161561534357615342614fd3565b5b828202905092915050565b7f4e487b7100000000000000000000000000000000000000000000000000000000600052601260045260246000fd5b60006153888261403a565b91506153938361403a565b9250826153a3576153a261534e565b5b828204905092915050565b600060a082840312156153c4576153c36149c0565b5b6153ce60a06145e8565b905060006153de84828501614726565b60008301525060206153f284828501614224565b602083015250604061540684828501614224565b604083015250606061541a84828501614224565b606083015250608061542e84828501614224565b60808301525092915050565b600060a082840312156154505761544f614112565b5b600061545e848285016153ae565b91505092915050565b60006020820190508181036000830152615482818486614d10565b90509392505050565b6000602082840312156154a1576154a0614112565b5b60006154af84828501614ad5565b91505092915050565b7f5265656e7472616e637947756172643a207265656e7472616e742063616c6c00600082015250565b60006154ee601f83614486565b91506154f9826154b8565b602082019050919050565b6000602082019050818103600083015261551d816154e1565b9050919050565b60006040820190506155396000830185614451565b6155466020830184614044565b9392505050565b60006060820190506155626000830186614451565b61556f6020830185614451565b61557c6040830184614044565b949350505050565b60006040820190506155996000830185614451565b6155a66020830184614451565b9392505050565b7f5361666545524332303a20617070726f76652066726f6d206e6f6e2d7a65726f60008201527f20746f206e6f6e2d7a65726f20616c6c6f77616e636500000000000000000000602082015250565b6000615609603683614486565b9150615614826155ad565b604082019050919050565b60006020820190508181036000830152615638816155fc565b9050919050565b6000819050919050565b60006156548261563f565b915061565f8361563f565b9250827f80000000000000000000000000000000000000000000000000000000000000000182126000841215161561569a57615699614fd3565b5b827f7fffffffffffffffffffffffffffffffffffffffffffffffffffffffffffffff0182136000841216156156d2576156d1614fd3565b5b828203905092915050565b60006156e88261563f565b91506156f38361563f565b9250826157035761570261534e565b5b600160000383147f80000000000000000000000000000000000000000000000000000000000000008314161561573c5761573b614fd3565b5b828205905092915050565b60006157528261563f565b915061575d8361563f565b9250817f7fffffffffffffffffffffffffffffffffffffffffffffffffffffffffffffff0383136000831215161561579857615797614fd3565b5b817f80000000000000000000000000000000000000000000000000000000000000000383126000831216156157d0576157cf614fd3565b5b828201905092915050565b60006157e68261563f565b91507f7fffffffffffffffffffffffffffffffffffffffffffffffffffffffffffffff82141561581957615818614fd3565b5b600182019050919050565b600061582f8261563f565b91507f800000000000000000000000000000000000000000000000000000000000000082141561586257615861614fd3565b5b600182039050919050565b60006158788261403a565b91506158838361403a565b9250826158935761589261534e565b5b828206905092915050565b7f4754536176653a20696e73756666696369656e742062616c616e6365206f6e2060008201527f636f6e7472616374000000000000000000000000000000000000000000000000602082015250565b60006158fa602883614486565b91506159058261589e565b604082019050919050565b60006020820190508181036000830152615929816158ed565b9050919050565b7f4754536176653a20696e73756666696369656e742062616c616e636520000000600082015250565b6000615966601d83614486565b915061597182615930565b602082019050919050565b6000602082019050818103600083015261599581615959565b9050919050565b7f5361666545524332303a204552433230206f7065726174696f6e20646964206e60008201527f6f74207375636365656400000000000000000000000000000000000000000000602082015250565b60006159f8602a83614486565b9150615a038261599c565b604082019050919050565b60006020820190508181036000830152615a27816159eb565b9050919050565b60008190508160005260206000209050919050565b60008154615a508161509c565b615a5a8186614486565b94506001821660008114615a755760018114615a8757615aba565b60ff1983168652602086019350615aba565b615a9085615a2e565b60005b83811015615ab257815481890152600182019150602081019050615a93565b808801955050505b50505092915050565b60006020820190508181036000830152615add8184615a43565b905092915050565b600081519050919050565b600082825260208201905092915050565b6000819050602082019050919050565b6000615b1d83836147bc565b60208301905092915050565b6000602082019050919050565b6000615b4182615ae5565b615b4b8185615af0565b9350615b5683615b01565b8060005b83811015615b87578151615b6e8882615b11565b9750615b7983615b29565b925050600181019050615b5a565b5085935050505092915050565b6000606082019050615ba96000830186614044565b8181036020830152615bbb8185615b36565b9050615bca6040830184614451565b949350505050565b600081519050919050565b600082825260208201905092915050565b6000615bf982615bd2565b615c038185615bdd565b9350615c13818560208601614497565b615c1c816144ca565b840191505092915050565b600060e082019050615c3c600083018a614451565b8181036020830152615c4e81896144db565b90508181036040830152615c6281886144db565b90508181036060830152615c768187615bee565b90508181036080830152615c8a81866144db565b9050615c9960a0830185614044565b615ca660c0830184614451565b98975050505050505050565b600060a0820190508181036000830152615ccc81886144db565b90508181036020830152615ce081876144db565b90508181036040830152615cf48186615bee565b90508181036060830152615d0881856144db565b9050615d176080830184614044565b9695505050505050565b7f416464726573733a20696e73756666696369656e742062616c616e636520666f60008201527f722063616c6c0000000000000000000000000000000000000000000000000000602082015250565b6000615d7d602683614486565b9150615d8882615d21565b604082019050919050565b60006020820190508181036000830152615dac81615d70565b9050919050565b6000615dbe82615bd2565b615dc88185614ca9565b9350615dd8818560208601614497565b80840191505092915050565b6000615df08284615db3565b915081905092915050565b7f416464726573733a2063616c6c20746f206e6f6e2d636f6e7472616374000000600082015250565b6000615e31601d83614486565b9150615e3c82615dfb565b602082019050919050565b60006020820190508181036000830152615e6081615e24565b905091905056fea2646970667358221220d2b6583bbfbbe0d981c52304d51f53de8a3bafa8ba937bac0d91565ead7e395d64736f6c63430008090033","abi":[{"inputs":[{"internalType":"address","name":"_gateway","type":"address"},{"internalType":"address","name":"_gasReceiver","type":"address"},{"internalType":"address","name":"_usdc","type":"address"},{"internalType":"address","name":"_aToken","type":"address"},{"internalType":"address","name":"_poolUsdc","type":"address"},{"internalType":"address","name":"_vrfCoordinator","type":"address"},{"internalType":"address","name":"_univRouter","type":"address"},{"internalType":"address","name":"_wmatic","type":"address"}],"stateMutability":"nonpayable","type":"constructor"},{"inputs":[],"name":"InvalidAddress","type":"error"},{"inputs":[],"name":"NotApprovedByGateway","type":"error"},{"stateMutability":"payable","type":"fallback"},{"inputs":[],"name":"MIN_DEPOSIT_DURATION","outputs":[{"internalType":"uint256","name":"","type":"uint256"}],"stateMutability":"view","type":"function"},{"inputs":[],"name":"MIN_DURATION_PER_ROUND","outputs":[{"internalType":"uint256","name":"","type":"uint256"}],"stateMutability":"view","type":"function"},{"inputs":[{"internalType":"uint256","name":"amount","type":"uint256"}],"name":"Withdraw","outputs":[],"stateMutability":"nonpayable","type":"function"},{"inputs":[],"name":"axlUSDC","outputs":[{"internalType":"string","name":"","type":"string"}],"stateMutability":"view","type":"function"},{"inputs":[{"internalType":"uint256","name":"_roundId","type":"uint256"}],"name":"claim","outputs":[],"stateMutability":"nonpayable","type":"function"},{"inputs":[{"internalType":"uint256[]","name":"_randomWords","type":"uint256[]"}],"name":"completeRound","outputs":[],"stateMutability":"nonpayable","type":"function"},{"inputs":[{"internalType":"uint256","name":"amount","type":"uint256"}],"name":"deposit","outputs":[],"stateMutability":"nonpayable","type":"function"},{"inputs":[{"internalType":"bytes32","name":"commandId","type":"bytes32"},{"internalType":"string","name":"sourceChain","type":"string"},{"internalType":"string","name":"sourceAddress","type":"string"},{"internalType":"bytes","name":"payload","type":"bytes"}],"name":"execute","outputs":[],"stateMutability":"nonpayable","type":"function"},{"inputs":[{"internalType":"bytes32","name":"commandId","type":"bytes32"},{"internalType":"string","name":"sourceChain","type":"string"},{"internalType":"string","name":"sourceAddress","type":"string"},{"internalType":"bytes","name":"payload","type":"bytes"},{"internalType":"string","name":"tokenSymbol","type":"string"},{"internalType":"uint256","name":"amount","type":"uint256"}],"name":"executeWithToken","outputs":[],"stateMutability":"nonpayable","type":"function"},{"inputs":[],"name":"gateway","outputs":[{"internalType":"contract IAxelarGateway","name":"","type":"address"}],"stateMutability":"view","type":"function"},{"inputs":[],"name":"getClaimablePrize","outputs":[{"internalType":"uint256","name":"","type":"uint256"}],"stateMutability":"view","type":"function"},{"inputs":[{"internalType":"address","name":"user","type":"address"}],"name":"getUserData","outputs":[{"components":[{"internalType":"bool","name":"isEntity","type":"bool"},{"internalType":"uint256","name":"balance","type":"uint256"},{"internalType":"uint256","name":"oddUpdate","type":"uint256"},{"internalType":"uint256","name":"depositDate","type":"uint256"},{"components":[{"internalType":"uint256","name":"roundId","type":"uint256"},{"internalType":"uint256","name":"prize","type":"uint256"},{"internalType":"bool","name":"isClaim","type":"bool"}],"internalType":"struct Types.DetailWin[]","name":"listWin","type":"tuple[]"}],"internalType":"struct Types.UserData","name":"","type":"tuple"}],"stateMutability":"view","type":"function"},{"inputs":[{"internalType":"uint256","name":"_roundId","type":"uint256"}],"name":"getWiner","outputs":[{"components":[{"internalType":"bool","name":"isEntity","type":"bool"},{"internalType":"address","name":"winner","type":"address"},{"internalType":"uint256","name":"prize","type":"uint256"}],"internalType":"struct Types.DataWinners","name":"","type":"tuple"}],"stateMutability":"view","type":"function"},{"inputs":[{"internalType":"uint256","name":"","type":"uint256"}],"name":"listUserData","outputs":[{"internalType":"address","name":"","type":"address"}],"stateMutability":"view","type":"function"},{"inputs":[],"name":"owner","outputs":[{"internalType":"address","name":"","type":"address"}],"stateMutability":"view","type":"function"},{"inputs":[],"name":"prizes","outputs":[{"internalType":"uint256","name":"","type":"uint256"}],"stateMutability":"view","type":"function"},{"inputs":[],"name":"roundId","outputs":[{"internalType":"uint256","name":"","type":"uint256"}],"stateMutability":"view","type":"function"},{"inputs":[],"name":"totalDeposit","outputs":[{"internalType":"uint256","name":"","type":"uint256"}],"stateMutability":"view","type":"function"},{"inputs":[{"internalType":"address","name":"","type":"address"}],"name":"userData","outputs":[{"internalType":"bool","name":"isEntity","type":"bool"},{"internalType":"uint256","name":"balance","type":"uint256"},{"internalType":"uint256","name":"oddUpdate","type":"uint256"},{"internalType":"uint256","name":"depositDate","type":"uint256"}],"stateMutability":"view","type":"function"},{"inputs":[],"name":"vrfCoordinator","outputs":[{"internalType":"address","name":"","type":"address"}],"stateMutability":"view","type":"function"},{"inputs":[{"internalType":"uint256","name":"","type":"uint256"}],"name":"weightedBalanceUser","outputs":[{"internalType":"address","name":"","type":"address"}],"stateMutability":"view","type":"function"},{"inputs":[{"internalType":"uint256","name":"","type":"uint256"}],"name":"winners","outputs":[{"internalType":"bool","name":"isEntity","type":"bool"},{"internalType":"address","name":"winner","type":"address"},{"internalType":"uint256","name":"prize","type":"uint256"}],"stateMutability":"view","type":"function"},{"inputs":[],"name":"wmatic","outputs":[{"internalType":"address","name":"","type":"address"}],"stateMutability":"view","type":"function"},{"stateMutability":"payable","type":"receive"}]}