{"address":"0x6E9Cc4D32084992813a010A91B3c5d34d20A47c5","bytecode":"0x60806040523480156200001157600080fd5b50604051620013be380380620013be8339818101604052810190620000379190620000e8565b806000806101000a81548173ffffffffffffffffffffffffffffffffffffffff021916908373ffffffffffffffffffffffffffffffffffffffff160217905550506200011a565b600080fd5b600073ffffffffffffffffffffffffffffffffffffffff82169050919050565b6000620000b08262000083565b9050919050565b620000c281620000a3565b8114620000ce57600080fd5b50565b600081519050620000e281620000b7565b92915050565b6000602082840312156200010157620001006200007e565b5b60006200011184828501620000d1565b91505092915050565b611294806200012a6000396000f3fe6080604052600436106100345760003560e01c8063a45d1b4c14610039578063c0b463ad14610076578063ee037f5e146100b3575b600080fd5b34801561004557600080fd5b50610060600480360381019061005b91906109fb565b6100e3565b60405161006d9190610a66565b60405180910390f35b34801561008257600080fd5b5061009d600480360381019061009891906109fb565b6101c5565b6040516100aa9190610a66565b60405180910390f35b6100cd60048036038101906100c89190610a81565b61029b565b6040516100da9190610a66565b60405180910390f35b60008060009054906101000a900473ffffffffffffffffffffffffffffffffffffffff1673ffffffffffffffffffffffffffffffffffffffff1663d06ca61f84846040518363ffffffff1660e01b8152600401610141929190610bae565b60006040518083038186803b15801561015957600080fd5b505afa15801561016d573d6000803e3d6000fd5b505050506040513d6000823e3d601f19601f820116820180604052508101906101969190610cb6565b600183516101a49190610d2e565b815181106101b5576101b4610d62565b5b6020026020010151905092915050565b60008060009054906101000a900473ffffffffffffffffffffffffffffffffffffffff1673ffffffffffffffffffffffffffffffffffffffff16631f00ca7484846040518363ffffffff1660e01b8152600401610223929190610bae565b60006040518083038186803b15801561023b57600080fd5b505afa15801561024f573d6000803e3d6000fd5b505050506040513d6000823e3d601f19601f820116820180604052508101906102789190610cb6565b60008151811061028b5761028a610d62565b5b6020026020010151905092915050565b600061030360008054906101000a900473ffffffffffffffffffffffffffffffffffffffff1685856000815181106102d6576102d5610d62565b5b602002602001015173ffffffffffffffffffffffffffffffffffffffff166104079092919063ffffffff16565b60008060009054906101000a900473ffffffffffffffffffffffffffffffffffffffff1673ffffffffffffffffffffffffffffffffffffffff166318cbafe58661034d88886100e3565b8787600f4261035c9190610d91565b6040518663ffffffff1660e01b815260040161037c959493929190610df6565b600060405180830381600087803b15801561039657600080fd5b505af11580156103aa573d6000803e3d6000fd5b505050506040513d6000823e3d601f19601f820116820180604052508101906103d39190610cb6565b905080600185516103e49190610d2e565b815181106103f5576103f4610d62565b5b60200260200101519150509392505050565b60008114806104a0575060008373ffffffffffffffffffffffffffffffffffffffff1663dd62ed3e30856040518363ffffffff1660e01b815260040161044e929190610e50565b60206040518083038186803b15801561046657600080fd5b505afa15801561047a573d6000803e3d6000fd5b505050506040513d601f19601f8201168201806040525081019061049e9190610e79565b145b6104df576040517f08c379a00000000000000000000000000000000000000000000000000000000081526004016104d690610f29565b60405180910390fd5b6105608363095ea7b360e01b84846040516024016104fe929190610f49565b604051602081830303815290604052907bffffffffffffffffffffffffffffffffffffffffffffffffffffffff19166020820180517bffffffffffffffffffffffffffffffffffffffffffffffffffffffff8381831617835250505050610565565b505050565b60006105c7826040518060400160405280602081526020017f5361666545524332303a206c6f772d6c6576656c2063616c6c206661696c65648152508573ffffffffffffffffffffffffffffffffffffffff1661062c9092919063ffffffff16565b905060008151111561062757808060200190518101906105e79190610faa565b610626576040517f08c379a000000000000000000000000000000000000000000000000000000000815260040161061d90611049565b60405180910390fd5b5b505050565b606061063b8484600085610644565b90509392505050565b606082471015610689576040517f08c379a0000000000000000000000000000000000000000000000000000000008152600401610680906110db565b60405180910390fd5b6000808673ffffffffffffffffffffffffffffffffffffffff1685876040516106b29190611175565b60006040518083038185875af1925050503d80600081146106ef576040519150601f19603f3d011682016040523d82523d6000602084013e6106f4565b606091505b509150915061070587838387610711565b92505050949350505050565b606083156107745760008351141561076c5761072c85610787565b61076b576040517f08c379a0000000000000000000000000000000000000000000000000000000008152600401610762906111d8565b60405180910390fd5b5b82905061077f565b61077e83836107aa565b5b949350505050565b6000808273ffffffffffffffffffffffffffffffffffffffff163b119050919050565b6000825111156107bd5781518083602001fd5b806040517f08c379a00000000000000000000000000000000000000000000000000000000081526004016107f1919061123c565b60405180910390fd5b6000604051905090565b600080fd5b600080fd5b6000819050919050565b6108218161080e565b811461082c57600080fd5b50565b60008135905061083e81610818565b92915050565b600080fd5b6000601f19601f8301169050919050565b7f4e487b7100000000000000000000000000000000000000000000000000000000600052604160045260246000fd5b61089282610849565b810181811067ffffffffffffffff821117156108b1576108b061085a565b5b80604052505050565b60006108c46107fa565b90506108d08282610889565b919050565b600067ffffffffffffffff8211156108f0576108ef61085a565b5b602082029050602081019050919050565b600080fd5b600073ffffffffffffffffffffffffffffffffffffffff82169050919050565b600061093182610906565b9050919050565b61094181610926565b811461094c57600080fd5b50565b60008135905061095e81610938565b92915050565b6000610977610972846108d5565b6108ba565b9050808382526020820190506020840283018581111561099a57610999610901565b5b835b818110156109c357806109af888261094f565b84526020840193505060208101905061099c565b5050509392505050565b600082601f8301126109e2576109e1610844565b5b81356109f2848260208601610964565b91505092915050565b60008060408385031215610a1257610a11610804565b5b6000610a208582860161082f565b925050602083013567ffffffffffffffff811115610a4157610a40610809565b5b610a4d858286016109cd565b9150509250929050565b610a608161080e565b82525050565b6000602082019050610a7b6000830184610a57565b92915050565b600080600060608486031215610a9a57610a99610804565b5b6000610aa88682870161082f565b935050602084013567ffffffffffffffff811115610ac957610ac8610809565b5b610ad5868287016109cd565b9250506040610ae68682870161094f565b9150509250925092565b600081519050919050565b600082825260208201905092915050565b6000819050602082019050919050565b610b2581610926565b82525050565b6000610b378383610b1c565b60208301905092915050565b6000602082019050919050565b6000610b5b82610af0565b610b658185610afb565b9350610b7083610b0c565b8060005b83811015610ba1578151610b888882610b2b565b9750610b9383610b43565b925050600181019050610b74565b5085935050505092915050565b6000604082019050610bc36000830185610a57565b8181036020830152610bd58184610b50565b90509392505050565b600067ffffffffffffffff821115610bf957610bf861085a565b5b602082029050602081019050919050565b600081519050610c1981610818565b92915050565b6000610c32610c2d84610bde565b6108ba565b90508083825260208201905060208402830185811115610c5557610c54610901565b5b835b81811015610c7e5780610c6a8882610c0a565b845260208401935050602081019050610c57565b5050509392505050565b600082601f830112610c9d57610c9c610844565b5b8151610cad848260208601610c1f565b91505092915050565b600060208284031215610ccc57610ccb610804565b5b600082015167ffffffffffffffff811115610cea57610ce9610809565b5b610cf684828501610c88565b91505092915050565b7f4e487b7100000000000000000000000000000000000000000000000000000000600052601160045260246000fd5b6000610d398261080e565b9150610d448361080e565b925082821015610d5757610d56610cff565b5b828203905092915050565b7f4e487b7100000000000000000000000000000000000000000000000000000000600052603260045260246000fd5b6000610d9c8261080e565b9150610da78361080e565b9250827fffffffffffffffffffffffffffffffffffffffffffffffffffffffffffffffff03821115610ddc57610ddb610cff565b5b828201905092915050565b610df081610926565b82525050565b600060a082019050610e0b6000830188610a57565b610e186020830187610a57565b8181036040830152610e2a8186610b50565b9050610e396060830185610de7565b610e466080830184610a57565b9695505050505050565b6000604082019050610e656000830185610de7565b610e726020830184610de7565b9392505050565b600060208284031215610e8f57610e8e610804565b5b6000610e9d84828501610c0a565b91505092915050565b600082825260208201905092915050565b7f5361666545524332303a20617070726f76652066726f6d206e6f6e2d7a65726f60008201527f20746f206e6f6e2d7a65726f20616c6c6f77616e636500000000000000000000602082015250565b6000610f13603683610ea6565b9150610f1e82610eb7565b604082019050919050565b60006020820190508181036000830152610f4281610f06565b9050919050565b6000604082019050610f5e6000830185610de7565b610f6b6020830184610a57565b9392505050565b60008115159050919050565b610f8781610f72565b8114610f9257600080fd5b50565b600081519050610fa481610f7e565b92915050565b600060208284031215610fc057610fbf610804565b5b6000610fce84828501610f95565b91505092915050565b7f5361666545524332303a204552433230206f7065726174696f6e20646964206e60008201527f6f74207375636365656400000000000000000000000000000000000000000000602082015250565b6000611033602a83610ea6565b915061103e82610fd7565b604082019050919050565b6000602082019050818103600083015261106281611026565b9050919050565b7f416464726573733a20696e73756666696369656e742062616c616e636520666f60008201527f722063616c6c0000000000000000000000000000000000000000000000000000602082015250565b60006110c5602683610ea6565b91506110d082611069565b604082019050919050565b600060208201905081810360008301526110f4816110b8565b9050919050565b600081519050919050565b600081905092915050565b60005b8381101561112f578082015181840152602081019050611114565b8381111561113e576000848401525b50505050565b600061114f826110fb565b6111598185611106565b9350611169818560208601611111565b80840191505092915050565b60006111818284611144565b915081905092915050565b7f416464726573733a2063616c6c20746f206e6f6e2d636f6e7472616374000000600082015250565b60006111c2601d83610ea6565b91506111cd8261118c565b602082019050919050565b600060208201905081810360008301526111f1816111b5565b9050919050565b600081519050919050565b600061120e826111f8565b6112188185610ea6565b9350611228818560208601611111565b61123181610849565b840191505092915050565b600060208201905081810360008301526112568184611203565b90509291505056fea2646970667358221220094b2ebce745c362526613ec4bc57bfd3bbacaa03b119d402cc31fadec8b2b8c64736f6c63430008090033","abi":[{"inputs":[{"internalType":"address","name":"_router","type":"address"}],"stateMutability":"nonpayable","type":"constructor"},{"inputs":[{"internalType":"uint256","name":"_amount","type":"uint256"},{"internalType":"address[]","name":"_path","type":"address[]"}],"name":"getAmountYForX","outputs":[{"internalType":"uint256","name":"","type":"uint256"}],"stateMutability":"view","type":"function"},{"inputs":[{"internalType":"uint256","name":"_amount","type":"uint256"},{"internalType":"address[]","name":"_path","type":"address[]"}],"name":"getExchangeRate","outputs":[{"internalType":"uint256","name":"","type":"uint256"}],"stateMutability":"view","type":"function"},{"inputs":[{"internalType":"uint256","name":"_amount","type":"uint256"},{"internalType":"address[]","name":"_path","type":"address[]"},{"internalType":"address","name":"_to","type":"address"}],"name":"swapForMatic","outputs":[{"internalType":"uint256","name":"","type":"uint256"}],"stateMutability":"payable","type":"function"}]}