{"address":"0x820d384462ce00E403cd65F0d898103Be51F0ee4","bytecode":"0x608060405234801561001057600080fd5b50604051610b4f380380610b4f83398101604081905261002f91610054565b600080546001600160a01b0319166001600160a01b0392909216919091179055610084565b60006020828403121561006657600080fd5b81516001600160a01b038116811461007d57600080fd5b9392505050565b610abc806100936000396000f3fe6080604052600436106100345760003560e01c8063a45d1b4c14610039578063c0b463ad1461006b578063ee037f5e1461008b575b600080fd5b34801561004557600080fd5b506100596100543660046107ad565b61009e565b60405190815260200160405180910390f35b34801561007757600080fd5b506100596100863660046107ad565b610153565b6100596100993660046107f4565b6101ec565b6000805460405163d06ca61f60e01b81526001600160a01b039091169063d06ca61f906100d1908690869060040161088f565b60006040518083038186803b1580156100e957600080fd5b505afa1580156100fd573d6000803e3d6000fd5b505050506040513d6000823e601f3d908101601f1916820160405261012591908101906108a8565b600183516101339190610944565b815181106101435761014361095b565b6020026020010151905092915050565b600080546040516307c0329d60e21b81526001600160a01b0390911690631f00ca7490610186908690869060040161088f565b60006040518083038186803b15801561019e57600080fd5b505afa1580156101b2573d6000803e3d6000fd5b505050506040513d6000823e601f3d908101601f191682016040526101da91908101906108a8565b6000815181106101435761014361095b565b600080548351610232916001600160a01b0316908690869085906102125761021261095b565b60200260200101516001600160a01b03166103059092919063ffffffff16565b600080546001600160a01b03166318cbafe58661024f818861009e565b878761025c42600f610971565b6040518663ffffffff1660e01b815260040161027c959493929190610989565b600060405180830381600087803b15801561029657600080fd5b505af11580156102aa573d6000803e3d6000fd5b505050506040513d6000823e601f3d908101601f191682016040526102d291908101906108a8565b905080600185516102e39190610944565b815181106102f3576102f361095b565b60200260200101519150509392505050565b80158061038e5750604051636eb1769f60e11b81523060048201526001600160a01b03838116602483015284169063dd62ed3e9060440160206040518083038186803b15801561035457600080fd5b505afa158015610368573d6000803e3d6000fd5b505050506040513d601f19601f8201168201806040525081019061038c91906109c5565b155b6103fe5760405162461bcd60e51b815260206004820152603660248201527f5361666545524332303a20617070726f76652066726f6d206e6f6e2d7a65726f60448201527520746f206e6f6e2d7a65726f20616c6c6f77616e636560501b60648201526084015b60405180910390fd5b604080516001600160a01b038416602482015260448082018490528251808303909101815260649091019091526020810180516001600160e01b031663095ea7b360e01b179052610450908490610455565b505050565b60006104aa826040518060400160405280602081526020017f5361666545524332303a206c6f772d6c6576656c2063616c6c206661696c6564815250856001600160a01b03166105279092919063ffffffff16565b80519091501561045057808060200190518101906104c891906109de565b6104505760405162461bcd60e51b815260206004820152602a60248201527f5361666545524332303a204552433230206f7065726174696f6e20646964206e6044820152691bdd081cdd58d8d9595960b21b60648201526084016103f5565b6060610536848460008561053e565b949350505050565b60608247101561059f5760405162461bcd60e51b815260206004820152602660248201527f416464726573733a20696e73756666696369656e742062616c616e636520666f6044820152651c8818d85b1b60d21b60648201526084016103f5565b600080866001600160a01b031685876040516105bb9190610a37565b60006040518083038185875af1925050503d80600081146105f8576040519150601f19603f3d011682016040523d82523d6000602084013e6105fd565b606091505b509150915061060e87838387610619565b979650505050505050565b6060831561068557825161067e576001600160a01b0385163b61067e5760405162461bcd60e51b815260206004820152601d60248201527f416464726573733a2063616c6c20746f206e6f6e2d636f6e747261637400000060448201526064016103f5565b5081610536565b610536838381511561069a5781518083602001fd5b8060405162461bcd60e51b81526004016103f59190610a53565b634e487b7160e01b600052604160045260246000fd5b604051601f8201601f1916810167ffffffffffffffff811182821017156106f3576106f36106b4565b604052919050565b600067ffffffffffffffff821115610715576107156106b4565b5060051b60200190565b80356001600160a01b038116811461073657600080fd5b919050565b600082601f83011261074c57600080fd5b8135602061076161075c836106fb565b6106ca565b82815260059290921b8401810191818101908684111561078057600080fd5b8286015b848110156107a2576107958161071f565b8352918301918301610784565b509695505050505050565b600080604083850312156107c057600080fd5b82359150602083013567ffffffffffffffff8111156107de57600080fd5b6107ea8582860161073b565b9150509250929050565b60008060006060848603121561080957600080fd5b83359250602084013567ffffffffffffffff81111561082757600080fd5b6108338682870161073b565b9250506108426040850161071f565b90509250925092565b600081518084526020808501945080840160005b838110156108845781516001600160a01b03168752958201959082019060010161085f565b509495945050505050565b828152604060208201526000610536604083018461084b565b600060208083850312156108bb57600080fd5b825167ffffffffffffffff8111156108d257600080fd5b8301601f810185136108e357600080fd5b80516108f161075c826106fb565b81815260059190911b8201830190838101908783111561091057600080fd5b928401925b8284101561060e57835182529284019290840190610915565b634e487b7160e01b600052601160045260246000fd5b6000828210156109565761095661092e565b500390565b634e487b7160e01b600052603260045260246000fd5b600082198211156109845761098461092e565b500190565b85815284602082015260a0604082015260006109a860a083018661084b565b6001600160a01b0394909416606083015250608001529392505050565b6000602082840312156109d757600080fd5b5051919050565b6000602082840312156109f057600080fd5b81518015158114610a0057600080fd5b9392505050565b60005b83811015610a22578181015183820152602001610a0a565b83811115610a31576000848401525b50505050565b60008251610a49818460208701610a07565b9190910192915050565b6020815260008251806020840152610a72816040850160208701610a07565b601f01601f1916919091016040019291505056fea2646970667358221220ff0f73fda59bb868b25ee70921c4d548a917a2b2863d392c87a64c862e968b0f64736f6c63430008090033","abi":[{"inputs":[{"internalType":"address","name":"_router","type":"address"}],"stateMutability":"nonpayable","type":"constructor"},{"inputs":[{"internalType":"uint256","name":"_amount","type":"uint256"},{"internalType":"address[]","name":"_path","type":"address[]"}],"name":"getAmountYForX","outputs":[{"internalType":"uint256","name":"","type":"uint256"}],"stateMutability":"view","type":"function"},{"inputs":[{"internalType":"uint256","name":"_amount","type":"uint256"},{"internalType":"address[]","name":"_path","type":"address[]"}],"name":"getExchangeRate","outputs":[{"internalType":"uint256","name":"","type":"uint256"}],"stateMutability":"view","type":"function"},{"inputs":[{"internalType":"uint256","name":"_amount","type":"uint256"},{"internalType":"address[]","name":"_path","type":"address[]"},{"internalType":"address","name":"_to","type":"address"}],"name":"swapForMatic","outputs":[{"internalType":"uint256","name":"","type":"uint256"}],"stateMutability":"payable","type":"function"}]}