{"address":"0x0c43b8275FCb77C571df063Dc0f28C8945043FE2","bytecode":"0x60a0604052600480546001600160501b03191666010003001e848017905534801561002957600080fd5b50604051610cef380380610cef833981016040819052610048916101f7565b6001600160a01b03821660805233806000816100ab5760405162461bcd60e51b815260206004820152601860248201527f43616e6e6f7420736574206f776e657220746f207a65726f000000000000000060448201526064015b60405180910390fd5b600080546001600160a01b0319166001600160a01b03848116919091179091558116156100db576100db81610135565b5050600280546001600160401b03909616600160a01b026001600160e01b03199096166001600160a01b03938416179590951790945560039290925560088054919092166001600160a01b03199190911617905550610258565b6001600160a01b03811633141561018e5760405162461bcd60e51b815260206004820152601760248201527f43616e6e6f74207472616e7366657220746f2073656c6600000000000000000060448201526064016100a2565b600180546001600160a01b0319166001600160a01b0383811691821790925560008054604051929316917fed8889f560326eb138920d842192f0eb3dd22b4f139c87a2c57538e05bae12789190a350565b6001600160a01b03811681146101f457600080fd5b50565b6000806000806080858703121561020d57600080fd5b84516001600160401b038116811461022457600080fd5b60208601516040870151919550935061023c816101df565b606086015190925061024d816101df565b939692955090935050565b608051610a7561027a600039600081816101b101526101f30152610a756000f3fe608060405234801561001057600080fd5b506004361061009e5760003560e01c8063d8a4676f11610066578063d8a4676f1461014e578063dfcb910b1461016f578063e0c8628914610182578063f2fde38b1461018a578063fc2a88c31461019d57600080fd5b80631fe543e3146100a357806379ba5097146100b85780638796ba8c146100c05780638da5cb5b146100e6578063d49f5cc91461010b575b600080fd5b6100b66100b1366004610889565b6101a6565b005b6100b6610233565b6100d36100ce366004610953565b6102dd565b6040519081526020015b60405180910390f35b6000546001600160a01b03165b6040516001600160a01b0390911681526020016100dd565b610137610119366004610953565b60076020526000908152604090205460ff8082169161010090041682565b6040805192151583529015156020830152016100dd565b61016161015c366004610953565b6102fe565b6040516100dd9291906109a7565b6002546100f3906001600160a01b031681565b6100d36103f2565b6100b66101983660046109ca565b6105cc565b6100d360065481565b336001600160a01b037f000000000000000000000000000000000000000000000000000000000000000016146102255760405163073e64fd60e21b81523360048201526001600160a01b037f00000000000000000000000000000000000000000000000000000000000000001660248201526044015b60405180910390fd5b61022f82826105e0565b5050565b6001546001600160a01b031633146102865760405162461bcd60e51b815260206004820152601660248201527526bab9ba10313290383937b837b9b2b21037bbb732b960511b604482015260640161021c565b60008054336001600160a01b0319808316821784556001805490911690556040516001600160a01b0390921692909183917f8be0079c531659141344cd1fd0a4f28419497f9722a3daafe3b4186f6b6457e091a350565b600581815481106102ed57600080fd5b600091825260209091200154905081565b600081815260076020526040812054606090610100900460ff166103585760405162461bcd60e51b81526020600482015260116024820152701c995c5d595cdd081b9bdd08199bdd5b99607a1b604482015260640161021c565b60008381526007602090815260408083208151606081018352815460ff80821615158352610100909104161515818501526001820180548451818702810187018652818152929593948601938301828280156103d357602002820191906000526020600020905b8154815260200190600101908083116103bf575b5050505050815250509050806000015181604001519250925050915091565b60006103fc610714565b600854600354600254600480546040516305d3b1d360e41b815291820193909352600160a01b90910467ffffffffffffffff166024820152640100000000820461ffff16604482015263ffffffff8083166064830152660100000000000090920490911660848201526001600160a01b0390911690635d3b1d309060a401602060405180830381600087803b15801561049457600080fd5b505af11580156104a8573d6000803e3d6000fd5b505050506040513d601f19601f820116820180604052508101906104cc91906109fa565b6040805160608101825260008082526001602080840182815285518481528083018752858701908152878552600783529590932084518154945161ffff1990951690151561ff001916176101009415159490940293909317835593518051959650929491936105419391850192910190610813565b5050600580546001810182556000919091527f036b6384b5eca791c62761152d0c79bb0604c104a5fb6f4eb0703f3154bb3db00182905550600681905560045460408051838152660100000000000090920463ffffffff1660208301527fcc58b13ad3eab50626c6a6300b1d139cd6ebb1688a7cced9461c2f7e762665ee910160405180910390a190565b6105d4610714565b6105dd81610769565b50565b600082815260076020526040902054610100900460ff166106435760405162461bcd60e51b815260206004820152601c60248201527f4754536176653a2072657175657374206964206e6f7420666f756e6400000000604482015260640161021c565b6000828152600760209081526040909120805460ff1916600190811782558351610674939290910191840190610813565b507ffe2e2d779dba245964d4e3ef9b994be63856fd568bf7d3ca9e224755cb1bd54d82826040516106a6929190610a13565b60405180910390a160025460405163b7442c9f60e01b81526001600160a01b039091169063b7442c9f906106de908490600401610a2c565b600060405180830381600087803b1580156106f857600080fd5b505af115801561070c573d6000803e3d6000fd5b505050505050565b6000546001600160a01b031633146107675760405162461bcd60e51b815260206004820152601660248201527527b7363c9031b0b63630b1363290313c9037bbb732b960511b604482015260640161021c565b565b6001600160a01b0381163314156107c25760405162461bcd60e51b815260206004820152601760248201527f43616e6e6f74207472616e7366657220746f2073656c66000000000000000000604482015260640161021c565b600180546001600160a01b0319166001600160a01b0383811691821790925560008054604051929316917fed8889f560326eb138920d842192f0eb3dd22b4f139c87a2c57538e05bae12789190a350565b82805482825590600052602060002090810192821561084e579160200282015b8281111561084e578251825591602001919060010190610833565b5061085a92915061085e565b5090565b5b8082111561085a576000815560010161085f565b634e487b7160e01b600052604160045260246000fd5b6000806040838503121561089c57600080fd5b8235915060208084013567ffffffffffffffff808211156108bc57600080fd5b818601915086601f8301126108d057600080fd5b8135818111156108e2576108e2610873565b8060051b604051601f19603f8301168101818110858211171561090757610907610873565b60405291825284820192508381018501918983111561092557600080fd5b938501935b828510156109435784358452938501939285019261092a565b8096505050505050509250929050565b60006020828403121561096557600080fd5b5035919050565b600081518084526020808501945080840160005b8381101561099c57815187529582019590820190600101610980565b509495945050505050565b82151581526040602082015260006109c2604083018461096c565b949350505050565b6000602082840312156109dc57600080fd5b81356001600160a01b03811681146109f357600080fd5b9392505050565b600060208284031215610a0c57600080fd5b5051919050565b8281526040602082015260006109c2604083018461096c565b6020815260006109f3602083018461096c56fea26469706673582212201dd68f2ddc226baa5f662dc2b964ca897fc8496b3e6dfc050fae886a987309da64736f6c63430008090033","abi":[{"inputs":[{"internalType":"uint64","name":"_subscriptionId","type":"uint64"},{"internalType":"bytes32","name":"_keyhash","type":"bytes32"},{"internalType":"address","name":"_vrfCoordinatior","type":"address"},{"internalType":"address payable","name":"_gtSave","type":"address"}],"stateMutability":"nonpayable","type":"constructor"},{"inputs":[{"internalType":"address","name":"have","type":"address"},{"internalType":"address","name":"want","type":"address"}],"name":"OnlyCoordinatorCanFulfill","type":"error"},{"anonymous":false,"inputs":[{"indexed":true,"internalType":"address","name":"from","type":"address"},{"indexed":true,"internalType":"address","name":"to","type":"address"}],"name":"OwnershipTransferRequested","type":"event"},{"anonymous":false,"inputs":[{"indexed":true,"internalType":"address","name":"from","type":"address"},{"indexed":true,"internalType":"address","name":"to","type":"address"}],"name":"OwnershipTransferred","type":"event"},{"anonymous":false,"inputs":[{"indexed":false,"internalType":"uint256","name":"requestId","type":"uint256"},{"indexed":false,"internalType":"uint256[]","name":"randomWords","type":"uint256[]"}],"name":"RequestFulfilled","type":"event"},{"anonymous":false,"inputs":[{"indexed":false,"internalType":"uint256","name":"requestId","type":"uint256"},{"indexed":false,"internalType":"uint32","name":"numWords","type":"uint32"}],"name":"RequestSent","type":"event"},{"inputs":[],"name":"acceptOwnership","outputs":[],"stateMutability":"nonpayable","type":"function"},{"inputs":[{"internalType":"uint256","name":"_requestId","type":"uint256"}],"name":"getRequestStatus","outputs":[{"internalType":"bool","name":"fulfilled","type":"bool"},{"internalType":"uint256[]","name":"randomWords","type":"uint256[]"}],"stateMutability":"view","type":"function"},{"inputs":[],"name":"gtSave","outputs":[{"internalType":"contract GTSave","name":"","type":"address"}],"stateMutability":"view","type":"function"},{"inputs":[],"name":"lastRequestId","outputs":[{"internalType":"uint256","name":"","type":"uint256"}],"stateMutability":"view","type":"function"},{"inputs":[{"internalType":"uint256","name":"","type":"uint256"}],"name":"listRequests","outputs":[{"internalType":"bool","name":"fulfilled","type":"bool"},{"internalType":"bool","name":"exists","type":"bool"}],"stateMutability":"view","type":"function"},{"inputs":[],"name":"owner","outputs":[{"internalType":"address","name":"","type":"address"}],"stateMutability":"view","type":"function"},{"inputs":[{"internalType":"uint256","name":"requestId","type":"uint256"},{"internalType":"uint256[]","name":"randomWords","type":"uint256[]"}],"name":"rawFulfillRandomWords","outputs":[],"stateMutability":"nonpayable","type":"function"},{"inputs":[{"internalType":"uint256","name":"","type":"uint256"}],"name":"requestIds","outputs":[{"internalType":"uint256","name":"","type":"uint256"}],"stateMutability":"view","type":"function"},{"inputs":[],"name":"requestRandomWords","outputs":[{"internalType":"uint256","name":"requestId","type":"uint256"}],"stateMutability":"nonpayable","type":"function"},{"inputs":[{"internalType":"address","name":"to","type":"address"}],"name":"transferOwnership","outputs":[],"stateMutability":"nonpayable","type":"function"}]}