{"address":"0xa9926f28fA33dDC5829c2dF55B55b915Fd54f5Bc","bytecode":"0x60a0604052621e8480600460006101000a81548163ffffffff021916908363ffffffff16021790555060036004806101000a81548161ffff021916908361ffff1602179055506001600460066101000a81548163ffffffff021916908363ffffffff1602179055503480156200007457600080fd5b5060405162001b8f38038062001b8f83398181016040528101906200009a9190620004ec565b33806000848073ffffffffffffffffffffffffffffffffffffffff1660808173ffffffffffffffffffffffffffffffffffffffff168152505050600073ffffffffffffffffffffffffffffffffffffffff168273ffffffffffffffffffffffffffffffffffffffff16141562000147576040517f08c379a00000000000000000000000000000000000000000000000000000000081526004016200013e90620005bf565b60405180910390fd5b816000806101000a81548173ffffffffffffffffffffffffffffffffffffffff021916908373ffffffffffffffffffffffffffffffffffffffff160217905550600073ffffffffffffffffffffffffffffffffffffffff168173ffffffffffffffffffffffffffffffffffffffff1614620001ce57620001cd816200028d60201b60201c565b5b50505080600260006101000a81548173ffffffffffffffffffffffffffffffffffffffff021916908373ffffffffffffffffffffffffffffffffffffffff16021790555083600260146101000a81548167ffffffffffffffff021916908367ffffffffffffffff1602179055508260038190555081600860006101000a81548173ffffffffffffffffffffffffffffffffffffffff021916908373ffffffffffffffffffffffffffffffffffffffff1602179055505050505062000653565b3373ffffffffffffffffffffffffffffffffffffffff168173ffffffffffffffffffffffffffffffffffffffff161415620002ff576040517f08c379a0000000000000000000000000000000000000000000000000000000008152600401620002f69062000631565b60405180910390fd5b80600160006101000a81548173ffffffffffffffffffffffffffffffffffffffff021916908373ffffffffffffffffffffffffffffffffffffffff1602179055508073ffffffffffffffffffffffffffffffffffffffff1660008054906101000a900473ffffffffffffffffffffffffffffffffffffffff1673ffffffffffffffffffffffffffffffffffffffff167fed8889f560326eb138920d842192f0eb3dd22b4f139c87a2c57538e05bae127860405160405180910390a350565b600080fd5b600067ffffffffffffffff82169050919050565b620003e181620003c2565b8114620003ed57600080fd5b50565b6000815190506200040181620003d6565b92915050565b6000819050919050565b6200041c8162000407565b81146200042857600080fd5b50565b6000815190506200043c8162000411565b92915050565b600073ffffffffffffffffffffffffffffffffffffffff82169050919050565b60006200046f8262000442565b9050919050565b620004818162000462565b81146200048d57600080fd5b50565b600081519050620004a18162000476565b92915050565b6000620004b48262000442565b9050919050565b620004c681620004a7565b8114620004d257600080fd5b50565b600081519050620004e681620004bb565b92915050565b60008060008060808587031215620005095762000508620003bd565b5b60006200051987828801620003f0565b94505060206200052c878288016200042b565b93505060406200053f8782880162000490565b92505060606200055287828801620004d5565b91505092959194509250565b600082825260208201905092915050565b7f43616e6e6f7420736574206f776e657220746f207a65726f0000000000000000600082015250565b6000620005a76018836200055e565b9150620005b4826200056f565b602082019050919050565b60006020820190508181036000830152620005da8162000598565b9050919050565b7f43616e6e6f74207472616e7366657220746f2073656c66000000000000000000600082015250565b6000620006196017836200055e565b91506200062682620005e1565b602082019050919050565b600060208201905081810360008301526200064c816200060a565b9050919050565b60805161151962000676600039600081816101f1015261024501526115196000f3fe608060405234801561001057600080fd5b506004361061009e5760003560e01c8063d8a4676f11610066578063d8a4676f14610148578063dfcb910b14610179578063e0c8628914610197578063f2fde38b146101b5578063fc2a88c3146101d15761009e565b80631fe543e3146100a357806379ba5097146100bf5780638796ba8c146100c95780638da5cb5b146100f9578063d49f5cc914610117575b600080fd5b6100bd60048036038101906100b89190610df1565b6101ef565b005b6100c76102af565b005b6100e360048036038101906100de9190610e4d565b610444565b6040516100f09190610e89565b60405180910390f35b610101610468565b60405161010e9190610ee5565b60405180910390f35b610131600480360381019061012c9190610e4d565b610491565b60405161013f929190610f1b565b60405180910390f35b610162600480360381019061015d9190610e4d565b6104cf565b604051610170929190611002565b60405180910390f35b6101816105fa565b60405161018e9190611091565b60405180910390f35b61019f610620565b6040516101ac9190610e89565b60405180910390f35b6101cf60048036038101906101ca91906110d8565b610886565b005b6101d961089a565b6040516101e69190610e89565b60405180910390f35b7f000000000000000000000000000000000000000000000000000000000000000073ffffffffffffffffffffffffffffffffffffffff163373ffffffffffffffffffffffffffffffffffffffff16146102a157337f00000000000000000000000000000000000000000000000000000000000000006040517f1cf993f4000000000000000000000000000000000000000000000000000000008152600401610298929190611105565b60405180910390fd5b6102ab82826108a0565b5050565b600160009054906101000a900473ffffffffffffffffffffffffffffffffffffffff1673ffffffffffffffffffffffffffffffffffffffff163373ffffffffffffffffffffffffffffffffffffffff161461033f576040517f08c379a00000000000000000000000000000000000000000000000000000000081526004016103369061118b565b60405180910390fd5b60008060009054906101000a900473ffffffffffffffffffffffffffffffffffffffff169050336000806101000a81548173ffffffffffffffffffffffffffffffffffffffff021916908373ffffffffffffffffffffffffffffffffffffffff1602179055506000600160006101000a81548173ffffffffffffffffffffffffffffffffffffffff021916908373ffffffffffffffffffffffffffffffffffffffff1602179055503373ffffffffffffffffffffffffffffffffffffffff168173ffffffffffffffffffffffffffffffffffffffff167f8be0079c531659141344cd1fd0a4f28419497f9722a3daafe3b4186f6b6457e060405160405180910390a350565b6005818154811061045457600080fd5b906000526020600020016000915090505481565b60008060009054906101000a900473ffffffffffffffffffffffffffffffffffffffff16905090565b60076020528060005260406000206000915090508060000160009054906101000a900460ff16908060000160019054906101000a900460ff16905082565b600060606007600084815260200190815260200160002060000160019054906101000a900460ff16610536576040517f08c379a000000000000000000000000000000000000000000000000000000000815260040161052d906111f7565b60405180910390fd5b6000600760008581526020019081526020016000206040518060600160405290816000820160009054906101000a900460ff161515151581526020016000820160019054906101000a900460ff16151515158152602001600182018054806020026020016040519081016040528092919081815260200182805480156105db57602002820191906000526020600020905b8154815260200190600101908083116105c7575b5050505050815250509050806000015181604001519250925050915091565b600260009054906101000a900473ffffffffffffffffffffffffffffffffffffffff1681565b600061062a610a27565b600860009054906101000a900473ffffffffffffffffffffffffffffffffffffffff1673ffffffffffffffffffffffffffffffffffffffff16635d3b1d30600354600260149054906101000a900467ffffffffffffffff1660048054906101000a900461ffff16600460009054906101000a900463ffffffff16600460069054906101000a900463ffffffff166040518663ffffffff1660e01b81526004016106d795949392919061128f565b602060405180830381600087803b1580156106f157600080fd5b505af1158015610705573d6000803e3d6000fd5b505050506040513d601f19601f8201168201806040525081019061072991906112f7565b90506040518060600160405280600015158152602001600115158152602001600067ffffffffffffffff81111561076357610762610cae565b5b6040519080825280602002602001820160405280156107915781602001602082028036833780820191505090505b508152506007600083815260200190815260200160002060008201518160000160006101000a81548160ff02191690831515021790555060208201518160000160016101000a81548160ff0219169083151502179055506040820151816001019080519060200190610804929190610be4565b509050506005819080600181540180825580915050600190039060005260206000200160009091909190915055806006819055507fcc58b13ad3eab50626c6a6300b1d139cd6ebb1688a7cced9461c2f7e762665ee81600460069054906101000a900463ffffffff1660405161087b929190611324565b60405180910390a190565b61088e610a27565b61089781610ab7565b50565b60065481565b6007600083815260200190815260200160002060000160019054906101000a900460ff16610903576040517f08c379a00000000000000000000000000000000000000000000000000000000081526004016108fa90611399565b60405180910390fd5b60016007600084815260200190815260200160002060000160006101000a81548160ff0219169083151502179055508060076000848152602001908152602001600020600101908051906020019061095c929190610be4565b507ffe2e2d779dba245964d4e3ef9b994be63856fd568bf7d3ca9e224755cb1bd54d828260405161098e9291906113b9565b60405180910390a1600260009054906101000a900473ffffffffffffffffffffffffffffffffffffffff1673ffffffffffffffffffffffffffffffffffffffff1663b7442c9f826040518263ffffffff1660e01b81526004016109f191906113e9565b600060405180830381600087803b158015610a0b57600080fd5b505af1158015610a1f573d6000803e3d6000fd5b505050505050565b60008054906101000a900473ffffffffffffffffffffffffffffffffffffffff1673ffffffffffffffffffffffffffffffffffffffff163373ffffffffffffffffffffffffffffffffffffffff1614610ab5576040517f08c379a0000000000000000000000000000000000000000000000000000000008152600401610aac90611457565b60405180910390fd5b565b3373ffffffffffffffffffffffffffffffffffffffff168173ffffffffffffffffffffffffffffffffffffffff161415610b26576040517f08c379a0000000000000000000000000000000000000000000000000000000008152600401610b1d906114c3565b60405180910390fd5b80600160006101000a81548173ffffffffffffffffffffffffffffffffffffffff021916908373ffffffffffffffffffffffffffffffffffffffff1602179055508073ffffffffffffffffffffffffffffffffffffffff1660008054906101000a900473ffffffffffffffffffffffffffffffffffffffff1673ffffffffffffffffffffffffffffffffffffffff167fed8889f560326eb138920d842192f0eb3dd22b4f139c87a2c57538e05bae127860405160405180910390a350565b828054828255906000526020600020908101928215610c20579160200282015b82811115610c1f578251825591602001919060010190610c04565b5b509050610c2d9190610c31565b5090565b5b80821115610c4a576000816000905550600101610c32565b5090565b6000604051905090565b600080fd5b600080fd5b6000819050919050565b610c7581610c62565b8114610c8057600080fd5b50565b600081359050610c9281610c6c565b92915050565b600080fd5b6000601f19601f8301169050919050565b7f4e487b7100000000000000000000000000000000000000000000000000000000600052604160045260246000fd5b610ce682610c9d565b810181811067ffffffffffffffff82111715610d0557610d04610cae565b5b80604052505050565b6000610d18610c4e565b9050610d248282610cdd565b919050565b600067ffffffffffffffff821115610d4457610d43610cae565b5b602082029050602081019050919050565b600080fd5b6000610d6d610d6884610d29565b610d0e565b90508083825260208201905060208402830185811115610d9057610d8f610d55565b5b835b81811015610db95780610da58882610c83565b845260208401935050602081019050610d92565b5050509392505050565b600082601f830112610dd857610dd7610c98565b5b8135610de8848260208601610d5a565b91505092915050565b60008060408385031215610e0857610e07610c58565b5b6000610e1685828601610c83565b925050602083013567ffffffffffffffff811115610e3757610e36610c5d565b5b610e4385828601610dc3565b9150509250929050565b600060208284031215610e6357610e62610c58565b5b6000610e7184828501610c83565b91505092915050565b610e8381610c62565b82525050565b6000602082019050610e9e6000830184610e7a565b92915050565b600073ffffffffffffffffffffffffffffffffffffffff82169050919050565b6000610ecf82610ea4565b9050919050565b610edf81610ec4565b82525050565b6000602082019050610efa6000830184610ed6565b92915050565b60008115159050919050565b610f1581610f00565b82525050565b6000604082019050610f306000830185610f0c565b610f3d6020830184610f0c565b9392505050565b600081519050919050565b600082825260208201905092915050565b6000819050602082019050919050565b610f7981610c62565b82525050565b6000610f8b8383610f70565b60208301905092915050565b6000602082019050919050565b6000610faf82610f44565b610fb98185610f4f565b9350610fc483610f60565b8060005b83811015610ff5578151610fdc8882610f7f565b9750610fe783610f97565b925050600181019050610fc8565b5085935050505092915050565b60006040820190506110176000830185610f0c565b81810360208301526110298184610fa4565b90509392505050565b6000819050919050565b600061105761105261104d84610ea4565b611032565b610ea4565b9050919050565b60006110698261103c565b9050919050565b600061107b8261105e565b9050919050565b61108b81611070565b82525050565b60006020820190506110a66000830184611082565b92915050565b6110b581610ec4565b81146110c057600080fd5b50565b6000813590506110d2816110ac565b92915050565b6000602082840312156110ee576110ed610c58565b5b60006110fc848285016110c3565b91505092915050565b600060408201905061111a6000830185610ed6565b6111276020830184610ed6565b9392505050565b600082825260208201905092915050565b7f4d7573742062652070726f706f736564206f776e657200000000000000000000600082015250565b600061117560168361112e565b91506111808261113f565b602082019050919050565b600060208201905081810360008301526111a481611168565b9050919050565b7f72657175657374206e6f7420666f756e64000000000000000000000000000000600082015250565b60006111e160118361112e565b91506111ec826111ab565b602082019050919050565b60006020820190508181036000830152611210816111d4565b9050919050565b6000819050919050565b61122a81611217565b82525050565b600067ffffffffffffffff82169050919050565b61124d81611230565b82525050565b600061ffff82169050919050565b61126a81611253565b82525050565b600063ffffffff82169050919050565b61128981611270565b82525050565b600060a0820190506112a46000830188611221565b6112b16020830187611244565b6112be6040830186611261565b6112cb6060830185611280565b6112d86080830184611280565b9695505050505050565b6000815190506112f181610c6c565b92915050565b60006020828403121561130d5761130c610c58565b5b600061131b848285016112e2565b91505092915050565b60006040820190506113396000830185610e7a565b6113466020830184611280565b9392505050565b7f4754536176653a2072657175657374206964206e6f7420666f756e6400000000600082015250565b6000611383601c8361112e565b915061138e8261134d565b602082019050919050565b600060208201905081810360008301526113b281611376565b9050919050565b60006040820190506113ce6000830185610e7a565b81810360208301526113e08184610fa4565b90509392505050565b600060208201905081810360008301526114038184610fa4565b905092915050565b7f4f6e6c792063616c6c61626c65206279206f776e657200000000000000000000600082015250565b600061144160168361112e565b915061144c8261140b565b602082019050919050565b6000602082019050818103600083015261147081611434565b9050919050565b7f43616e6e6f74207472616e7366657220746f2073656c66000000000000000000600082015250565b60006114ad60178361112e565b91506114b882611477565b602082019050919050565b600060208201905081810360008301526114dc816114a0565b905091905056fea2646970667358221220f2bc789521711e622bc9cf77d8df356e59bf85e8c513078eda1a125b35964e2564736f6c63430008090033","abi":[{"inputs":[{"internalType":"uint64","name":"_subscriptionId","type":"uint64"},{"internalType":"bytes32","name":"_keyhash","type":"bytes32"},{"internalType":"address","name":"_vrfCoordinatior","type":"address"},{"internalType":"address payable","name":"_gtSave","type":"address"}],"stateMutability":"nonpayable","type":"constructor"},{"inputs":[{"internalType":"address","name":"have","type":"address"},{"internalType":"address","name":"want","type":"address"}],"name":"OnlyCoordinatorCanFulfill","type":"error"},{"anonymous":false,"inputs":[{"indexed":true,"internalType":"address","name":"from","type":"address"},{"indexed":true,"internalType":"address","name":"to","type":"address"}],"name":"OwnershipTransferRequested","type":"event"},{"anonymous":false,"inputs":[{"indexed":true,"internalType":"address","name":"from","type":"address"},{"indexed":true,"internalType":"address","name":"to","type":"address"}],"name":"OwnershipTransferred","type":"event"},{"anonymous":false,"inputs":[{"indexed":false,"internalType":"uint256","name":"requestId","type":"uint256"},{"indexed":false,"internalType":"uint256[]","name":"randomWords","type":"uint256[]"}],"name":"RequestFulfilled","type":"event"},{"anonymous":false,"inputs":[{"indexed":false,"internalType":"uint256","name":"requestId","type":"uint256"},{"indexed":false,"internalType":"uint32","name":"numWords","type":"uint32"}],"name":"RequestSent","type":"event"},{"inputs":[],"name":"acceptOwnership","outputs":[],"stateMutability":"nonpayable","type":"function"},{"inputs":[{"internalType":"uint256","name":"_requestId","type":"uint256"}],"name":"getRequestStatus","outputs":[{"internalType":"bool","name":"fulfilled","type":"bool"},{"internalType":"uint256[]","name":"randomWords","type":"uint256[]"}],"stateMutability":"view","type":"function"},{"inputs":[],"name":"gtSave","outputs":[{"internalType":"contract GTSave","name":"","type":"address"}],"stateMutability":"view","type":"function"},{"inputs":[],"name":"lastRequestId","outputs":[{"internalType":"uint256","name":"","type":"uint256"}],"stateMutability":"view","type":"function"},{"inputs":[{"internalType":"uint256","name":"","type":"uint256"}],"name":"listRequests","outputs":[{"internalType":"bool","name":"fulfilled","type":"bool"},{"internalType":"bool","name":"exists","type":"bool"}],"stateMutability":"view","type":"function"},{"inputs":[],"name":"owner","outputs":[{"internalType":"address","name":"","type":"address"}],"stateMutability":"view","type":"function"},{"inputs":[{"internalType":"uint256","name":"requestId","type":"uint256"},{"internalType":"uint256[]","name":"randomWords","type":"uint256[]"}],"name":"rawFulfillRandomWords","outputs":[],"stateMutability":"nonpayable","type":"function"},{"inputs":[{"internalType":"uint256","name":"","type":"uint256"}],"name":"requestIds","outputs":[{"internalType":"uint256","name":"","type":"uint256"}],"stateMutability":"view","type":"function"},{"inputs":[],"name":"requestRandomWords","outputs":[{"internalType":"uint256","name":"requestId","type":"uint256"}],"stateMutability":"nonpayable","type":"function"},{"inputs":[{"internalType":"address","name":"to","type":"address"}],"name":"transferOwnership","outputs":[],"stateMutability":"nonpayable","type":"function"}]}