{"address":"0x668c625E4801227239e989b219fe958376531D21","bytecode":"0x60a06040523480156200001157600080fd5b50604051620030ac380380620030ac83398181016040528101906200003791906200028d565b81600073ffffffffffffffffffffffffffffffffffffffff168173ffffffffffffffffffffffffffffffffffffffff161415620000a0576040517fe6c4247b00000000000000000000000000000000000000000000000000000000815260040160405180910390fd5b8073ffffffffffffffffffffffffffffffffffffffff1660808173ffffffffffffffffffffffffffffffffffffffff168152505050806000806101000a81548173ffffffffffffffffffffffffffffffffffffffff021916908373ffffffffffffffffffffffffffffffffffffffff16021790555060805173ffffffffffffffffffffffffffffffffffffffff1663935b13f66040518060400160405280600581526020017f61555344430000000000000000000000000000000000000000000000000000008152506040518263ffffffff1660e01b815260040162000187919062000378565b60206040518083038186803b158015620001a057600080fd5b505afa158015620001b5573d6000803e3d6000fd5b505050506040513d601f19601f82011682018060405250810190620001db91906200039c565b600160006101000a81548173ffffffffffffffffffffffffffffffffffffffff021916908373ffffffffffffffffffffffffffffffffffffffff1602179055505050620003ce565b600080fd5b600073ffffffffffffffffffffffffffffffffffffffff82169050919050565b6000620002558262000228565b9050919050565b620002678162000248565b81146200027357600080fd5b50565b60008151905062000287816200025c565b92915050565b60008060408385031215620002a757620002a662000223565b5b6000620002b78582860162000276565b9250506020620002ca8582860162000276565b9150509250929050565b600081519050919050565b600082825260208201905092915050565b60005b8381101562000310578082015181840152602081019050620002f3565b8381111562000320576000848401525b50505050565b6000601f19601f8301169050919050565b60006200034482620002d4565b620003508185620002df565b935062000362818560208601620002f0565b6200036d8162000326565b840191505092915050565b6000602082019050818103600083015262000394818462000337565b905092915050565b600060208284031215620003b557620003b462000223565b5b6000620003c58482850162000276565b91505092915050565b608051612c916200041b600039600081816101df0152818161021f015281816104af015281816108b301528181610b5101528181610e190152818161114801526117eb0152612c916000f3fe6080604052600436106100865760003560e01c8063491606581161005957806349160658146101175780635895ebf4146101405780637a6049351461015c5780637ebff1d814610187578063bc95b3b1146101b257610086565b8063116191b61461008b5780631a98b2e0146100b657806329344f08146100df5780633b5a449a146100fb575b600080fd5b34801561009757600080fd5b506100a06101dd565b6040516100ad9190611c36565b60405180910390f35b3480156100c257600080fd5b506100dd60048036038101906100d89190611d82565b610201565b005b6100f960048036038101906100f49190611ed0565b61032c565b005b61011560048036038101906101109190611f10565b61072f565b005b34801561012357600080fd5b5061013e60048036038101906101399190611f63565b610b33565b005b61015a60048036038101906101559190611f10565b610c52565b005b34801561016857600080fd5b50610171611099565b60405161017e919061203b565b60405180910390f35b34801561019357600080fd5b5061019c6110bf565b6040516101a991906120ef565b60405180910390f35b3480156101be57600080fd5b506101c76110f8565b6040516101d491906120ef565b60405180910390f35b7f000000000000000000000000000000000000000000000000000000000000000081565b60008585604051610213929190612150565b604051809103902090507f000000000000000000000000000000000000000000000000000000000000000073ffffffffffffffffffffffffffffffffffffffff16631876eed98c8c8c8c8c878b8b8b6040518a63ffffffff1660e01b8152600401610286999897969594939291906121b4565b602060405180830381600087803b1580156102a057600080fd5b505af11580156102b4573d6000803e3d6000fd5b505050506040513d601f19601f820116820180604052508101906102d89190612268565b61030e576040517f500c44b400000000000000000000000000000000000000000000000000000000815260040160405180910390fd5b61031f8a8a8a8a8a8a8a8a8a611131565b5050505050505050505050565b81600160009054906101000a900473ffffffffffffffffffffffffffffffffffffffff1673ffffffffffffffffffffffffffffffffffffffff166370a08231336040518263ffffffff1660e01b8152600401610388919061203b565b60206040518083038186803b1580156103a057600080fd5b505afa1580156103b4573d6000803e3d6000fd5b505050506040513d601f19601f820116820180604052508101906103d891906122aa565b11610418576040517f08c379a000000000000000000000000000000000000000000000000000000000815260040161040f90612323565b60405180910390fd5b6000341161045b576040517f08c379a0000000000000000000000000000000000000000000000000000000008152600401610452906123b5565b60405180910390fd5b6104aa333084600160009054906101000a900473ffffffffffffffffffffffffffffffffffffffff1673ffffffffffffffffffffffffffffffffffffffff1661122b909392919063ffffffff16565b6105177f000000000000000000000000000000000000000000000000000000000000000083600160009054906101000a900473ffffffffffffffffffffffffffffffffffffffff1673ffffffffffffffffffffffffffffffffffffffff166112b49092919063ffffffff16565b60006040518060a001604052803373ffffffffffffffffffffffffffffffffffffffff16815260200184815260200160008152602001600081526020016000815250905060008160405160200161056e919061245b565b604051602081830303815290604052905060006040518060e001604052803073ffffffffffffffffffffffffffffffffffffffff1681526020016040518060400160405280600781526020017f506f6c79676f6e0000000000000000000000000000000000000000000000000081525081526020016106028673ffffffffffffffffffffffffffffffffffffffff16611412565b81526020018381526020016040518060400160405280600581526020017f615553444300000000000000000000000000000000000000000000000000000081525081526020018681526020013373ffffffffffffffffffffffffffffffffffffffff16815250905060006040518060a001604052806040518060400160405280600781526020017f506f6c79676f6e0000000000000000000000000000000000000000000000000081525081526020016106d18773ffffffffffffffffffffffffffffffffffffffff16611412565b81526020018481526020016040518060400160405280600581526020017f615553444300000000000000000000000000000000000000000000000000000081525081526020018781525090506107278282611735565b505050505050565b82600160009054906101000a900473ffffffffffffffffffffffffffffffffffffffff1673ffffffffffffffffffffffffffffffffffffffff166370a08231336040518263ffffffff1660e01b815260040161078b919061203b565b60206040518083038186803b1580156107a357600080fd5b505afa1580156107b7573d6000803e3d6000fd5b505050506040513d601f19601f820116820180604052508101906107db91906122aa565b101561081c576040517f08c379a000000000000000000000000000000000000000000000000000000000815260040161081390612323565b60405180910390fd5b6000341161085f576040517f08c379a0000000000000000000000000000000000000000000000000000000008152600401610856906123b5565b60405180910390fd5b6108ae333085600160009054906101000a900473ffffffffffffffffffffffffffffffffffffffff1673ffffffffffffffffffffffffffffffffffffffff1661122b909392919063ffffffff16565b61091b7f000000000000000000000000000000000000000000000000000000000000000084600160009054906101000a900473ffffffffffffffffffffffffffffffffffffffff1673ffffffffffffffffffffffffffffffffffffffff166112b49092919063ffffffff16565b60006040518060a001604052803373ffffffffffffffffffffffffffffffffffffffff1681526020016000815260200160028152602001858152602001848152509050600081604051602001610971919061245b565b604051602081830303815290604052905060006040518060e001604052803073ffffffffffffffffffffffffffffffffffffffff1681526020016040518060400160405280600781526020017f506f6c79676f6e000000000000000000000000000000000000000000000000008152508152602001610a058673ffffffffffffffffffffffffffffffffffffffff16611412565b81526020018381526020016040518060400160405280600581526020017f615553444300000000000000000000000000000000000000000000000000000081525081526020018781526020013373ffffffffffffffffffffffffffffffffffffffff16815250905060006040518060a001604052806040518060400160405280600781526020017f506f6c79676f6e000000000000000000000000000000000000000000000000008152508152602001610ad48773ffffffffffffffffffffffffffffffffffffffff16611412565b81526020018481526020016040518060400160405280600581526020017f61555344430000000000000000000000000000000000000000000000000000008152508152602001888152509050610b2a8282611735565b50505050505050565b60008282604051610b45929190612150565b604051809103902090507f000000000000000000000000000000000000000000000000000000000000000073ffffffffffffffffffffffffffffffffffffffff16635f6970c38989898989876040518763ffffffff1660e01b8152600401610bb296959493929190612476565b602060405180830381600087803b158015610bcc57600080fd5b505af1158015610be0573d6000803e3d6000fd5b505050506040513d601f19601f82011682018060405250810190610c049190612268565b610c3a576040517f500c44b400000000000000000000000000000000000000000000000000000000815260040160405180910390fd5b610c48878787878787611894565b5050505050505050565b81600160009054906101000a900473ffffffffffffffffffffffffffffffffffffffff1673ffffffffffffffffffffffffffffffffffffffff166370a08231336040518263ffffffff1660e01b8152600401610cae919061203b565b60206040518083038186803b158015610cc657600080fd5b505afa158015610cda573d6000803e3d6000fd5b505050506040513d601f19601f82011682018060405250810190610cfe91906122aa565b1015610d3f576040517f08c379a0000000000000000000000000000000000000000000000000000000008152600401610d3690612323565b60405180910390fd5b60003411610d82576040517f08c379a0000000000000000000000000000000000000000000000000000000008152600401610d79906123b5565b60405180910390fd5b60008311610dc5576040517f08c379a0000000000000000000000000000000000000000000000000000000008152600401610dbc9061253f565b60405180910390fd5b610e14333084600160009054906101000a900473ffffffffffffffffffffffffffffffffffffffff1673ffffffffffffffffffffffffffffffffffffffff1661122b909392919063ffffffff16565b610e817f000000000000000000000000000000000000000000000000000000000000000083600160009054906101000a900473ffffffffffffffffffffffffffffffffffffffff1673ffffffffffffffffffffffffffffffffffffffff166112b49092919063ffffffff16565b60006040518060a001604052803373ffffffffffffffffffffffffffffffffffffffff1681526020018581526020016001815260200184815260200160008152509050600081604051602001610ed7919061245b565b604051602081830303815290604052905060006040518060e001604052803073ffffffffffffffffffffffffffffffffffffffff1681526020016040518060400160405280600781526020017f506f6c79676f6e000000000000000000000000000000000000000000000000008152508152602001610f6b8673ffffffffffffffffffffffffffffffffffffffff16611412565b81526020018381526020016040518060400160405280600581526020017f615553444300000000000000000000000000000000000000000000000000000081525081526020018681526020013373ffffffffffffffffffffffffffffffffffffffff16815250905060006040518060a001604052806040518060400160405280600781526020017f506f6c79676f6e00000000000000000000000000000000000000000000000000815250815260200161103a8773ffffffffffffffffffffffffffffffffffffffff16611412565b81526020018481526020016040518060400160405280600581526020017f615553444300000000000000000000000000000000000000000000000000000081525081526020018781525090506110908282611735565b50505050505050565b600160009054906101000a900473ffffffffffffffffffffffffffffffffffffffff1681565b6040518060400160405280600581526020017f615553444300000000000000000000000000000000000000000000000000000081525081565b6040518060400160405280600781526020017f506f6c79676f6e0000000000000000000000000000000000000000000000000081525081565b60008585810190611142919061259d565b905060007f000000000000000000000000000000000000000000000000000000000000000073ffffffffffffffffffffffffffffffffffffffff1663935b13f686866040518363ffffffff1660e01b81526004016111a19291906125ca565b60206040518083038186803b1580156111b957600080fd5b505afa1580156111cd573d6000803e3d6000fd5b505050506040513d601f19601f820116820180604052508101906111f19190612603565b905061121e82848373ffffffffffffffffffffffffffffffffffffffff1661189c9092919063ffffffff16565b5050505050505050505050565b6112ae846323b872dd60e01b85858560405160240161124c93929190612630565b604051602081830303815290604052907bffffffffffffffffffffffffffffffffffffffffffffffffffffffff19166020820180517bffffffffffffffffffffffffffffffffffffffffffffffffffffffff8381831617835250505050611922565b50505050565b600081148061134d575060008373ffffffffffffffffffffffffffffffffffffffff1663dd62ed3e30856040518363ffffffff1660e01b81526004016112fb929190612667565b60206040518083038186803b15801561131357600080fd5b505afa158015611327573d6000803e3d6000fd5b505050506040513d601f19601f8201168201806040525081019061134b91906122aa565b145b61138c576040517f08c379a000000000000000000000000000000000000000000000000000000000815260040161138390612702565b60405180910390fd5b61140d8363095ea7b360e01b84846040516024016113ab929190612722565b604051602081830303815290604052907bffffffffffffffffffffffffffffffffffffffffffffffffffffffff19166020820180517bffffffffffffffffffffffffffffffffffffffffffffffffffffffff8381831617835250505050611922565b505050565b60606000826040516020016114279190612793565b604051602081830303815290604052905060008151905060006040518060400160405280601081526020017f3031323334353637383961626364656600000000000000000000000000000000815250905060006002845161148891906127dd565b60026114949190612837565b67ffffffffffffffff8111156114ad576114ac61288d565b5b6040519080825280601f01601f1916602001820160405280156114df5781602001600182028036833780820191505090505b5090507f300000000000000000000000000000000000000000000000000000000000000081600081518110611517576115166128bc565b5b60200101907effffffffffffffffffffffffffffffffffffffffffffffffffffffffffffff1916908160001a9053507f78000000000000000000000000000000000000000000000000000000000000008160018151811061157b5761157a6128bc565b5b60200101907effffffffffffffffffffffffffffffffffffffffffffffffffffffffffffff1916908160001a90535060005b83811015611728578260048683815181106115cb576115ca6128bc565b5b602001015160f81c60f81b7effffffffffffffffffffffffffffffffffffffffffffffffffffffffffffff1916901c60f81c60ff1681518110611611576116106128bc565b5b602001015160f81c60f81b8260028361162a91906127dd565b60026116369190612837565b81518110611647576116466128bc565b5b60200101907effffffffffffffffffffffffffffffffffffffffffffffffffffffffffffff1916908160001a90535082600f60f81b86838151811061168f5761168e6128bc565b5b602001015160f81c60f81b1660f81c60ff16815181106116b2576116b16128bc565b5b602001015160f81c60f81b826002836116cb91906127dd565b60036116d79190612837565b815181106116e8576116e76128bc565b5b60200101907effffffffffffffffffffffffffffffffffffffffffffffffffffffffffffff1916908160001a90535080611721906128eb565b90506115ad565b5080945050505050919050565b60008054906101000a900473ffffffffffffffffffffffffffffffffffffffff1673ffffffffffffffffffffffffffffffffffffffff1663c62c200234846000015185602001518660400151876060015188608001518960a001518a60c001516040518963ffffffff1660e01b81526004016117b79796959493929190612989565b6000604051808303818588803b1580156117d057600080fd5b505af11580156117e4573d6000803e3d6000fd5b50505050507f000000000000000000000000000000000000000000000000000000000000000073ffffffffffffffffffffffffffffffffffffffff1663b5417084826000015183602001518460400151856060015186608001516040518663ffffffff1660e01b815260040161185e959493929190612a14565b600060405180830381600087803b15801561187857600080fd5b505af115801561188c573d6000803e3d6000fd5b505050505050565b505050505050565b61191d8363a9059cbb60e01b84846040516024016118bb929190612722565b604051602081830303815290604052907bffffffffffffffffffffffffffffffffffffffffffffffffffffffff19166020820180517bffffffffffffffffffffffffffffffffffffffffffffffffffffffff8381831617835250505050611922565b505050565b6000611984826040518060400160405280602081526020017f5361666545524332303a206c6f772d6c6576656c2063616c6c206661696c65648152508573ffffffffffffffffffffffffffffffffffffffff166119e99092919063ffffffff16565b90506000815111156119e457808060200190518101906119a49190612268565b6119e3576040517f08c379a00000000000000000000000000000000000000000000000000000000081526004016119da90612af5565b60405180910390fd5b5b505050565b60606119f88484600085611a01565b90509392505050565b606082471015611a46576040517f08c379a0000000000000000000000000000000000000000000000000000000008152600401611a3d90612b87565b60405180910390fd5b6000808673ffffffffffffffffffffffffffffffffffffffff168587604051611a6f9190612bd8565b60006040518083038185875af1925050503d8060008114611aac576040519150601f19603f3d011682016040523d82523d6000602084013e611ab1565b606091505b5091509150611ac287838387611ace565b92505050949350505050565b60608315611b3157600083511415611b2957611ae985611b44565b611b28576040517f08c379a0000000000000000000000000000000000000000000000000000000008152600401611b1f90612c3b565b60405180910390fd5b5b829050611b3c565b611b3b8383611b67565b5b949350505050565b6000808273ffffffffffffffffffffffffffffffffffffffff163b119050919050565b600082511115611b7a5781518083602001fd5b806040517f08c379a0000000000000000000000000000000000000000000000000000000008152600401611bae91906120ef565b60405180910390fd5b600073ffffffffffffffffffffffffffffffffffffffff82169050919050565b6000819050919050565b6000611bfc611bf7611bf284611bb7565b611bd7565b611bb7565b9050919050565b6000611c0e82611be1565b9050919050565b6000611c2082611c03565b9050919050565b611c3081611c15565b82525050565b6000602082019050611c4b6000830184611c27565b92915050565b600080fd5b600080fd5b6000819050919050565b611c6e81611c5b565b8114611c7957600080fd5b50565b600081359050611c8b81611c65565b92915050565b600080fd5b600080fd5b600080fd5b60008083601f840112611cb657611cb5611c91565b5b8235905067ffffffffffffffff811115611cd357611cd2611c96565b5b602083019150836001820283011115611cef57611cee611c9b565b5b9250929050565b60008083601f840112611d0c57611d0b611c91565b5b8235905067ffffffffffffffff811115611d2957611d28611c96565b5b602083019150836001820283011115611d4557611d44611c9b565b5b9250929050565b6000819050919050565b611d5f81611d4c565b8114611d6a57600080fd5b50565b600081359050611d7c81611d56565b92915050565b60008060008060008060008060008060c08b8d031215611da557611da4611c51565b5b6000611db38d828e01611c7c565b9a505060208b013567ffffffffffffffff811115611dd457611dd3611c56565b5b611de08d828e01611ca0565b995099505060408b013567ffffffffffffffff811115611e0357611e02611c56565b5b611e0f8d828e01611ca0565b975097505060608b013567ffffffffffffffff811115611e3257611e31611c56565b5b611e3e8d828e01611cf6565b955095505060808b013567ffffffffffffffff811115611e6157611e60611c56565b5b611e6d8d828e01611ca0565b935093505060a0611e808d828e01611d6d565b9150509295989b9194979a5092959850565b6000611e9d82611bb7565b9050919050565b611ead81611e92565b8114611eb857600080fd5b50565b600081359050611eca81611ea4565b92915050565b60008060408385031215611ee757611ee6611c51565b5b6000611ef585828601611d6d565b9250506020611f0685828601611ebb565b9150509250929050565b600080600060608486031215611f2957611f28611c51565b5b6000611f3786828701611d6d565b9350506020611f4886828701611d6d565b9250506040611f5986828701611ebb565b9150509250925092565b60008060008060008060006080888a031215611f8257611f81611c51565b5b6000611f908a828b01611c7c565b975050602088013567ffffffffffffffff811115611fb157611fb0611c56565b5b611fbd8a828b01611ca0565b9650965050604088013567ffffffffffffffff811115611fe057611fdf611c56565b5b611fec8a828b01611ca0565b9450945050606088013567ffffffffffffffff81111561200f5761200e611c56565b5b61201b8a828b01611cf6565b925092505092959891949750929550565b61203581611e92565b82525050565b6000602082019050612050600083018461202c565b92915050565b600081519050919050565b600082825260208201905092915050565b60005b83811015612090578082015181840152602081019050612075565b8381111561209f576000848401525b50505050565b6000601f19601f8301169050919050565b60006120c182612056565b6120cb8185612061565b93506120db818560208601612072565b6120e4816120a5565b840191505092915050565b6000602082019050818103600083015261210981846120b6565b905092915050565b600081905092915050565b82818337600083830152505050565b60006121378385612111565b935061214483858461211c565b82840190509392505050565b600061215d82848661212b565b91508190509392505050565b61217281611c5b565b82525050565b60006121848385612061565b935061219183858461211c565b61219a836120a5565b840190509392505050565b6121ae81611d4c565b82525050565b600060c0820190506121c9600083018c612169565b81810360208301526121dc818a8c612178565b905081810360408301526121f181888a612178565b90506122006060830187612169565b8181036080830152612213818587612178565b905061222260a08301846121a5565b9a9950505050505050505050565b60008115159050919050565b61224581612230565b811461225057600080fd5b50565b6000815190506122628161223c565b92915050565b60006020828403121561227e5761227d611c51565b5b600061228c84828501612253565b91505092915050565b6000815190506122a481611d56565b92915050565b6000602082840312156122c0576122bf611c51565b5b60006122ce84828501612295565b91505092915050565b7f4754536176653a20696e73756666696369656e742062616c616e636500000000600082015250565b600061230d601c83612061565b9150612318826122d7565b602082019050919050565b6000602082019050818103600083015261233c81612300565b9050919050565b7f4754536176653a20696e73756666696369656e7420657468657220666f72206160008201527f78656c6172206761732066656500000000000000000000000000000000000000602082015250565b600061239f602d83612061565b91506123aa82612343565b604082019050919050565b600060208201905081810360008301526123ce81612392565b9050919050565b6123de81611e92565b82525050565b6123ed81611d4c565b82525050565b60a08201600082015161240960008501826123d5565b50602082015161241c60208501826123e4565b50604082015161242f60408501826123e4565b50606082015161244260608501826123e4565b50608082015161245560808501826123e4565b50505050565b600060a08201905061247060008301846123f3565b92915050565b600060808201905061248b6000830189612169565b818103602083015261249e818789612178565b905081810360408301526124b3818587612178565b90506124c26060830184612169565b979650505050505050565b7f4754536176653a20616d6f756e74207769746864726177206d757374206e6f7460008201527f207a65726f210000000000000000000000000000000000000000000000000000602082015250565b6000612529602683612061565b9150612534826124cd565b604082019050919050565b600060208201905081810360008301526125588161251c565b9050919050565b600061256a82611bb7565b9050919050565b61257a8161255f565b811461258557600080fd5b50565b60008135905061259781612571565b92915050565b6000602082840312156125b3576125b2611c51565b5b60006125c184828501612588565b91505092915050565b600060208201905081810360008301526125e5818486612178565b90509392505050565b6000815190506125fd81611ea4565b92915050565b60006020828403121561261957612618611c51565b5b6000612627848285016125ee565b91505092915050565b6000606082019050612645600083018661202c565b612652602083018561202c565b61265f60408301846121a5565b949350505050565b600060408201905061267c600083018561202c565b612689602083018461202c565b9392505050565b7f5361666545524332303a20617070726f76652066726f6d206e6f6e2d7a65726f60008201527f20746f206e6f6e2d7a65726f20616c6c6f77616e636500000000000000000000602082015250565b60006126ec603683612061565b91506126f782612690565b604082019050919050565b6000602082019050818103600083015261271b816126df565b9050919050565b6000604082019050612737600083018561202c565b61274460208301846121a5565b9392505050565b60008160601b9050919050565b60006127638261274b565b9050919050565b600061277582612758565b9050919050565b61278d61278882611e92565b61276a565b82525050565b600061279f828461277c565b60148201915081905092915050565b7f4e487b7100000000000000000000000000000000000000000000000000000000600052601160045260246000fd5b60006127e882611d4c565b91506127f383611d4c565b9250817fffffffffffffffffffffffffffffffffffffffffffffffffffffffffffffffff048311821515161561282c5761282b6127ae565b5b828202905092915050565b600061284282611d4c565b915061284d83611d4c565b9250827fffffffffffffffffffffffffffffffffffffffffffffffffffffffffffffffff03821115612882576128816127ae565b5b828201905092915050565b7f4e487b7100000000000000000000000000000000000000000000000000000000600052604160045260246000fd5b7f4e487b7100000000000000000000000000000000000000000000000000000000600052603260045260246000fd5b60006128f682611d4c565b91507fffffffffffffffffffffffffffffffffffffffffffffffffffffffffffffffff821415612929576129286127ae565b5b600182019050919050565b600081519050919050565b600082825260208201905092915050565b600061295b82612934565b612965818561293f565b9350612975818560208601612072565b61297e816120a5565b840191505092915050565b600060e08201905061299e600083018a61202c565b81810360208301526129b081896120b6565b905081810360408301526129c481886120b6565b905081810360608301526129d88187612950565b905081810360808301526129ec81866120b6565b90506129fb60a08301856121a5565b612a0860c083018461202c565b98975050505050505050565b600060a0820190508181036000830152612a2e81886120b6565b90508181036020830152612a4281876120b6565b90508181036040830152612a568186612950565b90508181036060830152612a6a81856120b6565b9050612a7960808301846121a5565b9695505050505050565b7f5361666545524332303a204552433230206f7065726174696f6e20646964206e60008201527f6f74207375636365656400000000000000000000000000000000000000000000602082015250565b6000612adf602a83612061565b9150612aea82612a83565b604082019050919050565b60006020820190508181036000830152612b0e81612ad2565b9050919050565b7f416464726573733a20696e73756666696369656e742062616c616e636520666f60008201527f722063616c6c0000000000000000000000000000000000000000000000000000602082015250565b6000612b71602683612061565b9150612b7c82612b15565b604082019050919050565b60006020820190508181036000830152612ba081612b64565b9050919050565b6000612bb282612934565b612bbc8185612111565b9350612bcc818560208601612072565b80840191505092915050565b6000612be48284612ba7565b915081905092915050565b7f416464726573733a2063616c6c20746f206e6f6e2d636f6e7472616374000000600082015250565b6000612c25601d83612061565b9150612c3082612bef565b602082019050919050565b60006020820190508181036000830152612c5481612c18565b905091905056fea2646970667358221220e4646824edbed050b0028975347ccdf4d4b0314b79b543689be3dd80282f44ac64736f6c63430008090033","abi":[{"inputs":[{"internalType":"address","name":"_gateway","type":"address"},{"internalType":"address","name":"_gasReceiver","type":"address"}],"stateMutability":"nonpayable","type":"constructor"},{"inputs":[],"name":"InvalidAddress","type":"error"},{"inputs":[],"name":"NotApprovedByGateway","type":"error"},{"inputs":[],"name":"axlUsdc","outputs":[{"internalType":"address","name":"","type":"address"}],"stateMutability":"view","type":"function"},{"inputs":[],"name":"destChain","outputs":[{"internalType":"string","name":"","type":"string"}],"stateMutability":"view","type":"function"},{"inputs":[{"internalType":"bytes32","name":"commandId","type":"bytes32"},{"internalType":"string","name":"sourceChain","type":"string"},{"internalType":"string","name":"sourceAddress","type":"string"},{"internalType":"bytes","name":"payload","type":"bytes"}],"name":"execute","outputs":[],"stateMutability":"nonpayable","type":"function"},{"inputs":[{"internalType":"bytes32","name":"commandId","type":"bytes32"},{"internalType":"string","name":"sourceChain","type":"string"},{"internalType":"string","name":"sourceAddress","type":"string"},{"internalType":"bytes","name":"payload","type":"bytes"},{"internalType":"string","name":"tokenSymbol","type":"string"},{"internalType":"uint256","name":"amount","type":"uint256"}],"name":"executeWithToken","outputs":[],"stateMutability":"nonpayable","type":"function"},{"inputs":[],"name":"gateway","outputs":[{"internalType":"contract IAxelarGateway","name":"","type":"address"}],"stateMutability":"view","type":"function"},{"inputs":[{"internalType":"uint256","name":"amountFeeBack","type":"uint256"},{"internalType":"uint256","name":"_roundId","type":"uint256"},{"internalType":"address","name":"destAddress","type":"address"}],"name":"requestClaimPrize","outputs":[],"stateMutability":"payable","type":"function"},{"inputs":[{"internalType":"uint256","name":"amount","type":"uint256"},{"internalType":"address","name":"destAddress","type":"address"}],"name":"requestDeposit","outputs":[],"stateMutability":"payable","type":"function"},{"inputs":[{"internalType":"uint256","name":"amount","type":"uint256"},{"internalType":"uint256","name":"amountFeeBack","type":"uint256"},{"internalType":"address","name":"destAddress","type":"address"}],"name":"requestWithdraw","outputs":[],"stateMutability":"payable","type":"function"},{"inputs":[],"name":"supportedAxlToken","outputs":[{"internalType":"string","name":"","type":"string"}],"stateMutability":"view","type":"function"}]}